{
  "_format": "hh-sol-artifact-1",
  "contractName": "ChunkLinearReward",
  "sourceName": "contracts/reward/ChunkLinearReward.sol",
  "abi": [
    {
      "inputs": [
        {
          "internalType": "uint256",
          "name": "releaseSeconds_",
          "type": "uint256"
        }
      ],
      "stateMutability": "nonpayable",
      "type": "constructor"
    },
    {
      "inputs": [],
      "name": "AccessControlBadConfirmation",
      "type": "error"
    },
    {
      "inputs": [
        {
          "internalType": "address",
          "name": "account",
          "type": "address"
        },
        {
          "internalType": "bytes32",
          "name": "neededRole",
          "type": "bytes32"
        }
      ],
      "name": "AccessControlUnauthorizedAccount",
      "type": "error"
    },
    {
      "inputs": [
        {
          "internalType": "address",
          "name": "account",
          "type": "address"
        }
      ],
      "name": "AddressInsufficientBalance",
      "type": "error"
    },
    {
      "inputs": [],
      "name": "FailedInnerCall",
      "type": "error"
    },
    {
      "inputs": [],
      "name": "InvalidInitialization",
      "type": "error"
    },
    {
      "inputs": [],
      "name": "NotInitializing",
      "type": "error"
    },
    {
      "anonymous": false,
      "inputs": [
        {
          "indexed": true,
          "internalType": "uint256",
          "name": "pricingIndex",
          "type": "uint256"
        },
        {
          "indexed": true,
          "internalType": "address",
          "name": "beneficiary",
          "type": "address"
        },
        {
          "indexed": true,
          "internalType": "bytes32",
          "name": "minerId",
          "type": "bytes32"
        },
        {
          "indexed": false,
          "internalType": "uint256",
          "name": "amount",
          "type": "uint256"
        }
      ],
      "name": "DistributeReward",
      "type": "event"
    },
    {
      "anonymous": false,
      "inputs": [
        {
          "indexed": false,
          "internalType": "uint64",
          "name": "version",
          "type": "uint64"
        }
      ],
      "name": "Initialized",
      "type": "event"
    },
    {
      "anonymous": false,
      "inputs": [
        {
          "indexed": true,
          "internalType": "bytes32",
          "name": "role",
          "type": "bytes32"
        },
        {
          "indexed": true,
          "internalType": "bytes32",
          "name": "previousAdminRole",
          "type": "bytes32"
        },
        {
          "indexed": true,
          "internalType": "bytes32",
          "name": "newAdminRole",
          "type": "bytes32"
        }
      ],
      "name": "RoleAdminChanged",
      "type": "event"
    },
    {
      "anonymous": false,
      "inputs": [
        {
          "indexed": true,
          "internalType": "bytes32",
          "name": "role",
          "type": "bytes32"
        },
        {
          "indexed": true,
          "internalType": "address",
          "name": "account",
          "type": "address"
        },
        {
          "indexed": true,
          "internalType": "address",
          "name": "sender",
          "type": "address"
        }
      ],
      "name": "RoleGranted",
      "type": "event"
    },
    {
      "anonymous": false,
      "inputs": [
        {
          "indexed": true,
          "internalType": "bytes32",
          "name": "role",
          "type": "bytes32"
        },
        {
          "indexed": true,
          "internalType": "address",
          "name": "account",
          "type": "address"
        },
        {
          "indexed": true,
          "internalType": "address",
          "name": "sender",
          "type": "address"
        }
      ],
      "name": "RoleRevoked",
      "type": "event"
    },
    {
      "inputs": [],
      "name": "DEFAULT_ADMIN_ROLE",
      "outputs": [
        {
          "internalType": "bytes32",
          "name": "",
          "type": "bytes32"
        }
      ],
      "stateMutability": "view",
      "type": "function"
    },
    {
      "inputs": [],
      "name": "baseReward",
      "outputs": [
        {
          "internalType": "uint256",
          "name": "",
          "type": "uint256"
        }
      ],
      "stateMutability": "view",
      "type": "function"
    },
    {
      "inputs": [
        {
          "internalType": "uint256",
          "name": "pricingIndex",
          "type": "uint256"
        },
        {
          "internalType": "address payable",
          "name": "beneficiary",
          "type": "address"
        },
        {
          "internalType": "bytes32",
          "name": "minerID",
          "type": "bytes32"
        }
      ],
      "name": "claimMineReward",
      "outputs": [],
      "stateMutability": "nonpayable",
      "type": "function"
    },
    {
      "inputs": [],
      "name": "donate",
      "outputs": [],
      "stateMutability": "payable",
      "type": "function"
    },
    {
      "inputs": [
        {
          "internalType": "uint256",
          "name": "beforeLength",
          "type": "uint256"
        },
        {
          "internalType": "uint256",
          "name": "chargedSectors",
          "type": "uint256"
        }
      ],
      "name": "fillReward",
      "outputs": [],
      "stateMutability": "payable",
      "type": "function"
    },
    {
      "inputs": [],
      "name": "firstRewardableChunk",
      "outputs": [
        {
          "internalType": "uint64",
          "name": "",
          "type": "uint64"
        },
        {
          "internalType": "uint256",
          "name": "",
          "type": "uint256"
        }
      ],
      "stateMutability": "view",
      "type": "function"
    },
    {
      "inputs": [],
      "name": "foundationAdmin",
      "outputs": [
        {
          "internalType": "address",
          "name": "",
          "type": "address"
        }
      ],
      "stateMutability": "view",
      "type": "function"
    },
    {
      "inputs": [
        {
          "internalType": "bytes32",
          "name": "role",
          "type": "bytes32"
        }
      ],
      "name": "getRoleAdmin",
      "outputs": [
        {
          "internalType": "bytes32",
          "name": "",
          "type": "bytes32"
        }
      ],
      "stateMutability": "view",
      "type": "function"
    },
    {
      "inputs": [
        {
          "internalType": "bytes32",
          "name": "role",
          "type": "bytes32"
        },
        {
          "internalType": "uint256",
          "name": "index",
          "type": "uint256"
        }
      ],
      "name": "getRoleMember",
      "outputs": [
        {
          "internalType": "address",
          "name": "",
          "type": "address"
        }
      ],
      "stateMutability": "view",
      "type": "function"
    },
    {
      "inputs": [
        {
          "internalType": "bytes32",
          "name": "role",
          "type": "bytes32"
        }
      ],
      "name": "getRoleMemberCount",
      "outputs": [
        {
          "internalType": "uint256",
          "name": "",
          "type": "uint256"
        }
      ],
      "stateMutability": "view",
      "type": "function"
    },
    {
      "inputs": [
        {
          "internalType": "bytes32",
          "name": "role",
          "type": "bytes32"
        },
        {
          "internalType": "address",
          "name": "account",
          "type": "address"
        }
      ],
      "name": "grantRole",
      "outputs": [],
      "stateMutability": "nonpayable",
      "type": "function"
    },
    {
      "inputs": [
        {
          "internalType": "bytes32",
          "name": "role",
          "type": "bytes32"
        },
        {
          "internalType": "address",
          "name": "account",
          "type": "address"
        }
      ],
      "name": "hasRole",
      "outputs": [
        {
          "internalType": "bool",
          "name": "",
          "type": "bool"
        }
      ],
      "stateMutability": "view",
      "type": "function"
    },
    {
      "inputs": [
        {
          "internalType": "address",
          "name": "market_",
          "type": "address"
        },
        {
          "internalType": "address",
          "name": "mine_",
          "type": "address"
        },
        {
          "internalType": "address",
          "name": "foundationAdmin_",
          "type": "address"
        }
      ],
      "name": "initialize",
      "outputs": [],
      "stateMutability": "nonpayable",
      "type": "function"
    },
    {
      "inputs": [],
      "name": "market",
      "outputs": [
        {
          "internalType": "address",
          "name": "",
          "type": "address"
        }
      ],
      "stateMutability": "view",
      "type": "function"
    },
    {
      "inputs": [],
      "name": "mine",
      "outputs": [
        {
          "internalType": "address",
          "name": "",
          "type": "address"
        }
      ],
      "stateMutability": "view",
      "type": "function"
    },
    {
      "inputs": [
        {
          "internalType": "address",
          "name": "dest",
          "type": "address"
        }
      ],
      "name": "payments",
      "outputs": [
        {
          "internalType": "uint256",
          "name": "",
          "type": "uint256"
        }
      ],
      "stateMutability": "view",
      "type": "function"
    },
    {
      "inputs": [],
      "name": "releaseSeconds",
      "outputs": [
        {
          "internalType": "uint256",
          "name": "",
          "type": "uint256"
        }
      ],
      "stateMutability": "view",
      "type": "function"
    },
    {
      "inputs": [
        {
          "internalType": "bytes32",
          "name": "role",
          "type": "bytes32"
        },
        {
          "internalType": "address",
          "name": "callerConfirmation",
          "type": "address"
        }
      ],
      "name": "renounceRole",
      "outputs": [],
      "stateMutability": "nonpayable",
      "type": "function"
    },
    {
      "inputs": [
        {
          "internalType": "bytes32",
          "name": "role",
          "type": "bytes32"
        },
        {
          "internalType": "address",
          "name": "account",
          "type": "address"
        }
      ],
      "name": "revokeRole",
      "outputs": [],
      "stateMutability": "nonpayable",
      "type": "function"
    },
    {
      "inputs": [
        {
          "internalType": "uint256",
          "name": "pricingIndex",
          "type": "uint256"
        }
      ],
      "name": "rewardDeadline",
      "outputs": [
        {
          "internalType": "uint256",
          "name": "",
          "type": "uint256"
        }
      ],
      "stateMutability": "view",
      "type": "function"
    },
    {
      "inputs": [
        {
          "internalType": "uint256",
          "name": "id",
          "type": "uint256"
        }
      ],
      "name": "rewards",
      "outputs": [
        {
          "components": [
            {
              "internalType": "uint128",
              "name": "lockedReward",
              "type": "uint128"
            },
            {
              "internalType": "uint128",
              "name": "claimableReward",
              "type": "uint128"
            },
            {
              "internalType": "uint128",
              "name": "distributedReward",
              "type": "uint128"
            },
            {
              "internalType": "uint40",
              "name": "startTime",
              "type": "uint40"
            },
            {
              "internalType": "uint40",
              "name": "lastUpdate",
              "type": "uint40"
            }
          ],
          "internalType": "struct Reward",
          "name": "",
          "type": "tuple"
        }
      ],
      "stateMutability": "view",
      "type": "function"
    },
    {
      "inputs": [],
      "name": "serviceFeeRateBps",
      "outputs": [
        {
          "internalType": "uint256",
          "name": "",
          "type": "uint256"
        }
      ],
      "stateMutability": "view",
      "type": "function"
    },
    {
      "inputs": [
        {
          "internalType": "uint256",
          "name": "baseReward_",
          "type": "uint256"
        }
      ],
      "name": "setBaseReward",
      "outputs": [],
      "stateMutability": "nonpayable",
      "type": "function"
    },
    {
      "inputs": [
        {
          "internalType": "address",
          "name": "foundationAdmin_",
          "type": "address"
        }
      ],
      "name": "setFoundationAdmin",
      "outputs": [],
      "stateMutability": "nonpayable",
      "type": "function"
    },
    {
      "inputs": [
        {
          "internalType": "uint256",
          "name": "bps",
          "type": "uint256"
        }
      ],
      "name": "setServiceFeeRate",
      "outputs": [],
      "stateMutability": "nonpayable",
      "type": "function"
    },
    {
      "inputs": [
        {
          "internalType": "address",
          "name": "treasury_",
          "type": "address"
        }
      ],
      "name": "setTreasury",
      "outputs": [],
      "stateMutability": "nonpayable",
      "type": "function"
    },
    {
      "inputs": [
        {
          "internalType": "bytes4",
          "name": "interfaceId",
          "type": "bytes4"
        }
      ],
      "name": "supportsInterface",
      "outputs": [
        {
          "internalType": "bool",
          "name": "",
          "type": "bool"
        }
      ],
      "stateMutability": "view",
      "type": "function"
    },
    {
      "inputs": [],
      "name": "totalBaseReward",
      "outputs": [
        {
          "internalType": "uint256",
          "name": "",
          "type": "uint256"
        }
      ],
      "stateMutability": "view",
      "type": "function"
    },
    {
      "inputs": [],
      "name": "treasury",
      "outputs": [
        {
          "internalType": "address",
          "name": "",
          "type": "address"
        }
      ],
      "stateMutability": "view",
      "type": "function"
    },
    {
      "inputs": [
        {
          "internalType": "address payable",
          "name": "payee",
          "type": "address"
        }
      ],
      "name": "withdrawPayments",
      "outputs": [],
      "stateMutability": "nonpayable",
      "type": "function"
    }
  ],
  "bytecode": "0x60a060405234801561001057600080fd5b5060405161289038038061289083398101604081905261002f91610037565b608052610050565b60006020828403121561004957600080fd5b5051919050565b608051612810610080600039600081816102a10152818161073501528181611880015261199901526128106000f3fe608060405260043610620001f35760003560e01c80639010d07c116200010b578063c057511111620000a1578063e2982c21116200006c578063e2982c2114620005a7578063ed88c68e14620005cc578063f0f4426014620005d6578063f301af4214620005fb57600080fd5b8063c05751111462000520578063c0c53b8b1462000538578063ca15c873146200055d578063d547741f146200058257600080fd5b80639b1d309111620000e25780639b1d30911462000486578063a217fddf14620004ab578063b3b30c1a14620004c2578063b7a3c04c14620004fb57600080fd5b80639010d07c146200042457806391d14854146200044957806399f4b251146200046e57600080fd5b80633591d79e116200018d57806376ad03bc116200015857806376ad03bc14620003c45780637859f68914620003dc5780637f1b5e4314620003f457806380f55605146200040c57600080fd5b80633591d79e146200033257806336568abe146200035757806359e96700146200037c57806361d027b3146200039357600080fd5b80632129593111620001ce57806321295931146200028d578063248a9ca314620002c35780632f2ff15d14620002e857806331b3eb94146200030d57600080fd5b806301ffc9a714620001f85780630373a23a14620002325780630a539a191462000259575b600080fd5b3480156200020557600080fd5b506200021d6200021736600462001f1e565b62000678565b60405190151581526020015b60405180910390f35b3480156200023f57600080fd5b50620002576200025136600462001f4a565b620006a6565b005b3480156200026657600080fd5b506200027e6200027836600462001f4a565b62000706565b60405190815260200162000229565b3480156200029a57600080fd5b506200027e7f000000000000000000000000000000000000000000000000000000000000000081565b348015620002d057600080fd5b506200027e620002e236600462001f4a565b62000773565b348015620002f557600080fd5b50620002576200030736600462001f7a565b62000796565b3480156200031a57600080fd5b50620002576200032c36600462001fad565b620007be565b3480156200033f57600080fd5b50620002576200035136600462001fad565b62000836565b3480156200036457600080fd5b50620002576200037636600462001f7a565b620008a8565b620002576200038d36600462001fcd565b620008e3565b348015620003a057600080fd5b50620003ab62000d6f565b6040516001600160a01b03909116815260200162000229565b348015620003d157600080fd5b506200027e62000d8d565b348015620003e957600080fd5b50620003ab62000da2565b3480156200040157600080fd5b506200027e62000dc0565b3480156200041957600080fd5b50620003ab62000dd5565b3480156200043157600080fd5b50620003ab6200044336600462001fcd565b62000df0565b3480156200045657600080fd5b506200021d6200046836600462001f7a565b62000e22565b3480156200047b57600080fd5b50620003ab62000e5b565b3480156200049357600080fd5b5062000257620004a536600462001f4a565b62000e79565b348015620004b857600080fd5b506200027e600081565b348015620004cf57600080fd5b50620004da62000ed0565b6040805167ffffffffffffffff909316835260208301919091520162000229565b3480156200050857600080fd5b50620002576200051a36600462001ff0565b62000f96565b3480156200052d57600080fd5b506200027e620011e1565b3480156200054557600080fd5b5062000257620005573660046200202b565b620011f6565b3480156200056a57600080fd5b506200027e6200057c36600462001f4a565b62001367565b3480156200058f57600080fd5b5062000257620005a136600462001f7a565b62001390565b348015620005b457600080fd5b506200027e620005c636600462001fad565b620013b2565b6200025762001437565b348015620005e357600080fd5b5062000257620005f536600462001fad565b62001463565b3480156200060857600080fd5b50620006206200061a36600462001f4a565b620014d5565b6040805182516001600160801b03908116825260208085015182169083015283830151169181019190915260608083015164ffffffffff90811691830191909152608092830151169181019190915260a00162000229565b60006001600160e01b03198216635a05180f60e01b1480620006a05750620006a08262001578565b92915050565b620006b0620015af565b600701546001600160a01b0316336001600160a01b031614620006f05760405162461bcd60e51b8152600401620006e7906200207d565b60405180910390fd5b6000620006fc620015af565b6004019190915550565b6000806200071483620014d5565b9050806060015164ffffffffff16600003620007335750600092915050565b7f0000000000000000000000000000000000000000000000000000000000000000816060015164ffffffffff166200076c9190620020c1565b9392505050565b6000908152600080516020620027bb833981519152602052604090206001015490565b620007a18262000773565b620007ac81620015d3565b620007b88383620015e2565b50505050565b60006000805160206200277b83398151915280546040516351cff8d960e01b81526001600160a01b0385811660048301529293509116906351cff8d990602401600060405180830381600087803b1580156200081957600080fd5b505af11580156200082e573d6000803e3d6000fd5b505050505050565b62000840620015af565b600701546001600160a01b0316336001600160a01b031614620008775760405162461bcd60e51b8152600401620006e7906200207d565b600062000883620015af565b60070180546001600160a01b0319166001600160a01b03939093169290921790915550565b6001600160a01b0381163314620008d25760405163334bd91960e11b815260040160405180910390fd5b620008de82826200162d565b505050565b6000620008ef620015af565b80549091506001600160a01b0316336001600160a01b031614620009565760405162461bcd60e51b815260206004820152601f60248201527f53656e64657220646f6573206e6f742068617665207065726d697373696f6e006044820152606401620006e7565b60006127108260050154346200096d9190620020d7565b62000979919062002107565b905080156200099c5760068201546200099c906001600160a01b0316826200166f565b6000620009aa82346200211e565b905083600081610100620009c161040080620020d7565b620009cf90610400620020d7565b620009dc906008620020d7565b620009e8919062002107565b620009f49085620020d7565b62000a00919062002107565b9050600062000a108389620020c1565b9050600061010062000a2561040080620020d7565b62000a3390610400620020d7565b62000a40906008620020d7565b62000a4c919062002107565b62000a58908a62002134565b61010062000a6961040080620020d7565b62000a7790610400620020d7565b62000a84906008620020d7565b62000a90919062002107565b62000a9c91906200211e565b90506000600161010062000ab361040080620020d7565b62000ac190610400620020d7565b62000ace906008620020d7565b62000ada919062002107565b62000ae6848d620020c1565b62000af2919062002107565b62000afe91906200211e565b9050600061010062000b1361040080620020d7565b62000b2190610400620020d7565b62000b2e906008620020d7565b62000b3a919062002107565b62000b476001866200211e565b62000b53919062002134565b62000b60906001620020c1565b9050600061010062000b7561040080620020d7565b62000b8390610400620020d7565b62000b90906008620020d7565b62000b9c919062002107565b62000ba883876200211e565b62000bb4919062002107565b9050600061010062000bc961040080620020d7565b62000bd790610400620020d7565b62000be4906008620020d7565b62000bf0919062002107565b62000bfd836001620020c1565b62000c099190620020d7565b8614905081840362000c3857600084815260028c016020526040902062000c32908a836200170b565b62000d60565b62000ca561010062000c4d61040080620020d7565b62000c5b90610400620020d7565b62000c68906008620020d7565b62000c74919062002107565b62000c80878a620020d7565b62000c8c919062002107565b600086815260028e01602052604090209060016200170b565b600062000cb4856001620020c1565b90505b8281101562000cf357600081815260028d016020526040902062000cde908960016200170b565b8062000cea816200214b565b91505062000cb7565b5062000d6061010062000d0961040080620020d7565b62000d1790610400620020d7565b62000d24906008620020d7565b62000d30919062002107565b62000d3c858a620020d7565b62000d48919062002107565b600084815260028e016020526040902090836200170b565b50505050505050505050505050565b600062000d7b620015af565b600601546001600160a01b0316919050565b600062000d99620015af565b60040154905090565b600062000dae620015af565b600701546001600160a01b0316919050565b600062000dcc620015af565b60030154905090565b600062000de1620015af565b546001600160a01b0316919050565b60008281526000805160206200279b83398151915260208190526040822062000e1a908462001846565b949350505050565b6000918252600080516020620027bb833981519152602090815260408084206001600160a01b0393909316845291905290205460ff1690565b600062000e67620015af565b600101546001600160a01b0316919050565b62000e83620015af565b600701546001600160a01b0316336001600160a01b03161462000eba5760405162461bcd60e51b8152600401620006e7906200207d565b600062000ec6620015af565b6005019190915550565b600080806104005b62000eed8167ffffffffffffffff1662001854565b1562000f0b5790508062000f0360028262002167565b905062000ed8565b8067ffffffffffffffff168267ffffffffffffffff16101562000f8d576000600262000f38848462002196565b62000f449190620021ba565b62000f509084620021e4565b905062000f678167ffffffffffffffff1662001854565b1562000f825762000f7a816001620021e4565b925062000f86565b8091505b5062000f0b565b50924292509050565b600062000fa2620015af565b60018101549091506001600160a01b0316336001600160a01b0316146200100c5760405162461bcd60e51b815260206004820152601f60248201527f53656e64657220646f6573206e6f742068617665207065726d697373696f6e006044820152606401620006e7565b60008481526002820160209081526040808320815160a08101835281546001600160801b038082168352600160801b918290048116958301959095526001909201549384169281019290925264ffffffffff90830481166060830152600160a81b909204909116608082015290620010848262001877565b9050620010928282620018a5565b60006200109f83620018f8565b600088815260028601602090815260408083208751928801516001600160801b03938416600160801b9185168202178255918801516001909101805460608a015160808b0151939095166001600160a81b03199091161764ffffffffff9485169093029290921764ffffffffff60a81b1916600160a81b9390911692909202919091179055909150620011348885846200197c565b90506000818660030154116200114f57856003015462001151565b815b90506200115f8184620020c1565b9250808660030160008282546200117791906200211e565b90915550508215620011d6576200118f8884620019f4565b86886001600160a01b03168a7ff099de0c527342bff1397d08daae31c3de66104f48886094fbe9126a21ebf4b086604051620011cd91815260200190565b60405180910390a45b505050505050505050565b6000620011ed620015af565b60050154905090565b7ff0c57e16840df040f15088dc2f81fe391c3923bec73e23a9662efc9c229c6a008054600160401b810460ff16159067ffffffffffffffff166000811580156200123d5750825b905060008267ffffffffffffffff1660011480156200125b5750303b155b9050811580156200126a575080155b15620012895760405163f92ee8a960e01b815260040160405180910390fd5b845467ffffffffffffffff191660011785558315620012b457845460ff60401b1916600160401b1785555b6000620012c0620015af565b9050620012cf600033620015e2565b5080546001600160a01b03808b166001600160a01b03199283161783556001830180548b8316908416179055600783018054918a16919092161790556200131562001a65565b5083156200135d57845460ff60401b19168555604051600181527fc7f505b2f371ae2175ee4913f4499e1f2633a7b5936321eed1cdaeb6115181d29060200160405180910390a15b5050505050505050565b60008181526000805160206200279b8339815191526020819052604082206200076c9062001ac9565b6200139b8262000773565b620013a681620015d3565b620007b883836200162d565b6000806000805160206200277b83398151915280546040516371d4ed8d60e11b81526001600160a01b03868116600483015292935091169063e3a9db1a90602401602060405180830381865afa15801562001411573d6000803e3d6000fd5b505050506040513d601f19601f820116820180604052508101906200076c919062002208565b600062001443620015af565b9050348160030160008282546200145b9190620020c1565b909155505050565b6200146d620015af565b600701546001600160a01b0316336001600160a01b031614620014a45760405162461bcd60e51b8152600401620006e7906200207d565b6000620014b0620015af565b60060180546001600160a01b0319166001600160a01b03939093169290921790915550565b6040805160a0810182526000808252602082018190529181018290526060810182905260808101919091526200150a620015af565b60009283526002016020908152604092839020835160a08101855281546001600160801b038082168352600160801b918290048116948301949094526001909201549283169481019490945264ffffffffff90820481166060850152600160a81b9091041660808301525090565b60006001600160e01b03198216637965db0b60e01b1480620006a057506301ffc9a760e01b6001600160e01b0319831614620006a0565b7f5c8dfb41bf775ed78439bdc545dd2d846bd8da274c69de26cd754e645898d80090565b620015df813362001ad4565b50565b60006000805160206200279b8339815191528162001601858562001b15565b9050801562000e1a57600085815260208390526040902062001624908562001bc8565b50949350505050565b60006000805160206200279b833981519152816200164c858562001bdf565b9050801562000e1a57600085815260208390526040902062001624908562001c60565b80471015620016945760405163cd78605960e01b8152306004820152602401620006e7565b6000826001600160a01b03168260405160006040518083038185875af1925050503d8060008114620016e3576040519150601f19603f3d011682016040523d82523d6000602084013e620016e8565b606091505b5050905080620008de57604051630a12f52160e11b815260040160405180910390fd5b6001600160801b03821115620017565760405162461bcd60e51b815260206004820152600f60248201526e526577617264206f766572666c6f7760881b6044820152606401620006e7565b6001830154600160801b900464ffffffffff1615620017b85760405162461bcd60e51b815260206004820181905260248201527f526577617264206974656d20686173206265656e20696e697469616c697a65646044820152606401620006e7565b825482908490600090620017d79084906001600160801b031662002222565b92506101000a8154816001600160801b0302191690836001600160801b031602179055508015620008de575050600101805469ffffffffffffffffffff60801b1916600160801b4264ffffffffff1690810264ffffffffff60a81b191691909117600160a81b91909102179055565b60006200076c838362001c77565b600080620018628362000706565b905080158015906200076c5750421192915050565b6000620006a0827f000000000000000000000000000000000000000000000000000000000000000062001ca4565b8082600001818151620018b9919062002245565b6001600160801b0316905250602082018051829190620018db90839062002222565b6001600160801b03169052505064ffffffffff4216608090910152565b6000816060015164ffffffffff166000036200191657506000919050565b6000600283602001516200192b919062002268565b9050808360200181815162001941919062002245565b6001600160801b03169052506040830180518291906200196390839062002222565b6001600160801b03908116909152919091169392505050565b6000826060015164ffffffffff16600014158015620019d25750427f0000000000000000000000000000000000000000000000000000000000000000846060015164ffffffffff16620019d09190620020c1565b115b15620019ea57620019e262000d8d565b90506200076c565b5060009392505050565b60006000805160206200277b833981519152805460405163f340fa0160e01b81526001600160a01b03868116600483015292935091169063f340fa019084906024016000604051808303818588803b15801562001a5057600080fd5b505af11580156200135d573d6000803e3d6000fd5b62001a6f62001d79565b6040516000805160206200277b8339815191529062001a8e9062001f10565b604051809103906000f08015801562001aab573d6000803e3d6000fd5b5081546001600160a01b0319166001600160a01b0391909116179055565b6000620006a0825490565b62001ae0828262000e22565b62001b115760405163e2517d3f60e01b81526001600160a01b038216600482015260248101839052604401620006e7565b5050565b6000600080516020620027bb83398151915262001b33848462000e22565b62001bb6576000848152602082815260408083206001600160a01b03871684529091529020805460ff1916600117905562001b6b3390565b6001600160a01b0316836001600160a01b0316857f2f8788117e7eff1d82e926ec794901d17c78024a50270940304540a733656f0d60405160405180910390a46001915050620006a0565b6000915050620006a0565b5092915050565b60006200076c836001600160a01b03841662001dc5565b6000600080516020620027bb83398151915262001bfd848462000e22565b1562001bb6576000848152602082815260408083206001600160a01b0387168085529252808320805460ff1916905551339287917ff6391f5c32d9c69d2a47ea670b442974b53935d1edc7fd64eb21e047a839171b9190a46001915050620006a0565b60006200076c836001600160a01b03841662001e17565b600082600001828154811062001c915762001c9162002285565b9060005260206000200154905092915050565b6000826060015164ffffffffff1660000362001cc357506000620006a0565b60008360400151846020015162001cdb919062002222565b6001600160801b0316905060008185600001516001600160801b031662001d039190620020c1565b90506000856060015164ffffffffff164262001d2091906200211e565b905060008562001d318385620020d7565b62001d3d919062002107565b90508281111562001d4b5750815b8381101562001d62576000945050505050620006a0565b62001d6e84826200211e565b979650505050505050565b7ff0c57e16840df040f15088dc2f81fe391c3923bec73e23a9662efc9c229c6a0054600160401b900460ff1662001dc357604051631afcd79f60e31b815260040160405180910390fd5b565b600081815260018301602052604081205462001e0e57508154600181810184556000848152602080822090930184905584548482528286019093526040902091909155620006a0565b506000620006a0565b6000818152600183016020526040812054801562001bb657600062001e3e6001836200211e565b855490915060009062001e54906001906200211e565b905080821462001ec057600086600001828154811062001e785762001e7862002285565b906000526020600020015490508087600001848154811062001e9e5762001e9e62002285565b6000918252602080832090910192909255918252600188019052604090208390555b855486908062001ed45762001ed46200229b565b600190038181906000526020600020016000905590558560010160008681526020019081526020016000206000905560019350505050620006a0565b6104c980620022b283390190565b60006020828403121562001f3157600080fd5b81356001600160e01b0319811681146200076c57600080fd5b60006020828403121562001f5d57600080fd5b5035919050565b6001600160a01b0381168114620015df57600080fd5b6000806040838503121562001f8e57600080fd5b82359150602083013562001fa28162001f64565b809150509250929050565b60006020828403121562001fc057600080fd5b81356200076c8162001f64565b6000806040838503121562001fe157600080fd5b50508035926020909101359150565b6000806000606084860312156200200657600080fd5b8335925060208401356200201a8162001f64565b929592945050506040919091013590565b6000806000606084860312156200204157600080fd5b83356200204e8162001f64565b92506020840135620020608162001f64565b91506040840135620020728162001f64565b809150509250925092565b6020808252601490820152732737ba103337bab73230ba34b7b71030b236b4b760611b604082015260600190565b634e487b7160e01b600052601160045260246000fd5b80820180821115620006a057620006a0620020ab565b8082028115828204841417620006a057620006a0620020ab565b634e487b7160e01b600052601260045260246000fd5b600082620021195762002119620020f1565b500490565b81810381811115620006a057620006a0620020ab565b600082620021465762002146620020f1565b500690565b600060018201620021605762002160620020ab565b5060010190565b67ffffffffffffffff8181168382160280821691908281146200218e576200218e620020ab565b505092915050565b67ffffffffffffffff82811682821603908082111562001bc15762001bc1620020ab565b600067ffffffffffffffff80841680620021d857620021d8620020f1565b92169190910492915050565b67ffffffffffffffff81811683821601908082111562001bc15762001bc1620020ab565b6000602082840312156200221b57600080fd5b5051919050565b6001600160801b0381811683821601908082111562001bc15762001bc1620020ab565b6001600160801b0382811682821603908082111562001bc15762001bc1620020ab565b60006001600160801b0380841680620021d857620021d8620020f1565b634e487b7160e01b600052603260045260246000fd5b634e487b7160e01b600052603160045260246000fdfe608060405234801561001057600080fd5b50338061003757604051631e4fbdf760e01b81526000600482015260240160405180910390fd5b61004081610046565b50610096565b600080546001600160a01b038381166001600160a01b0319831681178455604051919092169283917f8be0079c531659141344cd1fd0a4f28419497f9722a3daafe3b4186f6b6457e09190a35050565b610424806100a56000396000f3fe6080604052600436106100555760003560e01c806351cff8d91461005a578063715018a61461007c5780638da5cb5b14610091578063e3a9db1a146100be578063f2fde38b14610102578063f340fa0114610122575b600080fd5b34801561006657600080fd5b5061007a6100753660046103a3565b610135565b005b34801561008857600080fd5b5061007a6101ac565b34801561009d57600080fd5b506000546040516001600160a01b0390911681526020015b60405180910390f35b3480156100ca57600080fd5b506100f46100d93660046103a3565b6001600160a01b031660009081526001602052604090205490565b6040519081526020016100b5565b34801561010e57600080fd5b5061007a61011d3660046103a3565b6101c0565b61007a6101303660046103a3565b610203565b61013d610275565b6001600160a01b038116600081815260016020526040812080549190559061016590826102a2565b816001600160a01b03167f7084f5476618d8e60b11ef0d7d3f06914655adb8793e28ff7f018d4c76d505d5826040516101a091815260200190565b60405180910390a25050565b6101b4610275565b6101be600061033e565b565b6101c8610275565b6001600160a01b0381166101f757604051631e4fbdf760e01b8152600060048201526024015b60405180910390fd5b6102008161033e565b50565b61020b610275565b6001600160a01b0381166000908152600160205260408120805434928392916102359084906103c7565b90915550506040518181526001600160a01b038316907f2da466a7b24304f47e87fa2e1e5a81b9831ce54fec19055ce277ca2f39ba42c4906020016101a0565b6000546001600160a01b031633146101be5760405163118cdaa760e01b81523360048201526024016101ee565b804710156102c55760405163cd78605960e01b81523060048201526024016101ee565b6000826001600160a01b03168260405160006040518083038185875af1925050503d8060008114610312576040519150601f19603f3d011682016040523d82523d6000602084013e610317565b606091505b505090508061033957604051630a12f52160e11b815260040160405180910390fd5b505050565b600080546001600160a01b038381166001600160a01b0319831681178455604051919092169283917f8be0079c531659141344cd1fd0a4f28419497f9722a3daafe3b4186f6b6457e09190a35050565b6001600160a01b038116811461020057600080fd5b6000602082840312156103b557600080fd5b81356103c08161038e565b9392505050565b808201808211156103e857634e487b7160e01b600052601160045260246000fd5b9291505056fea2646970667358221220917731ad085b8079c41950f8191dd8ea661a4483c90bc8e214e864c003bf6d5e64736f6c6343000814003318886ccf3cb33ec4f8e31fd4f09d61266d4695ceab87fb3d39636905b707c100c1f6fe24621ce81ec5827caf0253cadb74709b061630e6b55e8237170593200002dd7bc7dec4dceedda775e58dd541e08a116c6c53815c0bd028192f7b626800a264697066735822122084b2cec1d0b972b978f33a46aa41e10db5e04eca31377e20a4bac085c16a9d9564736f6c63430008140033",
  "linkReferences": {},
  "deployedLinkReferences": {}
}