{
  "_format": "hh-sol-artifact-1",
  "contractName": "Flow",
  "sourceName": "contracts/dataFlow/Flow.sol",
  "abi": [
    {
      "inputs": [
        {
          "internalType": "uint256",
          "name": "deployDelay_",
          "type": "uint256"
        }
      ],
      "stateMutability": "nonpayable",
      "type": "constructor"
    },
    {
      "inputs": [],
      "name": "AccessControlBadConfirmation",
      "type": "error"
    },
    {
      "inputs": [
        {
          "internalType": "address",
          "name": "account",
          "type": "address"
        },
        {
          "internalType": "bytes32",
          "name": "neededRole",
          "type": "bytes32"
        }
      ],
      "name": "AccessControlUnauthorizedAccount",
      "type": "error"
    },
    {
      "inputs": [],
      "name": "EnforcedPause",
      "type": "error"
    },
    {
      "inputs": [],
      "name": "ExpectedPause",
      "type": "error"
    },
    {
      "inputs": [],
      "name": "InvalidInitialization",
      "type": "error"
    },
    {
      "inputs": [],
      "name": "InvalidSubmission",
      "type": "error"
    },
    {
      "inputs": [],
      "name": "NotInitializing",
      "type": "error"
    },
    {
      "anonymous": false,
      "inputs": [
        {
          "indexed": false,
          "internalType": "uint64",
          "name": "version",
          "type": "uint64"
        }
      ],
      "name": "Initialized",
      "type": "event"
    },
    {
      "anonymous": false,
      "inputs": [
        {
          "indexed": true,
          "internalType": "address",
          "name": "sender",
          "type": "address"
        },
        {
          "indexed": true,
          "internalType": "uint256",
          "name": "index",
          "type": "uint256"
        },
        {
          "indexed": false,
          "internalType": "bytes32",
          "name": "startMerkleRoot",
          "type": "bytes32"
        },
        {
          "indexed": false,
          "internalType": "uint256",
          "name": "submissionIndex",
          "type": "uint256"
        },
        {
          "indexed": false,
          "internalType": "uint256",
          "name": "flowLength",
          "type": "uint256"
        },
        {
          "indexed": false,
          "internalType": "bytes32",
          "name": "context",
          "type": "bytes32"
        }
      ],
      "name": "NewEpoch",
      "type": "event"
    },
    {
      "anonymous": false,
      "inputs": [
        {
          "indexed": false,
          "internalType": "address",
          "name": "account",
          "type": "address"
        }
      ],
      "name": "Paused",
      "type": "event"
    },
    {
      "anonymous": false,
      "inputs": [
        {
          "indexed": true,
          "internalType": "bytes32",
          "name": "role",
          "type": "bytes32"
        },
        {
          "indexed": true,
          "internalType": "bytes32",
          "name": "previousAdminRole",
          "type": "bytes32"
        },
        {
          "indexed": true,
          "internalType": "bytes32",
          "name": "newAdminRole",
          "type": "bytes32"
        }
      ],
      "name": "RoleAdminChanged",
      "type": "event"
    },
    {
      "anonymous": false,
      "inputs": [
        {
          "indexed": true,
          "internalType": "bytes32",
          "name": "role",
          "type": "bytes32"
        },
        {
          "indexed": true,
          "internalType": "address",
          "name": "account",
          "type": "address"
        },
        {
          "indexed": true,
          "internalType": "address",
          "name": "sender",
          "type": "address"
        }
      ],
      "name": "RoleGranted",
      "type": "event"
    },
    {
      "anonymous": false,
      "inputs": [
        {
          "indexed": true,
          "internalType": "bytes32",
          "name": "role",
          "type": "bytes32"
        },
        {
          "indexed": true,
          "internalType": "address",
          "name": "account",
          "type": "address"
        },
        {
          "indexed": true,
          "internalType": "address",
          "name": "sender",
          "type": "address"
        }
      ],
      "name": "RoleRevoked",
      "type": "event"
    },
    {
      "anonymous": false,
      "inputs": [
        {
          "indexed": true,
          "internalType": "address",
          "name": "sender",
          "type": "address"
        },
        {
          "indexed": true,
          "internalType": "bytes32",
          "name": "identity",
          "type": "bytes32"
        },
        {
          "indexed": false,
          "internalType": "uint256",
          "name": "submissionIndex",
          "type": "uint256"
        },
        {
          "indexed": false,
          "internalType": "uint256",
          "name": "startPos",
          "type": "uint256"
        },
        {
          "indexed": false,
          "internalType": "uint256",
          "name": "length",
          "type": "uint256"
        },
        {
          "components": [
            {
              "internalType": "uint256",
              "name": "length",
              "type": "uint256"
            },
            {
              "internalType": "bytes",
              "name": "tags",
              "type": "bytes"
            },
            {
              "components": [
                {
                  "internalType": "bytes32",
                  "name": "root",
                  "type": "bytes32"
                },
                {
                  "internalType": "uint256",
                  "name": "height",
                  "type": "uint256"
                }
              ],
              "internalType": "struct SubmissionNode[]",
              "name": "nodes",
              "type": "tuple[]"
            }
          ],
          "indexed": false,
          "internalType": "struct SubmissionData",
          "name": "submission",
          "type": "tuple"
        }
      ],
      "name": "Submit",
      "type": "event"
    },
    {
      "anonymous": false,
      "inputs": [
        {
          "indexed": false,
          "internalType": "address",
          "name": "account",
          "type": "address"
        }
      ],
      "name": "Unpaused",
      "type": "event"
    },
    {
      "inputs": [],
      "name": "DEFAULT_ADMIN_ROLE",
      "outputs": [
        {
          "internalType": "bytes32",
          "name": "",
          "type": "bytes32"
        }
      ],
      "stateMutability": "view",
      "type": "function"
    },
    {
      "inputs": [],
      "name": "PAUSER_ROLE",
      "outputs": [
        {
          "internalType": "bytes32",
          "name": "",
          "type": "bytes32"
        }
      ],
      "stateMutability": "view",
      "type": "function"
    },
    {
      "inputs": [
        {
          "components": [
            {
              "components": [
                {
                  "internalType": "uint256",
                  "name": "length",
                  "type": "uint256"
                },
                {
                  "internalType": "bytes",
                  "name": "tags",
                  "type": "bytes"
                },
                {
                  "components": [
                    {
                      "internalType": "bytes32",
                      "name": "root",
                      "type": "bytes32"
                    },
                    {
                      "internalType": "uint256",
                      "name": "height",
                      "type": "uint256"
                    }
                  ],
                  "internalType": "struct SubmissionNode[]",
                  "name": "nodes",
                  "type": "tuple[]"
                }
              ],
              "internalType": "struct SubmissionData",
              "name": "data",
              "type": "tuple"
            },
            {
              "internalType": "address",
              "name": "submitter",
              "type": "address"
            }
          ],
          "internalType": "struct Submission[]",
          "name": "submissions",
          "type": "tuple[]"
        }
      ],
      "name": "batchSubmit",
      "outputs": [
        {
          "internalType": "uint256[]",
          "name": "indexes",
          "type": "uint256[]"
        },
        {
          "internalType": "bytes32[]",
          "name": "digests",
          "type": "bytes32[]"
        },
        {
          "internalType": "uint256[]",
          "name": "startIndexes",
          "type": "uint256[]"
        },
        {
          "internalType": "uint256[]",
          "name": "lengths",
          "type": "uint256[]"
        }
      ],
      "stateMutability": "payable",
      "type": "function"
    },
    {
      "inputs": [],
      "name": "blocksPerEpoch",
      "outputs": [
        {
          "internalType": "uint256",
          "name": "",
          "type": "uint256"
        }
      ],
      "stateMutability": "view",
      "type": "function"
    },
    {
      "inputs": [],
      "name": "computeFlowRoot",
      "outputs": [
        {
          "internalType": "bytes32",
          "name": "",
          "type": "bytes32"
        }
      ],
      "stateMutability": "nonpayable",
      "type": "function"
    },
    {
      "inputs": [],
      "name": "deployDelay",
      "outputs": [
        {
          "internalType": "uint256",
          "name": "",
          "type": "uint256"
        }
      ],
      "stateMutability": "view",
      "type": "function"
    },
    {
      "inputs": [],
      "name": "epoch",
      "outputs": [
        {
          "internalType": "uint256",
          "name": "",
          "type": "uint256"
        }
      ],
      "stateMutability": "view",
      "type": "function"
    },
    {
      "inputs": [],
      "name": "epochStartPosition",
      "outputs": [
        {
          "internalType": "uint256",
          "name": "",
          "type": "uint256"
        }
      ],
      "stateMutability": "view",
      "type": "function"
    },
    {
      "inputs": [],
      "name": "firstBlock",
      "outputs": [
        {
          "internalType": "uint256",
          "name": "",
          "type": "uint256"
        }
      ],
      "stateMutability": "view",
      "type": "function"
    },
    {
      "inputs": [],
      "name": "getContext",
      "outputs": [
        {
          "components": [
            {
              "internalType": "uint256",
              "name": "epoch",
              "type": "uint256"
            },
            {
              "internalType": "uint256",
              "name": "mineStart",
              "type": "uint256"
            },
            {
              "internalType": "bytes32",
              "name": "flowRoot",
              "type": "bytes32"
            },
            {
              "internalType": "uint256",
              "name": "flowLength",
              "type": "uint256"
            },
            {
              "internalType": "bytes32",
              "name": "blockDigest",
              "type": "bytes32"
            },
            {
              "internalType": "bytes32",
              "name": "digest",
              "type": "bytes32"
            }
          ],
          "internalType": "struct MineContext",
          "name": "",
          "type": "tuple"
        }
      ],
      "stateMutability": "view",
      "type": "function"
    },
    {
      "inputs": [
        {
          "internalType": "bytes32",
          "name": "digest",
          "type": "bytes32"
        }
      ],
      "name": "getEpochRange",
      "outputs": [
        {
          "components": [
            {
              "internalType": "uint128",
              "name": "start",
              "type": "uint128"
            },
            {
              "internalType": "uint128",
              "name": "end",
              "type": "uint128"
            }
          ],
          "internalType": "struct EpochRange",
          "name": "",
          "type": "tuple"
        }
      ],
      "stateMutability": "view",
      "type": "function"
    },
    {
      "inputs": [
        {
          "internalType": "uint256",
          "name": "index",
          "type": "uint256"
        }
      ],
      "name": "getEpochRangeHistory",
      "outputs": [
        {
          "components": [
            {
              "internalType": "uint128",
              "name": "start",
              "type": "uint128"
            },
            {
              "internalType": "uint128",
              "name": "end",
              "type": "uint128"
            },
            {
              "internalType": "bytes32",
              "name": "digest",
              "type": "bytes32"
            }
          ],
          "internalType": "struct EpochRangeWithContextDigest",
          "name": "",
          "type": "tuple"
        }
      ],
      "stateMutability": "view",
      "type": "function"
    },
    {
      "inputs": [
        {
          "internalType": "uint256",
          "name": "txSeq",
          "type": "uint256"
        }
      ],
      "name": "getFlowRootByTxSeq",
      "outputs": [
        {
          "internalType": "bytes32",
          "name": "",
          "type": "bytes32"
        }
      ],
      "stateMutability": "view",
      "type": "function"
    },
    {
      "inputs": [
        {
          "internalType": "bytes32",
          "name": "role",
          "type": "bytes32"
        }
      ],
      "name": "getRoleAdmin",
      "outputs": [
        {
          "internalType": "bytes32",
          "name": "",
          "type": "bytes32"
        }
      ],
      "stateMutability": "view",
      "type": "function"
    },
    {
      "inputs": [
        {
          "internalType": "bytes32",
          "name": "role",
          "type": "bytes32"
        },
        {
          "internalType": "uint256",
          "name": "index",
          "type": "uint256"
        }
      ],
      "name": "getRoleMember",
      "outputs": [
        {
          "internalType": "address",
          "name": "",
          "type": "address"
        }
      ],
      "stateMutability": "view",
      "type": "function"
    },
    {
      "inputs": [
        {
          "internalType": "bytes32",
          "name": "role",
          "type": "bytes32"
        }
      ],
      "name": "getRoleMemberCount",
      "outputs": [
        {
          "internalType": "uint256",
          "name": "",
          "type": "uint256"
        }
      ],
      "stateMutability": "view",
      "type": "function"
    },
    {
      "inputs": [
        {
          "internalType": "bytes32",
          "name": "role",
          "type": "bytes32"
        },
        {
          "internalType": "address",
          "name": "account",
          "type": "address"
        }
      ],
      "name": "grantRole",
      "outputs": [],
      "stateMutability": "nonpayable",
      "type": "function"
    },
    {
      "inputs": [
        {
          "internalType": "bytes32",
          "name": "role",
          "type": "bytes32"
        },
        {
          "internalType": "address",
          "name": "account",
          "type": "address"
        }
      ],
      "name": "hasRole",
      "outputs": [
        {
          "internalType": "bool",
          "name": "",
          "type": "bool"
        }
      ],
      "stateMutability": "view",
      "type": "function"
    },
    {
      "inputs": [
        {
          "internalType": "address",
          "name": "market_",
          "type": "address"
        },
        {
          "internalType": "uint256",
          "name": "blocksPerEpoch_",
          "type": "uint256"
        }
      ],
      "name": "initialize",
      "outputs": [],
      "stateMutability": "nonpayable",
      "type": "function"
    },
    {
      "inputs": [],
      "name": "makeContext",
      "outputs": [],
      "stateMutability": "nonpayable",
      "type": "function"
    },
    {
      "inputs": [
        {
          "internalType": "uint256",
          "name": "cnt",
          "type": "uint256"
        }
      ],
      "name": "makeContextFixedTimes",
      "outputs": [],
      "stateMutability": "nonpayable",
      "type": "function"
    },
    {
      "inputs": [],
      "name": "makeContextWithResult",
      "outputs": [
        {
          "components": [
            {
              "internalType": "uint256",
              "name": "epoch",
              "type": "uint256"
            },
            {
              "internalType": "uint256",
              "name": "mineStart",
              "type": "uint256"
            },
            {
              "internalType": "bytes32",
              "name": "flowRoot",
              "type": "bytes32"
            },
            {
              "internalType": "uint256",
              "name": "flowLength",
              "type": "uint256"
            },
            {
              "internalType": "bytes32",
              "name": "blockDigest",
              "type": "bytes32"
            },
            {
              "internalType": "bytes32",
              "name": "digest",
              "type": "bytes32"
            }
          ],
          "internalType": "struct MineContext",
          "name": "",
          "type": "tuple"
        }
      ],
      "stateMutability": "nonpayable",
      "type": "function"
    },
    {
      "inputs": [],
      "name": "market",
      "outputs": [
        {
          "internalType": "address payable",
          "name": "",
          "type": "address"
        }
      ],
      "stateMutability": "view",
      "type": "function"
    },
    {
      "inputs": [],
      "name": "numSubmissions",
      "outputs": [
        {
          "internalType": "uint256",
          "name": "",
          "type": "uint256"
        }
      ],
      "stateMutability": "view",
      "type": "function"
    },
    {
      "inputs": [],
      "name": "pause",
      "outputs": [],
      "stateMutability": "nonpayable",
      "type": "function"
    },
    {
      "inputs": [],
      "name": "paused",
      "outputs": [
        {
          "internalType": "bool",
          "name": "",
          "type": "bool"
        }
      ],
      "stateMutability": "view",
      "type": "function"
    },
    {
      "inputs": [
        {
          "internalType": "uint128",
          "name": "targetPosition",
          "type": "uint128"
        }
      ],
      "name": "queryContextAtPosition",
      "outputs": [
        {
          "components": [
            {
              "internalType": "uint128",
              "name": "start",
              "type": "uint128"
            },
            {
              "internalType": "uint128",
              "name": "end",
              "type": "uint128"
            },
            {
              "internalType": "bytes32",
              "name": "digest",
              "type": "bytes32"
            }
          ],
          "internalType": "struct EpochRangeWithContextDigest",
          "name": "range",
          "type": "tuple"
        }
      ],
      "stateMutability": "nonpayable",
      "type": "function"
    },
    {
      "inputs": [
        {
          "internalType": "bytes32",
          "name": "role",
          "type": "bytes32"
        },
        {
          "internalType": "address",
          "name": "callerConfirmation",
          "type": "address"
        }
      ],
      "name": "renounceRole",
      "outputs": [],
      "stateMutability": "nonpayable",
      "type": "function"
    },
    {
      "inputs": [
        {
          "internalType": "bytes32",
          "name": "role",
          "type": "bytes32"
        },
        {
          "internalType": "address",
          "name": "account",
          "type": "address"
        }
      ],
      "name": "revokeRole",
      "outputs": [],
      "stateMutability": "nonpayable",
      "type": "function"
    },
    {
      "inputs": [],
      "name": "rootHistory",
      "outputs": [
        {
          "internalType": "contract IDigestHistory",
          "name": "",
          "type": "address"
        }
      ],
      "stateMutability": "view",
      "type": "function"
    },
    {
      "inputs": [
        {
          "internalType": "uint256",
          "name": "blocksPerEpoch_",
          "type": "uint256"
        },
        {
          "internalType": "uint256",
          "name": "firstBlock_",
          "type": "uint256"
        },
        {
          "internalType": "address",
          "name": "rootHistory_",
          "type": "address"
        }
      ],
      "name": "setParams",
      "outputs": [],
      "stateMutability": "nonpayable",
      "type": "function"
    },
    {
      "inputs": [],
      "name": "submissionIndex",
      "outputs": [
        {
          "internalType": "uint256",
          "name": "",
          "type": "uint256"
        }
      ],
      "stateMutability": "view",
      "type": "function"
    },
    {
      "inputs": [
        {
          "components": [
            {
              "components": [
                {
                  "internalType": "uint256",
                  "name": "length",
                  "type": "uint256"
                },
                {
                  "internalType": "bytes",
                  "name": "tags",
                  "type": "bytes"
                },
                {
                  "components": [
                    {
                      "internalType": "bytes32",
                      "name": "root",
                      "type": "bytes32"
                    },
                    {
                      "internalType": "uint256",
                      "name": "height",
                      "type": "uint256"
                    }
                  ],
                  "internalType": "struct SubmissionNode[]",
                  "name": "nodes",
                  "type": "tuple[]"
                }
              ],
              "internalType": "struct SubmissionData",
              "name": "data",
              "type": "tuple"
            },
            {
              "internalType": "address",
              "name": "submitter",
              "type": "address"
            }
          ],
          "internalType": "struct Submission",
          "name": "submission",
          "type": "tuple"
        }
      ],
      "name": "submit",
      "outputs": [
        {
          "internalType": "uint256",
          "name": "index",
          "type": "uint256"
        },
        {
          "internalType": "bytes32",
          "name": "digest",
          "type": "bytes32"
        },
        {
          "internalType": "uint256",
          "name": "startIndex",
          "type": "uint256"
        },
        {
          "internalType": "uint256",
          "name": "length",
          "type": "uint256"
        }
      ],
      "stateMutability": "payable",
      "type": "function"
    },
    {
      "inputs": [
        {
          "internalType": "bytes4",
          "name": "interfaceId",
          "type": "bytes4"
        }
      ],
      "name": "supportsInterface",
      "outputs": [
        {
          "internalType": "bool",
          "name": "",
          "type": "bool"
        }
      ],
      "stateMutability": "view",
      "type": "function"
    },
    {
      "inputs": [],
      "name": "tree",
      "outputs": [
        {
          "internalType": "uint256",
          "name": "currentLength",
          "type": "uint256"
        },
        {
          "internalType": "uint256",
          "name": "unstagedHeight",
          "type": "uint256"
        }
      ],
      "stateMutability": "view",
      "type": "function"
    },
    {
      "inputs": [],
      "name": "unpause",
      "outputs": [],
      "stateMutability": "nonpayable",
      "type": "function"
    }
  ],
  "bytecode": "0x60a06040523480156200001157600080fd5b506040516200478d3803806200478d83398101604081905262000034916200003d565b60805262000057565b6000602082840312156200005057600080fd5b5051919050565b6080516147136200007a60003960008181610611015261136401526147136000f3fe6080604052600436106200023b5760003560e01c80638456cb59116200012f578063bc8c11f811620000ad578063d547741f1162000078578063d547741f1462000714578063e63ab1e91462000739578063ebdec6d3146200075e578063f06820541462000783578063fd54b228146200079b57600080fd5b8063bc8c11f8146200067a578063c7dd522114620006b2578063ca15c87314620006ca578063cd6dc68714620006ef57600080fd5b806393e405a011620000fa57806393e405a014620005e55780639bbbfdbb14620005fd578063a217fddf1462000633578063b464b53e146200064a578063b8a409ac146200066257600080fd5b80638456cb59146200056b578063900cf0cf14620005835780639010d07c146200059b57806391d1485414620005c057600080fd5b806338d45e1011620001bd5780635c975abb11620001885780635c975abb14620004885780636d7ad0fc14620004b057806377e1982414620004d55780637d59070814620004ed57806380f55605146200053a57600080fd5b806338d45e10146200040a5780633f4ba83a14620004225780634282b532146200043a57806349aa3395146200045f57600080fd5b8063231b0268116200020a578063231b0268146200032d578063248a9ca314620003455780632f2ff15d146200036a57806331bae174146200038f57806336568abe14620003e557600080fd5b806301ffc9a71462000240578063127f0f07146200027a57806318a641ef14620002df5780631deb0fca1462000306575b600080fd5b3480156200024d57600080fd5b50620002656200025f36600462003872565b620007c9565b60405190151581526020015b60405180910390f35b3480156200028757600080fd5b5062000292620007f7565b604051620002719190600060c082019050825182526020830151602083015260408301516040830152606083015160608301526080830151608083015260a083015160a083015292915050565b348015620002ec57600080fd5b5062000304620002fe3660046200389e565b6200087e565b005b3480156200031357600080fd5b506200031e620008f4565b60405190815260200162000271565b3480156200033a57600080fd5b506200031e62000925565b3480156200035257600080fd5b506200031e620003643660046200389e565b6200093a565b3480156200037757600080fd5b506200030462000389366004620038d0565b6200095d565b3480156200039c57600080fd5b50620003b4620003ae366004620038ff565b62000985565b6040805182516001600160801b03908116825260208085015190911690820152918101519082015260600162000271565b348015620003f257600080fd5b506200030462000404366004620038d0565b62000b4e565b3480156200041757600080fd5b506200030462000b84565b3480156200042f57600080fd5b506200030462000bcc565b3480156200044757600080fd5b50620003b4620004593660046200389e565b62000bf1565b620004766200047036600462003b9e565b62000c7e565b60405162000271949392919062003c97565b3480156200049557600080fd5b50600080516020620046be8339815191525460ff1662000265565b348015620004bd57600080fd5b506200031e620004cf3660046200389e565b62000ed0565b348015620004e257600080fd5b506200031e62000ef0565b348015620004fa57600080fd5b50620005126200050c3660046200389e565b62000f07565b6040805182516001600160801b03908116825260209384015116928101929092520162000271565b3480156200054757600080fd5b506200055262000f5f565b6040516001600160a01b03909116815260200162000271565b3480156200057857600080fd5b506200030462000f7a565b3480156200059057600080fd5b506200031e62000f9f565b348015620005a857600080fd5b5062000552620005ba36600462003d1e565b62000fb4565b348015620005cd57600080fd5b5062000265620005df366004620038d0565b62000fe6565b348015620005f257600080fd5b506200031e6200101f565b3480156200060a57600080fd5b506200031e7f000000000000000000000000000000000000000000000000000000000000000081565b3480156200064057600080fd5b506200031e600081565b3480156200065757600080fd5b506200029262001034565b3480156200066f57600080fd5b506200031e620010ad565b620006916200068b36600462003d41565b620010c2565b60408051948552602085019390935291830152606082015260800162000271565b348015620006bf57600080fd5b506200055262001244565b348015620006d757600080fd5b506200031e620006e93660046200389e565b62001262565b348015620006fc57600080fd5b50620003046200070e36600462003d79565b62001292565b3480156200072157600080fd5b506200030462000733366004620038d0565b62001415565b3480156200074657600080fd5b506200031e6000805160206200467e83398151915281565b3480156200076b57600080fd5b50620003046200077d36600462003da6565b62001437565b3480156200079057600080fd5b506200031e62001444565b348015620007a857600080fd5b50620007b362001459565b6040805192835260208301919091520162000271565b60006001600160e01b03198216635a05180f60e01b1480620007f15750620007f182620014f9565b92915050565b6040805160c081018252600080825260208201819052918101829052606081018290526080810182905260a08101919091526200083362001530565b6040805160c0810182526007830154815260088301546020820152600983015491810191909152600a8201546060820152600b8201546080820152600c9091015460a0820152919050565b60006200088a62001530565b90508060100154431015620008bc5760405162461bcd60e51b8152600401620008b39062003dde565b60405180910390fd5b60005b828111620008ee57620008d162001554565b620008db57505050565b620008e68162003e2b565b9050620008bf565b505b5050565b6000806200090162001530565b9050620009118160010162001909565b6200091f8160010162001a52565b91505090565b60006200093162001530565b60100154905090565b60009081526000805160206200469e833981519152602052604090206001015490565b62000968826200093a565b620009738162001a8f565b6200097f838362001a9b565b50505050565b6040805160608101825260008082526020820181905291810182905290620009ac62001530565b9050620009b862000b84565b60018101546001600160801b0384161062000a225760405162461bcd60e51b8152602060048201526024808201527f5175657269656420706f736974696f6e206578636565647320757070657220626044820152631bdd5b9960e21b6064820152608401620008b3565b600e8101546000905b8181111562000b05576000600262000a44848462003e47565b62000a50919062003e73565b905083600e01818154811062000a6a5762000a6a62003e8a565b600091825260209182902060408051606081018252600290930290910180546001600160801b038082168552600160801b90910481169484018590526001909101549183019190915290965087161062000ad35762000acb81600162003e47565b925062000afe565b84600001516001600160801b0316866001600160801b03161062000afa5750505050919050565b8091505b5062000a2b565b60405162461bcd60e51b815260206004820152601b60248201527f43616e206e6f742066696e642070726f70657220636f6e7465787400000000006044820152606401620008b3565b6001600160a01b038116331462000b785760405163334bd91960e11b815260040160405180910390fd5b620008ee828262001ae6565b600062000b9062001530565b9050806010015443101562000bb95760405162461bcd60e51b8152600401620008b39062003dde565b62000bc362001554565b62000bb9575b50565b6000805160206200467e83398151915262000be78162001a8f565b62000bc962001b28565b604080516060810182526000808252602082018190529181019190915262000c1862001530565b600e01828154811062000c2f5762000c2f62003e8a565b600091825260209182902060408051606081018252600290930290910180546001600160801b038082168552600160801b90910416938301939093526001909201549181019190915292915050565b60608060608062000c8e62001b8b565b600062000c9a62001530565b9050806010015443101562000cc35760405162461bcd60e51b8152600401620008b39062003dde565b8551806001600160401b0381111562000ce05762000ce06200392a565b60405190808252806020026020018201604052801562000d0a578160200160208202803683370190505b509550806001600160401b0381111562000d285762000d286200392a565b60405190808252806020026020018201604052801562000d52578160200160208202803683370190505b509450806001600160401b0381111562000d705762000d706200392a565b60405190808252806020026020018201604052801562000d9a578160200160208202803683370190505b509350806001600160401b0381111562000db85762000db86200392a565b60405190808252806020026020018201604052801562000de2578160200160208202803683370190505b50925060005b8181101562000ec65760008060008062000e1e8c868151811062000e105762000e1062003e8a565b6020026020010151620010c2565b9350935093509350838b868151811062000e3c5762000e3c62003e8a565b602002602001018181525050828a868151811062000e5e5762000e5e62003e8a565b6020026020010181815250508189868151811062000e805762000e8062003e8a565b6020026020010181815250508088868151811062000ea25762000ea262003e8a565b602002602001018181525050505050508062000ebe9062003e2b565b905062000de8565b5050509193509193565b600062000edc62001530565b6000928352600f0160205250604090205490565b60008062000efd62001530565b6004015492915050565b604080518082019091526000808252602082015262000f2562001530565b6000928352600d0160209081526040928390208351808501909452546001600160801b038082168552600160801b90910416908301525090565b600062000f6b62001530565b546001600160a01b0316919050565b6000805160206200467e83398151915262000f958162001a8f565b62000bc962001bc0565b600062000fab62001530565b60050154905090565b60008281526000805160206200465e83398151915260208190526040822062000fde908462001c0d565b949350505050565b60009182526000805160206200469e833981519152602090815260408084206001600160a01b0393909316845291905290205460ff1690565b60006200102b62001530565b60060154905090565b6040805160c081018252600080825260208201819052918101829052606081018290526080810182905260a08101829052906200107062001530565b90508060100154431015620010995760405162461bcd60e51b8152600401620008b39062003dde565b620010a362000b84565b6200091f620007f7565b6000620010b962001530565b60040154905090565b600080600080620010d262001b8b565b6000620010de62001530565b90508060100154431015620011075760405162461bcd60e51b8152600401620008b39062003dde565b60006200111362001530565b9050620011208762001c1b565b620011635760405162461bcd60e51b815260206004820152601260248201527124b73b30b634b21039bab136b4b9b9b4b7b760711b6044820152606401620008b3565b6200116e8762001e8e565b92506200117a62000b84565b620011858762001ef9565b9350620011928762002064565b60048201805497509095506001906000620011ae838a62003e47565b90915550620011c290506001820162001909565b620011d08160010162001a52565b81600f016000888152602001908152602001600020819055508487602001516001600160a01b03167f167ce04d2aa1981994d3a31695da0d785373335b1078cec239a1a3a2c76755558887878c6000015160405162001233949392919062003edd565b60405180910390a350509193509193565b60006200125062001530565b601101546001600160a01b0316919050565b60008181526000805160206200465e8339815191526020819052604082206200128b9062002157565b9392505050565b7ff0c57e16840df040f15088dc2f81fe391c3923bec73e23a9662efc9c229c6a008054600160401b810460ff1615906001600160401b0316600081158015620012d85750825b90506000826001600160401b03166001148015620012f55750303b155b90508115801562001304575080155b15620013235760405163f92ee8a960e01b815260040160405180910390fd5b845467ffffffffffffffff1916600117855583156200134e57845460ff60401b1916600160401b1785555b620013598762002162565b620013c5866200138a7f00000000000000000000000000000000000000000000000000000000000000004362003e47565b6103e86040516200139b9062003864565b908152602001604051809103906000f080158015620013be573d6000803e3d6000fd5b5062002277565b83156200140c57845460ff60401b19168555604051600181527fc7f505b2f371ae2175ee4913f4499e1f2633a7b5936321eed1cdaeb6115181d29060200160405180910390a15b50505050505050565b62001420826200093a565b6200142b8162001a8f565b6200097f838362001ae6565b620008ee83838362002277565b60006200145062001530565b60120154905090565b60008060006200146862001530565b600101604051806060016040529081600082015481526020016001820154815260200160028201805480602002602001604051908101604052809291908181526020018280548015620014db57602002820191906000526020600020905b815481526020019060010190808311620014c6575b50505050508152505090508060000151816020015192509250509091565b60006001600160e01b03198216637965db0b60e01b1480620007f157506301ffc9a760e01b6001600160e01b0319831614620007f1565b7f2c76cc46aac583da4777117fb4419fbb43af6051f6353fccbce7a36d394f550090565b60006200156062001b8b565b60006200156c62001530565b6012810154600582015460108301549293506001010201438110620015945760009250505090565b620015a28260010162001909565b6000620015b28360010162001a52565b6011840154604051632d287e4360e01b8152600481018390529192506001600160a01b031690632d287e43906024016020604051808303816000875af115801562001601573d6000803e3d6000fd5b505050506040513d601f19601f8201168201806040525081019062001627919062003f78565b50600080436200163a85611fff62003e47565b10156200166c57507fc5d2460186f7233c927e7db2dcc703c0e500b653ca82273b7bfad8045d85a47090508062001834565b620016778462002353565b6001860154604080516020810184905290810186905260608101919091529091506080016040516020818303038152906040528051906020012091506000856006015490506000866001016000015490506040518060400160405280836001600160801b03168152602001826001600160801b031681525087600d01600086815260200190815260200160002060008201518160000160006101000a8154816001600160801b0302191690836001600160801b0316021790555060208201518160000160106101000a8154816001600160801b0302191690836001600160801b0316021790555090505086600e016040518060600160405280846001600160801b03168152602001836001600160801b0316815260200186815250908060018154018082558091505060019003906000526020600020906002020160009091909190915060008201518160000160006101000a8154816001600160801b0302191690836001600160801b0316021790555060208201518160000160106101000a8154816001600160801b0302191690836001600160801b031602179055506040820151816001015550508660010160000154876006018190555050505b60018560050160008282546200184b919062003e47565b90915550506040805160c0810182526005870154808252602080830188905282840187905260018901546060808501829052608080860188905260a090950188905260078b0184905560088b018a905560098b01899055600a8b01829055600b8b01879055600c8b0188905560048b015486518a815293840152948201529283018590529133917fbc8a3fd82465d43f1709e44ed882f7e1af0147274196ef1ec009f5d52ff4e993910160405180910390a360019550505050505090565b60028101546001820154036200191c5750565b600281018054600180840154919260009290916200193a9162003f92565b815481106200194d576200194d62003e8a565b906000526020600020015490506000620019796001856001015462001973919062003f92565b62002385565b60018501549091505b8381101562001a4757604080516020808201869052818301859052825180830384018152606090920190925280519101208554620019c590600290841c62003fa8565b60000362001a0857809350620019db8262002385565b925080866002018381548110620019f657620019f662003e8a565b60009182526020909120015562001a31565b85600201828154811062001a205762001a2062003e8a565b906000526020600020015493508092505b508062001a3e8162003e2b565b91505062001982565b505050600190910155565b6002810180546000919062001a6a9060019062003f92565b8154811062001a7d5762001a7d62003e8a565b90600052602060002001549050919050565b62000bc9813362002fca565b60006000805160206200465e8339815191528162001aba858562003007565b9050801562000fde57600085815260208390526040902062001add9085620030b3565b50949350505050565b60006000805160206200465e8339815191528162001b058585620030ca565b9050801562000fde57600085815260208390526040902062001add90856200314b565b62001b3262003162565b600080516020620046be833981519152805460ff191681557f5db9ee0a495bf2e6ff9c91a7834c1ba4fdd244a5e8aa4e537bd38aeae4b073aa335b6040516001600160a01b03909116815260200160405180910390a150565b600080516020620046be8339815191525460ff161562001bbe5760405163d93c066560e01b815260040160405180910390fd5b565b62001bca62001b8b565b600080516020620046be833981519152805460ff191660011781557f62e78cea01bee320cd4e420270b5ea74000d11b0c9f74754ebdbfc544b05a2583362001b6d565b60006200128b838362003194565b60208101516000906001600160a01b031662001c3957506000919050565b815160408101515160000362001c525750600092915050565b604081015180516004919062001c6b9060019062003f92565b8151811062001c7e5762001c7e62003e8a565b602002602001015160200151826040015160008151811062001ca45762001ca462003e8a565b60200260200101516020015162001cbc919062003f92565b1062001ccb5750600092915050565b6040816040015160008151811062001ce75762001ce762003e8a565b6020026020010151602001511062001d025750600092915050565b60005b600182604001515162001d19919062003f92565b81101562001d9e578160400151818151811062001d3a5762001d3a62003e8a565b602002602001015160200151826040015182600162001d5a919062003e47565b8151811062001d6d5762001d6d62003e8a565b6020026020010151602001511062001d89575060009392505050565b8062001d958162003e2b565b91505062001d05565b50600062001dac8462001e8e565b905062001dbc6101008262003fbf565b8251111562001dcf575060009392505050565b6000601082101562001df05762001de860018362003f92565b905062001e62565b82604001515160010362001e0e5762001de8600483901c8362003f92565b6004836040015160008151811062001e2a5762001e2a62003e8a565b60200260200101516020015162001e42919062003f92565b62001e4f90600162003e47565b62001e5f906001901b8362003f92565b90505b62001e706101008262003fbf565b83511162001e8357506000949350505050565b506001949350505050565b805160009081805b82604001515181101562001ef1578260400151818151811062001ebd5762001ebd62003e8a565b6020026020010151602001516001901b8262001eda919062003e47565b91508062001ee88162003e2b565b91505062001e96565b509392505050565b60008062001f0662001530565b60018101805491925062001f1b9085620031c1565b835160005b81604001515181101562001fc45760008260400151828151811062001f495762001f4962003e8a565b602002602001015160000151905060008360400151838151811062001f725762001f7262003e8a565b6020026020010151602001519050600062001f9c8383896001016200331b9092919063ffffffff16565b90508360000362001fab578097505b505050808062001fbb9062003e2b565b91505062001f20565b50600062001fd3838662003f92565b9050600085856001016000015462001fec919062003f92565b8554604051636d3759b560e11b81526004810187905260248101839052604481018590529192506001600160a01b03169063da6eb36a90606401600060405180830381600087803b1580156200204157600080fd5b505af115801562002056573d6000803e3d6000fd5b505050505050505050919050565b80516040810151516000919082906001600160401b038111156200208c576200208c6200392a565b604051908082528060200260200182016040528015620020b6578160200160208202803683370190505b50905060005b826040015151811015620021245782604001518181518110620020e357620020e362003e8a565b60200260200101516000015182828151811062002104576200210462003e8a565b6020908102919091010152806200211b8162003e2b565b915050620020bc565b508060405160200162002138919062003fd9565b6040516020818303038152906040528051906020012092505050919050565b6000620007f1825490565b60006200216e62001530565b6001808201819055600382018054808301825560009182526020822001556002820155905080546001600160a01b0319166001600160a01b0383161781556000600582018190556040805160c081018252918252601083015460208301528101620021dc6001840162001a52565b815260016020808301919091527fc5d2460186f7233c927e7db2dcc703c0e500b653ca82273b7bfad8045d85a4706040808401829052606093840191909152835160078601559083015160088501558201516009840155810151600a8301556080810151600b83015560a00151600c8201556200225b60003362001a9b565b50620008ee6000805160206200467e8339815191523362001a9b565b60006200228362001530565b905080601201546000036200229a57601281018490555b8060100154600003620022af57601081018390555b60118101546001600160a01b03166200097f576001600160a01b0382166200232e576103e8604051620022e29062003864565b908152602001604051809103906000f08015801562002305573d6000803e3d6000fd5b506011820180546001600160a01b0319166001600160a01b03929092169190911790556200097f565b6011810180546001600160a01b0384166001600160a01b031990911617905550505050565b600043828103610100811180156200236d5750611fff8111155b6200237a57834062000fde565b62000fde84620034ba565b600081600003620023b757507fd397b3b043d87fcd6fad1291ff0bfd16401c274896d8c63a923727f077b8e0b5919050565b81600103620023e757507ff73e6947d7d1628b9976a6e40d7b278a8a16405e96324a68df45b12a51b7cfde919050565b816002036200241757507fa1520264ae93cac619e22e8718fc4fa7ebdd23f493cad602434d2a58ff4868fb919050565b816003036200244757507fde5747106ac1194a1fa9071dbd6cf19dc2bc7964497ef0afec7e4bdbcf08c47e919050565b816004036200247757507f09c7082879180d28c789c05fafe7030871c76cedbe82c948b165d6a1d66ac15b919050565b81600503620024a757507faa7a02bcf29fba687f84123c808b5b48834ff5395abe98e622fadc14e4180c95919050565b81600603620024d757507f7608fd46b710b589e0f2ee5a13cd9c41d432858a30d524f84c6d5db37f66273a919050565b816007036200250757507fa5d9a2f7f3573ac9a1366bc484688b4daf934b87ea9b3bf2e703da8fd9f09708919050565b816008036200253757507f6c1779477f4c3fca26b4607398859a43b90a286ce8062500744bd4949981757f919050565b816009036200256757507f45c22df3d952c33d5edce122eed85e5cda3fd61939e7ad7b3e03b6927bb598ea919050565b81600a036200259757507fe68d02859bb6211cec64f52368b77d422de3b8eac34bf615942b814b643301b5919050565b81600b03620025c757507f62d78399b954d51cb9728601738ad13ddc43b2300064660716bb661d2f4d686f919050565b81600c03620025f757507f6e250d9abdbbb3993fce08de0395cdb56f0483e67d8762a798de011f6a50866a919050565b81600d036200262757507f1d1a3a74062fd94078617e33eb901eaf16a830f67c387d8eed342db2ac5e2cc5919050565b81600e036200265757507f19b3b3886526917eae8650223d0be20a0301be960eb339696e673ad8a804440f919050565b81600f036200268757507fee9e05df53f10e62a897e5140a3f58732dd849e69cd1d62b21ed80ead711a014919050565b81601003620026b757507f2cc7aa6e611a113a34505dc1c96b220f14909b70e2c2c7b1a74655da21013c5e919050565b81601103620026e757507f949b52dfece7ca3bad3cb27f7750ecaee64cedb6243a275c35984e92956c530a919050565b816012036200271757507fb2680d060b763b932c150434c3812ba9fbc50937e0ebcf5758de884be81bab65919050565b816013036200274757507f523aebf4a085edbc9c8cdc99c83f46262e5f029b395ff7bf561a48a3f387e6b8919050565b816014036200277757507fc9ab73827ab33c0cedb7ecf0ed2e6e32583c0fe887133a7f381ea4ba84d95b76919050565b81601503620027a757507f23eb397dec7e564ebe97f160a5e1081a77d9861f316807079b6be4731beb331e919050565b81601603620027d757507fdfa44a274c60f090df034aaf75539fd40e94cfd6362dd53d26ed20c8ad529563919050565b816017036200280757507f15b13ee358e1044a53381243c094e54bf7aceb9b5325a0313d6b85fd44e8b3a5919050565b816018036200283757507f1a7a93871e2daa0f1860aa91d4ece4ccd012dac5fe581176a21b155cfeca6d40919050565b816019036200286757507fb12665fd0b884a7c7d1e0294d369170d7e672d9e125eb87784556305f98292df919050565b81601a036200289757507f2a5543b0b2f8cf550524390291774f4d6c8c0a25ff5393b09c44d75c92a5bd8e919050565b81601b03620028c757507ff9df1841a6e7164b67a1242f1c74975137085ffd9721831f6c469d3a4d5ba42e919050565b81601c03620028f757507fba24736b1b48246c1f7803be967be43ca0dddc9c2c0687a2957952249bc89371919050565b81601d036200292757507ff3f706b73790c73ca0a8f0460ac3a2a102e280415586b520e70cd5e8264388b4919050565b81601e036200295757507fc1f5a9a9f357e1c37814688cf7290c87a264ed3d6174a12b978da1c586f53825919050565b81601f036200298757507f766f7702e19ce23d426cdad03e4292a5a42c4669420101fed74400ec7cda3ac6919050565b81602003620029b757507f070fec213e105b3e4d9b0434ac2fc7ca721d35093dc741fb9419797003e2394a919050565b81602103620029e757507f9a7aade05b49e43f5fd3782571cc8c90eadacd5d660b53842b4e5b63d675ae0c919050565b8160220362002a1757507fb27b35a8236d0f9b6692820429c025ed58ed378dc98d316b762f0c865c68be6f919050565b8160230362002a4757507fdc567ad38d9b90cc9bea4e0f82ec05eca10b3aa94eddc7b63c4fd20c001bb53b919050565b8160240362002a7757507fb208dfc457c8b30661ae49544c8e57399818095aab8dd7a426fb8dd56bb8c559919050565b8160250362002aa757507fc4a72e1ff84f7a22631f3f95c61c392f98f52050360215a9d7e75d79b0bcd2ca919050565b8160260362002ad757507fbb093ec8c0d7defb1de668b5b5dd4f2619e5cd92d29cc144862364a83ab993a8919050565b8160270362002b0757507fe341796f2fe3975012c1e6badfa2e9c4523e43f911dc845082c3f4d7b4ff871d919050565b8160280362002b3757507f42d356a11a0b39243eca3c3263299cb6f8c3e9728af6d9d8b0ddb6d354f1890d919050565b8160290362002b6757507f0ce506e834e3a50a33f80074bc7fa16cf3c0712b36a41b69699177ea25de6c30919050565b81602a0362002b9757507fd8fa5bf130aeb7756b1ed09090cc80ed78dae0617978540f0fabd06dfb978938919050565b81602b0362002bc757507feed69a20fe36eb604f2153efa3b01c0e143cdf02229a1b8f741c9c2719059eb0919050565b81602c0362002bf757507f303c9c566ebf5bfe252796e5c131a99801226152a514688b5ca6883e99031d88919050565b81602d0362002c2757507fc7c3765ba96cfbccf3ae718393fa89791070cc8cd85f280b6ac46aea10d96042919050565b81602e0362002c5757507f1ca65b0a2b8034ee6bfb1fa4526832304e393af835c2c42b4dace58048746800919050565b81602f0362002c8757507f957add5e02350fd47de3a8e1da38fd774ceb31214d5897ed6315740a83cd634a919050565b8160300362002cb757507f787892cb439d5d358870774e163557cf02ec3cb87be6fde11abf1acee14eeaa4919050565b8160310362002ce757507f047c0962d4f5c8f60692c587de07739528c4d2059240d61dd34d2a547a438ee6919050565b8160320362002d1757507fc18727efc9e4df63020dcd90edc17dfd2ad14f02328c912b13898e0b53735556919050565b8160330362002d4757507fe38b9218987e451effe1648c3c9851ad03b64b052a5a3f5ca30f4d7b1ecf7120919050565b8160340362002d7757507f0e48ecb1a5418e6218289acc8cf723e67ac6eae3ecb80f644336ab4365a2f2b2919050565b8160350362002da757507fd60e66f5b8cd08d71a1a4d7798952a7afa5a6e93a886c587a46a5500ebef4a60919050565b8160360362002dd757507f5162aa9c31d9105f689cf6e71e19548bc9f0218b7d0f99ff7fa8bc2f19c68462919050565b8160370362002e0757507f6fa8519b4b0e8fb97a9b618e97627d97b9b9d29d04521fd96472e9c502700568919050565b8160380362002e3757507f41f5dcf0cdee270a2ad9a5f8130aaaab94b237463e09757c28b0321f09e24eb0919050565b8160390362002e6757507f87a119239fa90732197108adfd029938b4743874d959d3da79b3a30f4832899e919050565b81603a0362002e9757507f8e96dbaa5c72e84a5297b040ccc1a60750a3201166e3b7740d352837233608a1919050565b81603b0362002ec757507f01605058d167ce967af8c475d2f6c341c3e0b437babf899c9da73a520aa4ecb5919050565b81603c0362002ef757507f04529eb80532c5118949d700d8dfd2aa86850b1c6479b26276b9486784a145ff919050565b81603d0362002f2757507fd191814ad13f27361ae20a46cbac8f6e76c10ebe9af0806d6720492ee2f296f0919050565b81603e0362002f5757507fa28df63f78821060570da371c0be1312188346b92a7965cc4b980b26c134a4d7919050565b81603f0362002f8757507fb48a92d40b61dc995ceecee4cded6415050dcece448b1e0b5e5b6a0e6981f3ef919050565b60405162461bcd60e51b8152602060048201526012602482015271125b99195e081bdd5d081bd988189bdd5b9960721b6044820152606401620008b3565b919050565b62002fd6828262000fe6565b620008f05760405163e2517d3f60e01b81526001600160a01b038216600482015260248101839052604401620008b3565b60006000805160206200469e83398151915262003025848462000fe6565b620030a8576000848152602082815260408083206001600160a01b03871684529091529020805460ff191660011790556200305d3390565b6001600160a01b0316836001600160a01b0316857f2f8788117e7eff1d82e926ec794901d17c78024a50270940304540a733656f0d60405160405180910390a46001915050620007f1565b6000915050620007f1565b60006200128b836001600160a01b038416620034f0565b60006000805160206200469e833981519152620030e8848462000fe6565b15620030a8576000848152602082815260408083206001600160a01b0387168085529252808320805460ff1916905551339287917ff6391f5c32d9c69d2a47ea670b442974b53935d1edc7fd64eb21e047a839171b9190a46001915050620007f1565b60006200128b836001600160a01b03841662003542565b600080516020620046be8339815191525460ff1662001bbe57604051638dfc202b60e01b815260040160405180910390fd5b6000826000018281548110620031ae57620031ae62003e8a565b9060005260206000200154905092915050565b6000620031ce8262001e8e565b905060006200320b8460000154846000015160400151600081518110620031f957620031f962003e8a565b6020026020010151602001516200363b565b90506101006200321e6104008262003fbf565b6200322a919062003e73565b62003236908262003fa8565b15801590620032af5750610100620032516104008262003fbf565b6200325d919062003e73565b60016200326b848462003e47565b62003277919062003f92565b62003283919062003e73565b610100620032946104008262003fbf565b620032a0919062003e73565b620032ac908362003e73565b14155b156200097f57610100620032c66104008262003fbf565b620032d2919062003e73565b620032de908262003fa8565b610100620032ef6104008262003fbf565b620032fb919062003e73565b62003307908362003e47565b62003313919062003f92565b845550505050565b6000806200332e8560000154846200363b565b90506000620033416001851b8362003e47565b6002870154909150620033579060019062003f92565b6001901b811115620033b4576200336e8662001909565b620033798662003679565b60028601546200338c9060019062003f92565b6001901b811115620033a957620033a38662003679565b62003379565b600286015460018701555b6002860154620033c5878662003715565b60008087875b848110156200349a57620033e3600288831c62003fa8565b6000036200342857818b600201828154811062003404576200340462003e8a565b6000918252602090912001556200341d81600162003e47565b60018c01556200349a565b8a600201818154811062003440576200344062003e8a565b9060005260206000200154935081925083836040516020016200346d929190918252602082015260400190565b60405160208183030381529060405280519060200120915080620034918162003e2b565b915050620033cb565b50620034aa6001891b8762003e47565b9099555092979650505050505050565b600081600052602060006020600071f90827f1c53a10cb7a02335b1753200029355afa60003d11161562002fc557505060005190565b60008181526001830160205260408120546200353957508154600181810184556000848152602080822090930184905584548482528286019093526040902091909155620007f1565b506000620007f1565b60008181526001830160205260408120548015620030a85760006200356960018362003f92565b85549091506000906200357f9060019062003f92565b9050808214620035eb576000866000018281548110620035a357620035a362003e8a565b9060005260206000200154905080876000018481548110620035c957620035c962003e8a565b6000918252602080832090910192909255918252600188019052604090208390555b8554869080620035ff57620035ff62004011565b600190038181906000526020600020016000905590558560010160008681526020019081526020016000206000905560019350505050620007f1565b60008280820362003651576000915050620007f1565b6200365e60018262003f92565b831c90506200366f60018262003e47565b90921b9392505050565b600281018054906000906200369060018462003f92565b81548110620036a357620036a362003e8a565b60009182526020822001549150620036c16200197360018562003f92565b9050836002018282604051602001620036e4929190918252602082015260400190565b60408051601f1981840301815291905280516020918201208254600181018455600093845291909220015550505050565b808260010154111562003726575050565b60028201805460018085015491926000929091620037449162003f92565b8154811062003757576200375762003e8a565b9060005260206000200154905060006200377d6001866001015462001973919062003f92565b60018601549091505b838110156200385c57604080516020808201869052818301859052825180830384018152606090920190925280519101208654620037c990600290841c62003fa8565b6000036200381d57809350620037df8262002385565b925085821062003817578087600201838154811062003802576200380262003e8a565b60009182526020909120015550505050505050565b62003846565b86600201828154811062003835576200383562003e8a565b906000526020600020015493508092505b5080620038538162003e2b565b91505062003786565b505050505050565b610636806200402883390190565b6000602082840312156200388557600080fd5b81356001600160e01b0319811681146200128b57600080fd5b600060208284031215620038b157600080fd5b5035919050565b80356001600160a01b038116811462002fc557600080fd5b60008060408385031215620038e457600080fd5b82359150620038f660208401620038b8565b90509250929050565b6000602082840312156200391257600080fd5b81356001600160801b03811681146200128b57600080fd5b634e487b7160e01b600052604160045260246000fd5b604080519081016001600160401b03811182821017156200396557620039656200392a565b60405290565b604051606081016001600160401b03811182821017156200396557620039656200392a565b604051601f8201601f191681016001600160401b0381118282101715620039bb57620039bb6200392a565b604052919050565b60006001600160401b03821115620039df57620039df6200392a565b5060051b60200190565b600082601f830112620039fb57600080fd5b8135602062003a1462003a0e83620039c3565b62003990565b82815260069290921b8401810191818101908684111562003a3457600080fd5b8286015b8481101562003a78576040818903121562003a535760008081fd5b62003a5d62003940565b81358152848201358582015283529183019160400162003a38565b509695505050505050565b60006040828403121562003a9657600080fd5b62003aa062003940565b905081356001600160401b038082111562003aba57600080fd5b908301906060828603121562003acf57600080fd5b62003ad96200396b565b823581526020808401358381111562003af157600080fd5b8401601f8101881362003b0357600080fd5b80358481111562003b185762003b186200392a565b62003b2c601f8201601f1916840162003990565b818152898483850101111562003b4157600080fd5b81848401858301376000848383010152808486015250505060408401358381111562003b6c57600080fd5b62003b7a88828701620039e9565b60408401525081855262003b90818701620038b8565b818601525050505092915050565b6000602080838503121562003bb257600080fd5b82356001600160401b038082111562003bca57600080fd5b818501915085601f83011262003bdf57600080fd5b813562003bf062003a0e82620039c3565b81815260059190911b8301840190848101908883111562003c1057600080fd5b8585015b8381101562003c4d5780358581111562003c2e5760008081fd5b62003c3e8b89838a010162003a83565b84525091860191860162003c14565b5098975050505050505050565b600081518084526020808501945080840160005b8381101562003c8c5781518752958201959082019060010162003c6e565b509495945050505050565b60808152600062003cac608083018762003c5a565b82810360208481019190915286518083528782019282019060005b8181101562003ce55784518352938301939183019160010162003cc7565b5050848103604086015262003cfb818862003c5a565b92505050828103606084015262003d13818562003c5a565b979650505050505050565b6000806040838503121562003d3257600080fd5b50508035926020909101359150565b60006020828403121562003d5457600080fd5b81356001600160401b0381111562003d6b57600080fd5b62000fde8482850162003a83565b6000806040838503121562003d8d57600080fd5b62003d9883620038b8565b946020939093013593505050565b60008060006060848603121562003dbc57600080fd5b833592506020840135915062003dd560408501620038b8565b90509250925092565b6020808252601a908201527f436f6e747261637420686173206e6f74206c61756e636865642e000000000000604082015260600190565b634e487b7160e01b600052601160045260246000fd5b60006001820162003e405762003e4062003e15565b5060010190565b80820180821115620007f157620007f162003e15565b634e487b7160e01b600052601260045260246000fd5b60008262003e855762003e8562003e5d565b500490565b634e487b7160e01b600052603260045260246000fd5b600081518084526020808501945080840160005b8381101562003c8c57815180518852830151838801526040909601959082019060010162003eb4565b848152600060208581840152846040840152608060608401528351608084015280840151606060a085015280518060e086015260005b8181101562003f32578281018401518682016101000152830162003f13565b5061010092506000838287010152601f19601f8201168501915050604085015160808583030160c086015262003f6b8383018262003ea0565b9998505050505050505050565b60006020828403121562003f8b57600080fd5b5051919050565b81810381811115620007f157620007f162003e15565b60008262003fba5762003fba62003e5d565b500690565b8082028115828204841417620007f157620007f162003e15565b815160009082906020808601845b83811015620040055781518552938201939082019060010162003fe7565b50929695505050505050565b634e487b7160e01b600052603160045260246000fdfe608060405234801561001057600080fd5b5060405161063638038061063683398101604081905261002f91610171565b338061005557604051631e4fbdf760e01b81526000600482015260240160405180910390fd5b61005e816100c1565b50806001600160401b038111156100775761007761018a565b6040519080825280602002602001820160405280156100a0578160200160208202803683370190505b5080516100b591600191602090910190610111565b505060006002556101a0565b600080546001600160a01b038381166001600160a01b0319831681178455604051919092169283917f8be0079c531659141344cd1fd0a4f28419497f9722a3daafe3b4186f6b6457e09190a35050565b82805482825590600052602060002090810192821561014c579160200282015b8281111561014c578251825591602001919060010190610131565b5061015892915061015c565b5090565b5b80821115610158576000815560010161015d565b60006020828403121561018357600080fd5b5051919050565b634e487b7160e01b600052604160045260246000fd5b610487806101af6000396000f3fe608060405234801561001057600080fd5b506004361061007d5760003560e01c80638da5cb5b1161005b5780638da5cb5b146100d557806396e494e8146100f0578063e0886f9014610103578063f2fde38b1461011657600080fd5b80631d1a696d146100825780632d287e43146100aa578063715018a6146100cb575b600080fd5b610095610090366004610382565b610129565b60405190151581526020015b60405180910390f35b6100bd6100b8366004610382565b610194565b6040519081526020016100a1565b6100d36101f5565b005b6000546040516001600160a01b0390911681526020016100a1565b6100956100fe366004610382565b610209565b6100bd610111366004610382565b61023e565b6100d361012436600461039b565b61029e565b60008061013d6002546001805490506102dc565b905060005b8181101561018a57836001828154811061015e5761015e6103c4565b906000526020600020015403610178575060019392505050565b80610182816103f0565b915050610142565b5060009392505050565b600061019e6102f6565b6002546001546000906101b19083610409565b905083600182815481106101c7576101c76103c4565b90600052602060002001819055506001600260008282546101e8919061042b565b9091555091949350505050565b6101fd6102f6565b6102076000610323565b565b600154600254600091908310801561023757508061022960025483610373565b610233919061043e565b8310155b9392505050565b600061024982610209565b61026e5760405163b52d71f360e01b8152600481018390526024015b60405180910390fd5b6001805461027c9084610409565b8154811061028c5761028c6103c4565b90600052602060002001549050919050565b6102a66102f6565b6001600160a01b0381166102d057604051631e4fbdf760e01b815260006004820152602401610265565b6102d981610323565b50565b60008183106102eb57816102ed565b825b90505b92915050565b6000546001600160a01b031633146102075760405163118cdaa760e01b8152336004820152602401610265565b600080546001600160a01b038381166001600160a01b0319831681178455604051919092169283917f8be0079c531659141344cd1fd0a4f28419497f9722a3daafe3b4186f6b6457e09190a35050565b60008183116102eb57816102ed565b60006020828403121561039457600080fd5b5035919050565b6000602082840312156103ad57600080fd5b81356001600160a01b038116811461023757600080fd5b634e487b7160e01b600052603260045260246000fd5b634e487b7160e01b600052601160045260246000fd5b600060018201610402576104026103da565b5060010190565b60008261042657634e487b7160e01b600052601260045260246000fd5b500690565b808201808211156102f0576102f06103da565b818103818111156102f0576102f06103da56fea2646970667358221220635494212f9012021fb76812bcb699d1b59e0137921bc1364e1859dad84af54164736f6c63430008140033c1f6fe24621ce81ec5827caf0253cadb74709b061630e6b55e8237170593200065d7a28e3265b37a6474929f336521b332c1681b933f6cb9f3376673440d862a02dd7bc7dec4dceedda775e58dd541e08a116c6c53815c0bd028192f7b626800cd5ed15c6e187e77e9aee88184c21f4f2182ab5827cb3b7e07fbedcd63f03300a264697066735822122061c88f76e15baedcd49c7e7fcbb5bd2614f19dc80af0ff4e319914a8cabf819364736f6c63430008140033",
  "linkReferences": {},
  "deployedLinkReferences": {}
}