{
  "_format": "hh-sol-artifact-1",
  "contractName": "PoraMine",
  "sourceName": "contracts/miner/Mine.sol",
  "abi": [
    {
      "inputs": [
        {
          "internalType": "uint256",
          "name": "settings",
          "type": "uint256"
        }
      ],
      "stateMutability": "nonpayable",
      "type": "constructor"
    },
    {
      "inputs": [],
      "name": "AccessControlBadConfirmation",
      "type": "error"
    },
    {
      "inputs": [
        {
          "internalType": "address",
          "name": "account",
          "type": "address"
        },
        {
          "internalType": "bytes32",
          "name": "neededRole",
          "type": "bytes32"
        }
      ],
      "name": "AccessControlUnauthorizedAccount",
      "type": "error"
    },
    {
      "inputs": [],
      "name": "InvalidInitialization",
      "type": "error"
    },
    {
      "inputs": [],
      "name": "MathOverflowedMulDiv",
      "type": "error"
    },
    {
      "inputs": [],
      "name": "NotInitializing",
      "type": "error"
    },
    {
      "anonymous": false,
      "inputs": [
        {
          "indexed": false,
          "internalType": "uint64",
          "name": "version",
          "type": "uint64"
        }
      ],
      "name": "Initialized",
      "type": "event"
    },
    {
      "anonymous": false,
      "inputs": [
        {
          "indexed": true,
          "internalType": "bytes32",
          "name": "minerId",
          "type": "bytes32"
        },
        {
          "indexed": true,
          "internalType": "address",
          "name": "beneficiary",
          "type": "address"
        }
      ],
      "name": "NewMinerId",
      "type": "event"
    },
    {
      "anonymous": false,
      "inputs": [
        {
          "indexed": true,
          "internalType": "uint256",
          "name": "epoch",
          "type": "uint256"
        },
        {
          "indexed": true,
          "internalType": "bytes32",
          "name": "minerId",
          "type": "bytes32"
        },
        {
          "indexed": false,
          "internalType": "uint256",
          "name": "epochIndex",
          "type": "uint256"
        },
        {
          "indexed": false,
          "internalType": "uint256",
          "name": "recallPosition",
          "type": "uint256"
        }
      ],
      "name": "NewSubmission",
      "type": "event"
    },
    {
      "anonymous": false,
      "inputs": [
        {
          "indexed": true,
          "internalType": "bytes32",
          "name": "role",
          "type": "bytes32"
        },
        {
          "indexed": true,
          "internalType": "bytes32",
          "name": "previousAdminRole",
          "type": "bytes32"
        },
        {
          "indexed": true,
          "internalType": "bytes32",
          "name": "newAdminRole",
          "type": "bytes32"
        }
      ],
      "name": "RoleAdminChanged",
      "type": "event"
    },
    {
      "anonymous": false,
      "inputs": [
        {
          "indexed": true,
          "internalType": "bytes32",
          "name": "role",
          "type": "bytes32"
        },
        {
          "indexed": true,
          "internalType": "address",
          "name": "account",
          "type": "address"
        },
        {
          "indexed": true,
          "internalType": "address",
          "name": "sender",
          "type": "address"
        }
      ],
      "name": "RoleGranted",
      "type": "event"
    },
    {
      "anonymous": false,
      "inputs": [
        {
          "indexed": true,
          "internalType": "bytes32",
          "name": "role",
          "type": "bytes32"
        },
        {
          "indexed": true,
          "internalType": "address",
          "name": "account",
          "type": "address"
        },
        {
          "indexed": true,
          "internalType": "address",
          "name": "sender",
          "type": "address"
        }
      ],
      "name": "RoleRevoked",
      "type": "event"
    },
    {
      "anonymous": false,
      "inputs": [
        {
          "indexed": true,
          "internalType": "bytes32",
          "name": "minerId",
          "type": "bytes32"
        },
        {
          "indexed": true,
          "internalType": "address",
          "name": "from",
          "type": "address"
        },
        {
          "indexed": true,
          "internalType": "address",
          "name": "to",
          "type": "address"
        }
      ],
      "name": "UpdateMinerId",
      "type": "event"
    },
    {
      "inputs": [],
      "name": "DEFAULT_ADMIN_ROLE",
      "outputs": [
        {
          "internalType": "bytes32",
          "name": "",
          "type": "bytes32"
        }
      ],
      "stateMutability": "view",
      "type": "function"
    },
    {
      "inputs": [],
      "name": "PARAMS_ADMIN_ROLE",
      "outputs": [
        {
          "internalType": "bytes32",
          "name": "",
          "type": "bytes32"
        }
      ],
      "stateMutability": "view",
      "type": "function"
    },
    {
      "inputs": [
        {
          "components": [
            {
              "internalType": "bytes32",
              "name": "contextDigest",
              "type": "bytes32"
            },
            {
              "internalType": "bytes32",
              "name": "nonce",
              "type": "bytes32"
            },
            {
              "internalType": "bytes32",
              "name": "minerId",
              "type": "bytes32"
            },
            {
              "components": [
                {
                  "internalType": "uint256",
                  "name": "startPosition",
                  "type": "uint256"
                },
                {
                  "internalType": "uint256",
                  "name": "mineLength",
                  "type": "uint256"
                },
                {
                  "internalType": "uint64",
                  "name": "shardId",
                  "type": "uint64"
                },
                {
                  "internalType": "uint64",
                  "name": "shardMask",
                  "type": "uint64"
                }
              ],
              "internalType": "struct RecallRange",
              "name": "range",
              "type": "tuple"
            },
            {
              "internalType": "uint256",
              "name": "recallPosition",
              "type": "uint256"
            },
            {
              "internalType": "uint256",
              "name": "sealOffset",
              "type": "uint256"
            },
            {
              "internalType": "bytes32",
              "name": "sealedContextDigest",
              "type": "bytes32"
            },
            {
              "internalType": "bytes32[128]",
              "name": "sealedData",
              "type": "bytes32[128]"
            },
            {
              "internalType": "bytes32[]",
              "name": "merkleProof",
              "type": "bytes32[]"
            }
          ],
          "internalType": "struct MineLib.PoraAnswer",
          "name": "answer",
          "type": "tuple"
        },
        {
          "components": [
            {
              "internalType": "uint256",
              "name": "epoch",
              "type": "uint256"
            },
            {
              "internalType": "uint256",
              "name": "mineStart",
              "type": "uint256"
            },
            {
              "internalType": "bytes32",
              "name": "flowRoot",
              "type": "bytes32"
            },
            {
              "internalType": "uint256",
              "name": "flowLength",
              "type": "uint256"
            },
            {
              "internalType": "bytes32",
              "name": "blockDigest",
              "type": "bytes32"
            },
            {
              "internalType": "bytes32",
              "name": "digest",
              "type": "bytes32"
            }
          ],
          "internalType": "struct MineContext",
          "name": "context",
          "type": "tuple"
        }
      ],
      "name": "basicCheck",
      "outputs": [],
      "stateMutability": "view",
      "type": "function"
    },
    {
      "inputs": [
        {
          "internalType": "bytes32",
          "name": "digest",
          "type": "bytes32"
        }
      ],
      "name": "beneficiaries",
      "outputs": [
        {
          "internalType": "address",
          "name": "",
          "type": "address"
        }
      ],
      "stateMutability": "view",
      "type": "function"
    },
    {
      "inputs": [],
      "name": "canSubmit",
      "outputs": [
        {
          "internalType": "bool",
          "name": "",
          "type": "bool"
        }
      ],
      "stateMutability": "nonpayable",
      "type": "function"
    },
    {
      "inputs": [
        {
          "internalType": "bytes32",
          "name": "minerId",
          "type": "bytes32"
        }
      ],
      "name": "computeWorkerContext",
      "outputs": [
        {
          "components": [
            {
              "components": [
                {
                  "internalType": "uint256",
                  "name": "epoch",
                  "type": "uint256"
                },
                {
                  "internalType": "uint256",
                  "name": "mineStart",
                  "type": "uint256"
                },
                {
                  "internalType": "bytes32",
                  "name": "flowRoot",
                  "type": "bytes32"
                },
                {
                  "internalType": "uint256",
                  "name": "flowLength",
                  "type": "uint256"
                },
                {
                  "internalType": "bytes32",
                  "name": "blockDigest",
                  "type": "bytes32"
                },
                {
                  "internalType": "bytes32",
                  "name": "digest",
                  "type": "bytes32"
                }
              ],
              "internalType": "struct MineContext",
              "name": "context",
              "type": "tuple"
            },
            {
              "internalType": "uint256",
              "name": "poraTarget",
              "type": "uint256"
            },
            {
              "internalType": "bytes32",
              "name": "subtaskDigest",
              "type": "bytes32"
            },
            {
              "internalType": "uint64",
              "name": "maxShards",
              "type": "uint64"
            }
          ],
          "internalType": "struct WorkerContext",
          "name": "answer",
          "type": "tuple"
        }
      ],
      "stateMutability": "nonpayable",
      "type": "function"
    },
    {
      "inputs": [],
      "name": "computeWorkerContextCaller",
      "outputs": [
        {
          "internalType": "address",
          "name": "",
          "type": "address"
        }
      ],
      "stateMutability": "pure",
      "type": "function"
    },
    {
      "inputs": [],
      "name": "currentSubmissions",
      "outputs": [
        {
          "internalType": "uint256",
          "name": "",
          "type": "uint256"
        }
      ],
      "stateMutability": "view",
      "type": "function"
    },
    {
      "inputs": [],
      "name": "dataProofEnabled",
      "outputs": [
        {
          "internalType": "bool",
          "name": "",
          "type": "bool"
        }
      ],
      "stateMutability": "view",
      "type": "function"
    },
    {
      "inputs": [],
      "name": "difficultyAdjustRatio",
      "outputs": [
        {
          "internalType": "uint256",
          "name": "",
          "type": "uint256"
        }
      ],
      "stateMutability": "view",
      "type": "function"
    },
    {
      "inputs": [],
      "name": "fixedDifficulty",
      "outputs": [
        {
          "internalType": "bool",
          "name": "",
          "type": "bool"
        }
      ],
      "stateMutability": "view",
      "type": "function"
    },
    {
      "inputs": [],
      "name": "flow",
      "outputs": [
        {
          "internalType": "address",
          "name": "",
          "type": "address"
        }
      ],
      "stateMutability": "view",
      "type": "function"
    },
    {
      "inputs": [
        {
          "internalType": "bytes32",
          "name": "role",
          "type": "bytes32"
        }
      ],
      "name": "getRoleAdmin",
      "outputs": [
        {
          "internalType": "bytes32",
          "name": "",
          "type": "bytes32"
        }
      ],
      "stateMutability": "view",
      "type": "function"
    },
    {
      "inputs": [
        {
          "internalType": "bytes32",
          "name": "role",
          "type": "bytes32"
        },
        {
          "internalType": "uint256",
          "name": "index",
          "type": "uint256"
        }
      ],
      "name": "getRoleMember",
      "outputs": [
        {
          "internalType": "address",
          "name": "",
          "type": "address"
        }
      ],
      "stateMutability": "view",
      "type": "function"
    },
    {
      "inputs": [
        {
          "internalType": "bytes32",
          "name": "role",
          "type": "bytes32"
        }
      ],
      "name": "getRoleMemberCount",
      "outputs": [
        {
          "internalType": "uint256",
          "name": "",
          "type": "uint256"
        }
      ],
      "stateMutability": "view",
      "type": "function"
    },
    {
      "inputs": [
        {
          "components": [
            {
              "internalType": "uint256",
              "name": "epoch",
              "type": "uint256"
            },
            {
              "internalType": "uint256",
              "name": "mineStart",
              "type": "uint256"
            },
            {
              "internalType": "bytes32",
              "name": "flowRoot",
              "type": "bytes32"
            },
            {
              "internalType": "uint256",
              "name": "flowLength",
              "type": "uint256"
            },
            {
              "internalType": "bytes32",
              "name": "blockDigest",
              "type": "bytes32"
            },
            {
              "internalType": "bytes32",
              "name": "digest",
              "type": "bytes32"
            }
          ],
          "internalType": "struct MineContext",
          "name": "context",
          "type": "tuple"
        },
        {
          "internalType": "bytes32",
          "name": "minerId",
          "type": "bytes32"
        }
      ],
      "name": "getSubtaskDigest",
      "outputs": [
        {
          "internalType": "bytes32",
          "name": "",
          "type": "bytes32"
        }
      ],
      "stateMutability": "view",
      "type": "function"
    },
    {
      "inputs": [
        {
          "internalType": "bytes32",
          "name": "role",
          "type": "bytes32"
        },
        {
          "internalType": "address",
          "name": "account",
          "type": "address"
        }
      ],
      "name": "grantRole",
      "outputs": [],
      "stateMutability": "nonpayable",
      "type": "function"
    },
    {
      "inputs": [
        {
          "internalType": "bytes32",
          "name": "role",
          "type": "bytes32"
        },
        {
          "internalType": "address",
          "name": "account",
          "type": "address"
        }
      ],
      "name": "hasRole",
      "outputs": [
        {
          "internalType": "bool",
          "name": "",
          "type": "bool"
        }
      ],
      "stateMutability": "view",
      "type": "function"
    },
    {
      "inputs": [
        {
          "internalType": "address",
          "name": "flow_",
          "type": "address"
        },
        {
          "internalType": "address",
          "name": "reward_",
          "type": "address"
        },
        {
          "components": [
            {
              "internalType": "uint256",
              "name": "difficulty",
              "type": "uint256"
            },
            {
              "internalType": "uint256",
              "name": "targetMineBlocks",
              "type": "uint256"
            },
            {
              "internalType": "uint256",
              "name": "targetSubmissions",
              "type": "uint256"
            },
            {
              "internalType": "uint64",
              "name": "maxShards",
              "type": "uint64"
            },
            {
              "internalType": "uint256",
              "name": "nSubtasks",
              "type": "uint256"
            },
            {
              "internalType": "uint256",
              "name": "subtaskInterval",
              "type": "uint256"
            }
          ],
          "internalType": "struct PoraMine.MineInitParams",
          "name": "params",
          "type": "tuple"
        }
      ],
      "name": "initialize",
      "outputs": [],
      "stateMutability": "nonpayable",
      "type": "function"
    },
    {
      "inputs": [],
      "name": "lastMinedEpoch",
      "outputs": [
        {
          "internalType": "uint256",
          "name": "",
          "type": "uint256"
        }
      ],
      "stateMutability": "view",
      "type": "function"
    },
    {
      "inputs": [],
      "name": "maxShards",
      "outputs": [
        {
          "internalType": "uint64",
          "name": "",
          "type": "uint64"
        }
      ],
      "stateMutability": "view",
      "type": "function"
    },
    {
      "inputs": [],
      "name": "minDifficulty",
      "outputs": [
        {
          "internalType": "uint256",
          "name": "",
          "type": "uint256"
        }
      ],
      "stateMutability": "view",
      "type": "function"
    },
    {
      "inputs": [],
      "name": "nSubtasks",
      "outputs": [
        {
          "internalType": "uint256",
          "name": "",
          "type": "uint256"
        }
      ],
      "stateMutability": "view",
      "type": "function"
    },
    {
      "inputs": [],
      "name": "nSubtasksNextEpoch",
      "outputs": [
        {
          "internalType": "uint256",
          "name": "",
          "type": "uint256"
        }
      ],
      "stateMutability": "view",
      "type": "function"
    },
    {
      "inputs": [
        {
          "components": [
            {
              "internalType": "bytes32",
              "name": "contextDigest",
              "type": "bytes32"
            },
            {
              "internalType": "bytes32",
              "name": "nonce",
              "type": "bytes32"
            },
            {
              "internalType": "bytes32",
              "name": "minerId",
              "type": "bytes32"
            },
            {
              "components": [
                {
                  "internalType": "uint256",
                  "name": "startPosition",
                  "type": "uint256"
                },
                {
                  "internalType": "uint256",
                  "name": "mineLength",
                  "type": "uint256"
                },
                {
                  "internalType": "uint64",
                  "name": "shardId",
                  "type": "uint64"
                },
                {
                  "internalType": "uint64",
                  "name": "shardMask",
                  "type": "uint64"
                }
              ],
              "internalType": "struct RecallRange",
              "name": "range",
              "type": "tuple"
            },
            {
              "internalType": "uint256",
              "name": "recallPosition",
              "type": "uint256"
            },
            {
              "internalType": "uint256",
              "name": "sealOffset",
              "type": "uint256"
            },
            {
              "internalType": "bytes32",
              "name": "sealedContextDigest",
              "type": "bytes32"
            },
            {
              "internalType": "bytes32[128]",
              "name": "sealedData",
              "type": "bytes32[128]"
            },
            {
              "internalType": "bytes32[]",
              "name": "merkleProof",
              "type": "bytes32[]"
            }
          ],
          "internalType": "struct MineLib.PoraAnswer",
          "name": "answer",
          "type": "tuple"
        },
        {
          "internalType": "bytes32",
          "name": "subtaskDigest",
          "type": "bytes32"
        }
      ],
      "name": "pora",
      "outputs": [
        {
          "internalType": "bytes32",
          "name": "",
          "type": "bytes32"
        }
      ],
      "stateMutability": "view",
      "type": "function"
    },
    {
      "inputs": [],
      "name": "poraTarget",
      "outputs": [
        {
          "internalType": "uint256",
          "name": "",
          "type": "uint256"
        }
      ],
      "stateMutability": "view",
      "type": "function"
    },
    {
      "inputs": [],
      "name": "poraVersion",
      "outputs": [
        {
          "internalType": "uint64",
          "name": "",
          "type": "uint64"
        }
      ],
      "stateMutability": "pure",
      "type": "function"
    },
    {
      "inputs": [
        {
          "internalType": "bytes32",
          "name": "role",
          "type": "bytes32"
        },
        {
          "internalType": "address",
          "name": "callerConfirmation",
          "type": "address"
        }
      ],
      "name": "renounceRole",
      "outputs": [],
      "stateMutability": "nonpayable",
      "type": "function"
    },
    {
      "inputs": [
        {
          "internalType": "address",
          "name": "beneficiary",
          "type": "address"
        },
        {
          "internalType": "uint64",
          "name": "seed",
          "type": "uint64"
        }
      ],
      "name": "requestMinerId",
      "outputs": [],
      "stateMutability": "nonpayable",
      "type": "function"
    },
    {
      "inputs": [
        {
          "internalType": "bytes32",
          "name": "role",
          "type": "bytes32"
        },
        {
          "internalType": "address",
          "name": "account",
          "type": "address"
        }
      ],
      "name": "revokeRole",
      "outputs": [],
      "stateMutability": "nonpayable",
      "type": "function"
    },
    {
      "inputs": [],
      "name": "reward",
      "outputs": [
        {
          "internalType": "address",
          "name": "",
          "type": "address"
        }
      ],
      "stateMutability": "view",
      "type": "function"
    },
    {
      "inputs": [],
      "name": "sealDataEnabled",
      "outputs": [
        {
          "internalType": "bool",
          "name": "",
          "type": "bool"
        }
      ],
      "stateMutability": "view",
      "type": "function"
    },
    {
      "inputs": [
        {
          "internalType": "uint256",
          "name": "difficultyAdjustRatio_",
          "type": "uint256"
        }
      ],
      "name": "setDifficultyAdjustRatio",
      "outputs": [],
      "stateMutability": "nonpayable",
      "type": "function"
    },
    {
      "inputs": [
        {
          "internalType": "uint64",
          "name": "maxShards_",
          "type": "uint64"
        }
      ],
      "name": "setMaxShards",
      "outputs": [],
      "stateMutability": "nonpayable",
      "type": "function"
    },
    {
      "inputs": [
        {
          "internalType": "uint256",
          "name": "minDifficulty_",
          "type": "uint256"
        }
      ],
      "name": "setMinDifficulty",
      "outputs": [],
      "stateMutability": "nonpayable",
      "type": "function"
    },
    {
      "inputs": [
        {
          "internalType": "uint256",
          "name": "nSubtasks_",
          "type": "uint256"
        }
      ],
      "name": "setNumSubtasks",
      "outputs": [],
      "stateMutability": "nonpayable",
      "type": "function"
    },
    {
      "inputs": [
        {
          "internalType": "uint256",
          "name": "subtaskInterval_",
          "type": "uint256"
        }
      ],
      "name": "setSubtaskInterval",
      "outputs": [],
      "stateMutability": "nonpayable",
      "type": "function"
    },
    {
      "inputs": [
        {
          "internalType": "uint256",
          "name": "targetMineBlocks_",
          "type": "uint256"
        }
      ],
      "name": "setTargetMineBlocks",
      "outputs": [],
      "stateMutability": "nonpayable",
      "type": "function"
    },
    {
      "inputs": [
        {
          "internalType": "uint256",
          "name": "targetSubmissions_",
          "type": "uint256"
        }
      ],
      "name": "setTargetSubmissions",
      "outputs": [],
      "stateMutability": "nonpayable",
      "type": "function"
    },
    {
      "inputs": [
        {
          "components": [
            {
              "internalType": "bytes32",
              "name": "contextDigest",
              "type": "bytes32"
            },
            {
              "internalType": "bytes32",
              "name": "nonce",
              "type": "bytes32"
            },
            {
              "internalType": "bytes32",
              "name": "minerId",
              "type": "bytes32"
            },
            {
              "components": [
                {
                  "internalType": "uint256",
                  "name": "startPosition",
                  "type": "uint256"
                },
                {
                  "internalType": "uint256",
                  "name": "mineLength",
                  "type": "uint256"
                },
                {
                  "internalType": "uint64",
                  "name": "shardId",
                  "type": "uint64"
                },
                {
                  "internalType": "uint64",
                  "name": "shardMask",
                  "type": "uint64"
                }
              ],
              "internalType": "struct RecallRange",
              "name": "range",
              "type": "tuple"
            },
            {
              "internalType": "uint256",
              "name": "recallPosition",
              "type": "uint256"
            },
            {
              "internalType": "uint256",
              "name": "sealOffset",
              "type": "uint256"
            },
            {
              "internalType": "bytes32",
              "name": "sealedContextDigest",
              "type": "bytes32"
            },
            {
              "internalType": "bytes32[128]",
              "name": "sealedData",
              "type": "bytes32[128]"
            },
            {
              "internalType": "bytes32[]",
              "name": "merkleProof",
              "type": "bytes32[]"
            }
          ],
          "internalType": "struct MineLib.PoraAnswer",
          "name": "answer",
          "type": "tuple"
        }
      ],
      "name": "submit",
      "outputs": [],
      "stateMutability": "nonpayable",
      "type": "function"
    },
    {
      "inputs": [],
      "name": "subtaskInterval",
      "outputs": [
        {
          "internalType": "uint256",
          "name": "",
          "type": "uint256"
        }
      ],
      "stateMutability": "view",
      "type": "function"
    },
    {
      "inputs": [],
      "name": "subtaskIntervalNextEpoch",
      "outputs": [
        {
          "internalType": "uint256",
          "name": "",
          "type": "uint256"
        }
      ],
      "stateMutability": "view",
      "type": "function"
    },
    {
      "inputs": [
        {
          "internalType": "bytes4",
          "name": "interfaceId",
          "type": "bytes4"
        }
      ],
      "name": "supportsInterface",
      "outputs": [
        {
          "internalType": "bool",
          "name": "",
          "type": "bool"
        }
      ],
      "stateMutability": "view",
      "type": "function"
    },
    {
      "inputs": [],
      "name": "targetMineBlocks",
      "outputs": [
        {
          "internalType": "uint256",
          "name": "",
          "type": "uint256"
        }
      ],
      "stateMutability": "view",
      "type": "function"
    },
    {
      "inputs": [],
      "name": "targetSubmissions",
      "outputs": [
        {
          "internalType": "uint256",
          "name": "",
          "type": "uint256"
        }
      ],
      "stateMutability": "view",
      "type": "function"
    },
    {
      "inputs": [],
      "name": "targetSubmissionsNextEpoch",
      "outputs": [
        {
          "internalType": "uint256",
          "name": "",
          "type": "uint256"
        }
      ],
      "stateMutability": "view",
      "type": "function"
    },
    {
      "inputs": [
        {
          "internalType": "address",
          "name": "to",
          "type": "address"
        },
        {
          "internalType": "bytes32",
          "name": "minerId",
          "type": "bytes32"
        }
      ],
      "name": "transferBeneficial",
      "outputs": [],
      "stateMutability": "nonpayable",
      "type": "function"
    }
  ],
  "bytecode": "0x60e06040523480156200001157600080fd5b506040516200419b3803806200419b833981016040819052620000349162000052565b6001811615608052600281161560a052600416151560c0526200006c565b6000602082840312156200006557600080fd5b5051919050565b60805160a05160c0516140e3620000b8600039600081816104ba01528181610b3e01526134de0152600081816104e90152611d6b01526000818161058f0152611cbb01526140e36000f3fe608060405234801561001057600080fd5b50600436106102955760003560e01c80637bba7d6111610167578063adaa7a0f116100ce578063c10a729711610087578063c10a7297146105fc578063ca15c87314610603578063d547741f14610616578063dddc61a814610629578063e282e27b14610631578063ffbc9bd01461063857600080fd5b8063adaa7a0f1461058a578063ae722e82146105b1578063b0628ee0146105c4578063b15d20da146105d7578063b4a93283146105ec578063b776a512146105f457600080fd5b80639010d07c116101205780639010d07c1461053957806391d148541461054c5780639dc787a21461055f578063a217fddf14610567578063a82791821461056f578063ad08fdfb1461057757600080fd5b80637bba7d61146104b55780637eca5688146104dc57806382975fe7146104e457806384f96bb61461050b5780638c0bca061461051e5780638f375b361461053157600080fd5b80632a02573b1161020b57806339cd53ee116101c457806339cd53ee1461044e5780633baebb751461046157806348f61441146104745780635bdca8551461047c578063704d3c961461048f57806378203ab6146104a257600080fd5b80632a02573b146103fd5780632f2ff15d1461041057806331223ba714610423578063331f3b9c1461042b578063343aad821461043357806336568abe1461043b57600080fd5b80631600c6241161025d5780631600c6241461030857806316a4be6f1461031b578063228cb7331461033b578063248a9ca31461035b57806328812dbf1461036e578063296beba71461038157600080fd5b806301ffc9a71461029a5780630367e2dd146102c2578063047c13f5146102d85780630c655e1f146102ed5780630e2410ff14610300575b600080fd5b6102ad6102a83660046138b2565b610640565b60405190151581526020015b60405180910390f35b6102ca61066b565b6040519081526020016102b9565b6102eb6102e636600461390a565b61067e565b005b6102eb6102fb36600461393d565b6107ab565b6102ca610955565b6102eb61031636600461393d565b610968565b6103236109e7565b6040516001600160401b0390911681526020016102b9565b610343610a03565b6040516001600160a01b0390911681526020016102b9565b6102ca61036936600461393d565b610a1f565b6102eb61037c3660046139b7565b610a41565b61039461038f36600461393d565b610c55565b60408051825180518252602080820151818401528184015183850152606080830151818501526080808401519085015260a0928301519284019290925284015160c08301529183015160e08201529101516001600160401b0316610100820152610120016102b9565b6102eb61040b366004613a4b565b610f6e565b6102eb61041e366004613a66565b611081565b6102ca6110a3565b6102ca6110b6565b6103436110c9565b6102eb610449366004613a66565b6110e2565b61034361045c36600461393d565b611115565b6102eb61046f366004613d08565b61113c565b6102ca6113ef565b6102eb61048a36600461393d565b611402565b6102eb61049d36600461393d565b611444565b6102ca6104b0366004613d4d565b6114c2565b6102ad7f000000000000000000000000000000000000000000000000000000000000000081565b6102ca611637565b6102ad7f000000000000000000000000000000000000000000000000000000000000000081565b6102eb61051936600461393d565b61164a565b6102ca61052c366004613d78565b6117f1565b6102ca6119f1565b610343610547366004613dbc565b611a04565b6102ad61055a366004613a66565b611a33565b6102ca611a6b565b6102ca600081565b6102ca611a7e565b6102eb61058536600461393d565b611a91565b6102ad7f000000000000000000000000000000000000000000000000000000000000000081565b6102eb6105bf366004613dde565b611adf565b6102eb6105d2366004613e12565b61203d565b6102ca60008051602061406e83398151915281565b6102ca61210f565b6102ca612122565b600a610343565b6102ca61061136600461393d565b612135565b6102eb610624366004613a66565b612162565b6102ca61217e565b6001610323565b6102ad612191565b60006001600160e01b03198216635a05180f60e01b148061066557506106658261224c565b92915050565b6000610675612281565b600c0154905090565b6000610688612281565b90506000610697600143613e52565b60408051914060208301526bffffffffffffffffffffffff193360601b16908201526001600160c01b031960c085901b166054820152605c0160408051601f1981840301815291815281516020928301206000818152601086019093529120549091506001600160a01b03161561074e5760405162461bcd60e51b8152602060048201526016602482015275135a5b995c9259081a185cc81c9959da5cdd195c995960521b60448201526064015b60405180910390fd5b600081815260108301602052604080822080546001600160a01b0319166001600160a01b0388169081179091559051909183917fbfeb006f16aca8eb3d9953cf44db6b11b6f3041a313875dfa18f2e9d71bd309e9190a350505050565b60008051602061406e8339815191526107c3816122a5565b60006107cd612281565b9050600083116108295760405162461bcd60e51b815260206004820152602160248201527f4e756d626572206f66207375627461736b732063616e6e6f74206265207a65726044820152606f60f81b6064820152608401610745565b805460408051633c1a081560e21b815290516001600160a01b039092169163f0682054916004808201926020929091908290030181865afa158015610872573d6000803e3d6000fd5b505050506040513d601f19601f820116820180604052508101906108969190613e65565b6002820154600e8301546108ab600187613e52565b6108b59190613e7e565b6108bf9190613e95565b6108ca906001613e95565b106109355760405162461bcd60e51b815260206004820152603560248201527f4e756d626572206f66207375627461736b73206d757374206265206c657373206044820152740e8d0c2dc40c4d8dec6d6e640e0cae440cae0dec6d605b1b6064820152608401610745565b600c8101839055600781015460000361095057600b81018390555b505050565b600061095f612281565b600e0154905090565b60008051602061406e833981519152610980816122a5565b6101008211156109d25760405162461bcd60e51b815260206004820152601d60248201527f746172676574206d696e6520626c6f636b206d757374203c3d203235360000006044820152606401610745565b60006109dc612281565b600201929092555050565b60006109f1612281565b600601546001600160401b0316919050565b6000610a0d612281565b600101546001600160a01b0316919050565b600090815260008051602061408e833981519152602052604090206001015490565b7ff0c57e16840df040f15088dc2f81fe391c3923bec73e23a9662efc9c229c6a008054600160401b810460ff1615906001600160401b0316600081158015610a865750825b90506000826001600160401b03166001148015610aa25750303b155b905081158015610ab0575080155b15610ace5760405163f92ee8a960e01b815260040160405180910390fd5b845467ffffffffffffffff191660011785558315610af857845460ff60401b1916600160401b1785555b6000610b02612281565b9050610b0f6000336122b2565b50610b2860008051602061406e833981519152336122b2565b508651610b3790600019613ebe565b60098201557f000000000000000000000000000000000000000000000000000000000000000015610b6b5760001960098201555b6014600582015580546001600160a01b03808b166001600160a01b0319928316178355600183018054918b16919092161790556020870151600282015560408701516003820181905560608801516006830180546001600160401b0390921667ffffffffffffffff199092169190911790556080880151600b8301819055600c830155600482015560a0870151600d8201819055600e909101558315610c4b57845460ff60401b19168555604051600181527fc7f505b2f371ae2175ee4913f4499e1f2633a7b5936321eed1cdaeb6115181d29060200160405180910390a15b5050505050505050565b604080516101408101825260006080820181815260a0830182905260c0830182905260e0830182905261010083018290526101208301829052825260208201819052918101829052606081019190915233600a14610d0f5760405162461bcd60e51b815260206004820152603160248201527f4f6e6c7920617574686f72697a65642063616c6c65722063616e20636f6d70756044820152701d19481ddbdc9ad95c8818dbdb9d195e1d607a1b6064820152608401610745565b6000610d19612281565b905082610d615760405162461bcd60e51b81526020600482015260166024820152754d696e657249642063616e6e6f74206265207a65726f60501b6044820152606401610745565b60008381526010820160205260409020546001600160a01b031680610dc85760405162461bcd60e51b815260206004820152601b60248201527f4d696e6572496420646f6573206e6f74207265676973746572656400000000006044820152606401610745565b60068201546001600160401b03166060840152815460408051635a325a9f60e11b815290516001600160a01b039092169163b464b53e9160048082019260c09290919082900301816000875af1158015610e26573d6000803e3d6000fd5b505050506040513d601f19601f82011682018060405250810190610e4a9190613ed2565b808452600b83015460a09091015160405160009291610e76918890602001918252602082015260400190565b6040516020818303038152906040528051906020012060001c610e999190613f2c565b9050600083600d015482610ead9190613e7e565b855160200151610ebd9190613e95565b90506000846002015482610ed19190613e95565b90508143111580610ee157508043115b15610ef0575050505050919050565b855160a00151604080516020808201939093528440818301528151808203830181526060909101825280519201919091209087015260078501548651511115610f3e578551610f3e906122f7565b6003850154610f4e906002613e7e565b85600801541015610f6457600985015460208701525b5050505050919050565b60008051602061406e833981519152610f86816122a5565b6000826001600160401b031611610fdf5760405162461bcd60e51b815260206004820152601f60248201527f4d6178207368617264206e756d6265722063616e6e6f74206265207a65726f006044820152606401610745565b610fea600183613f40565b82166001600160401b03166000146110505760405162461bcd60e51b815260206004820152602360248201527f4d6178207368617264206e756d626572206d75737420626520706f776572206f60448201526233101960e91b6064820152608401610745565b600061105a612281565b600601805467ffffffffffffffff19166001600160401b0394909416939093179092555050565b61108a82610a1f565b611093816122a5565b61109d83836122b2565b50505050565b60006110ad612281565b60070154905090565b60006110c0612281565b60020154905090565b60006110d3612281565b546001600160a01b0316919050565b6001600160a01b038116331461110b5760405163334bd91960e11b815260040160405180910390fd5b61095082826123b8565b600061111f612281565b60009283526010016020525060409020546001600160a01b031690565b6000611146612281565b835160a08401519192501461119d5760405162461bcd60e51b815260206004820152601a60248201527f496e636f6e73697374656e74206d696e696e67206469676573740000000000006044820152606401610745565b7fc5d2460186f7233c927e7db2dcc703c0e500b653ca82273b7bfad8045d85a4708260a00151036112105760405162461bcd60e51b815260206004820152601960248201527f456d707479206469676573742063616e206e6f74206d696e65000000000000006044820152606401610745565b6003810154611220906002613e7e565b8160080154106112725760405162461bcd60e51b815260206004820152601c60248201527f45706f63682068617320656e6f756768207375626d697373696f6e73000000006044820152606401610745565b600061010061128361040082613e7e565b61128d9190613ebe565b61010061129c61040082613e7e565b6112a69190613ebe565b84606001516112b59190613ebe565b6112bf9190613e7e565b60608501519091506112d190826123f4565b815460c0850151604051630fab20e160e31b815260048101919091526000916001600160a01b031690637d590708906024016040805180830381865afa15801561131f573d6000803e3d6000fd5b505050506040513d601f19601f820116820180604052508101906113439190613f77565b905060006101006113576104006004613e7e565b6113619190613ebe565b86608001516113709190613e95565b90508082600001516001600160801b031610801561139b57508082602001516001600160801b031610155b6113e75760405162461bcd60e51b815260206004820152601d60248201527f496e76616c6964207365616c656420636f6e74657874206469676573740000006044820152606401610745565b505050505050565b60006113f9612281565b60090154905090565b60008051602061406e83398151915261141a816122a5565b6000611424612281565b600481018490556007810154909150600003610950576003019190915550565b60008051602061406e83398151915261145c816122a5565b6000611466612281565b9050600083116114b85760405162461bcd60e51b815260206004820152601d60248201527f41646a75737420726174696f206d757374206265206e6f6e2d7a65726f0000006044820152606401610745565b6005019190915550565b6000806114cd612281565b9050600081600b01548560a00151856040516020016114f6929190918252602082015260400190565b6040516020818303038152906040528051906020012060001c6115199190613f2c565b9050600082600d01548261152d9190613e7e565b866020015161153c9190613e95565b905060008360020154826115509190613e95565b90508143116115b45760405162461bcd60e51b815260206004820152602a60248201527f4561726c696572207468616e206578706563746564207375627461736b20737460448201526930b93a10313637b1b59760b11b6064820152608401610745565b804311156115fb5760405162461bcd60e51b8152602060048201526014602482015273135a5b9948191958591b1a5b9948195e18d9595960621b6044820152606401610745565b60a08701516040805160208101929092528340908201526060016040516020818303038152906040528051906020012094505050505092915050565b6000611641612281565b60040154905090565b60008051602061406e833981519152611662816122a5565b600061166c612281565b9050600083116116be5760405162461bcd60e51b815260206004820152601f60248201527f5375627461736b20696e74657276616c2063616e6e6f74206265207a65726f006044820152606401610745565b805460408051633c1a081560e21b815290516001600160a01b039092169163f0682054916004808201926020929091908290030181865afa158015611707573d6000803e3d6000fd5b505050506040513d601f19601f8201168201806040525081019061172b9190613e65565b816002015484600184600c01546117429190613e52565b61174c9190613e7e565b6117569190613e95565b611761906001613e95565b106117d45760405162461bcd60e51b815260206004820152603e60248201527f4e756d626572206f66207375627461736b20696e74657276616c73206d75737460448201527f206265206c657373207468616e20626c6f636b73207065722065706f636800006064820152608401610745565b600e8101839055600781015460000361095057600d019190915550565b60408201516000906118455760405162461bcd60e51b815260206004820152601860248201527f4d696e65722049442063616e6e6f7420626520656d70747900000000000000006044820152606401610745565b6000604051806080016040528085604001518152602001856020015181526020018481526020016118798660600151612632565b9052905060006118888261269a565b905060006118996104006010613e7e565b6118a7610400610100613e7e565b6118b19190613ebe565b6118be6104006004613e7e565b6118cc610400610100613e7e565b6118d69190613ebe565b6118e09190613ebe565b8660a001516118ef9190613f2c565b90506118f9613856565b611901613875565b6119108860e001518486612712565b925090506101006119246104006004613e7e565b61192e9190613ebe565b8860a0015161193d9190613e7e565b61197a826040516020016119519190613fd1565b604051602081830303815290604052805190602001208a6060015161289290919063ffffffff16565b6119849190613e95565b8860800151146119d65760405162461bcd60e51b815260206004820152601960248201527f496e636f727265637420726563616c6c20706f736974696f6e000000000000006044820152606401610745565b6119e58860a001518584612998565b98975050505050505050565b60006119fb612281565b600d0154905090565b600082815260008051602061404e833981519152602081905260408220611a2b9084612b56565b949350505050565b600091825260008051602061408e833981519152602090815260408084206001600160a01b0393909316845291905290205460ff1690565b6000611a75612281565b600b0154905090565b6000611a88612281565b60080154905090565b60008051602061406e833981519152611aa9816122a5565b6000611ab3612281565b600a810184905590506000611ac6612b62565b9050808260090154111561109d57600991909101555050565b6000611ae9612281565b6040830151909150611b365760405162461bcd60e51b81526020600482015260166024820152754d696e657249642063616e6e6f74206265207a65726f60501b6044820152606401610745565b60408083015160009081526010830160205220546001600160a01b031680611ba05760405162461bcd60e51b815260206004820152601b60248201527f4d696e6572496420646f6573206e6f74207265676973746572656400000000006044820152606401610745565b815460408051635a325a9f60e11b815290516000926001600160a01b03169163b464b53e9160048083019260c0929190829003018187875af1158015611bea573d6000803e3d6000fd5b505050506040513d601f19601f82011682018060405250810190611c0e9190613ed2565b9050611c19816122f7565b6000611c298286604001516114c2565b9050611c35858361113c565b600684015460608601516001600160401b0390911690611c5490612b9b565b1115611cb15760405162461bcd60e51b815260206004820152602660248201527f457863656564696e672074686520616c6c6f776564206e756d626572206f662060448201526573686172647360d01b6064820152608401610745565b611cb9613856565b7f000000000000000000000000000000000000000000000000000000000000000015611d62577fc5d2460186f7233c927e7db2dcc703c0e500b653ca82273b7bfad8045d85a4708660c0015103611d525760405162461bcd60e51b815260206004820152601b60248201527f5365616c206469676573742063616e6e6f7420626520656d70747900000000006044820152606401610745565b611d5b86612be5565b9050611d69565b5060e08501515b7f000000000000000000000000000000000000000000000000000000000000000015611df2576000611d9b8783612c8a565b905083604001518114611df05760405162461bcd60e51b815260206004820152601860248201527f496e636f6e73697374656e74206d65726b6c6520726f6f7400000000000000006044820152606401610745565b505b611dfa613856565b90506000611e0887846117f1565b90506000611e2785606001518960600151612efd90919063ffffffff16565b90506040818860090154611e3b9190613ebe565b901b821115611e8c5760405162461bcd60e51b815260206004820152601b60248201527f446f206e6f7420726561636820746172676574207175616c69747900000000006044820152606401610745565b6000828152600f8801602052604090205460ff1615611eed5760405162461bcd60e51b815260206004820152601960248201527f416e7377657220686173206265656e207375626d6974746564000000000000006044820152606401610745565b6000828152600f880160205260409020805460ff191660019081179091558701546001600160a01b031663b7a3c04c610100611f2b61040080613e7e565b611f3790610400613e7e565b611f42906008613e7e565b611f4c9190613ebe565b8a60800151611f5b9190613ebe565b6040808c015190516001600160e01b031960e085901b16815260048101929092526001600160a01b038a1660248301526044820152606401600060405180830381600087803b158015611fad57600080fd5b505af1158015611fc1573d6000803e3d6000fd5b5050506040808a0151875160088b015460808d015184519182526020820152919350917ffedd8f58059af8fd54b4394c01ea8d07cac041988be3b5a822fb779f9c8de3a4910160405180910390a3845160078801556008870180546001919060009061202e908490613e95565b90915550505050505050505050565b6000612047612281565b60008381526010820160205260409020549091506001600160a01b031633146120b25760405162461bcd60e51b815260206004820152601b60248201527f53656e64657220646f6573206e6f74206f776e206d696e6572496400000000006044820152606401610745565b600082815260108201602052604080822080546001600160a01b0319166001600160a01b03871690811790915590519091339185917f9a26a8e7fd42c501b452c02016def8048e3ea28c2bf15127a9b5e2029d989bf191a4505050565b6000612119612281565b600a0154905090565b600061212c612281565b60030154905090565b600081815260008051602061404e83398151915260208190526040822061215b9061303d565b9392505050565b61216b82610a1f565b612174816122a5565b61109d83836123b8565b6000612188612281565b60050154905090565b60008061219c612281565b905060008160000160009054906101000a90046001600160a01b03166001600160a01b031663b464b53e6040518163ffffffff1660e01b815260040160c0604051808303816000875af11580156121f7573d6000803e3d6000fd5b505050506040513d601f19601f8201168201806040525081019061221b9190613ed2565b90508160070154816000015111806122455750600382015461223e906002613e7e565b8260080154105b9250505090565b60006001600160e01b03198216637965db0b60e01b148061066557506301ffc9a760e01b6001600160e01b0319831614610665565b7f11daa6f94f95391c200e8721026efe26699a21dbe0ead47ee9562dd85a6e300090565b6122af8133613047565b50565b600060008051602061404e833981519152816122ce8585613080565b90508015611a2b5760008581526020839052604090206122ee908561312c565b50949350505050565b6000612301612281565b90508060070154826000015110156123695760405162461bcd60e51b815260206004820152602560248201527f496e7465726e616c206572726f723a2065706f6368206e756d62657220646563604482015264726561736560d81b6064820152608401610745565b60078101548251118015612381575060008160070154115b156123b45761238e613141565b6000600882015560048101546003820155600c810154600b820155600e810154600d8201555b5050565b600060008051602061404e833981519152816123d48585613196565b90508015611a2b5760008581526020839052604090206122ee9085613212565b61010061240361040080613e7e565b61240f90610400613e7e565b61241a906008613e7e565b6124249190613ebe565b82516124309190613f2c565b1561247d5760405162461bcd60e51b815260206004820152601d60248201527f537461727420706f736974696f6e206973206e6f7420616c69676e65640000006044820152606401610745565b60208201518251829161248f91613e95565b11156124d55760405162461bcd60e51b81526020600482015260156024820152744d696e696e672072616e6765206f766572666c6f7760581b6044820152606401610745565b60006124e083612b9b565b6101006124ef61040080613e7e565b6124fb90610400613e7e565b61250790610400613e7e565b612512906008613e7e565b61251c9190613ebe565b6125269190613e7e565b905080836020015111156125745760405162461bcd60e51b81526020600482015260156024820152744d696e696e672072616e676520746f6f206c6f6e6760581b6044820152606401610745565b60006125808383613227565b905080846020015110156125cf5760405162461bcd60e51b8152602060048201526016602482015275135a5b9a5b99c81c985b99d9481d1bdbc81cda1bdc9d60521b6044820152606401610745565b83606001518460400151166001600160401b031660001461109d5760405162461bcd60e51b815260206004820152601a60248201527f4d61736b656420626974732073686f756c64206265207a65726f0000000000006044820152606401610745565b6000816000015182602001518360400151846060015160405160200161267d949392919093845260208401929092526001600160401b03908116604084015216606082015260800190565b604051602081830303815290604052805190602001209050919050565b6126a2613875565b7f48c9bdf267e6096a3ba7ca8485ae67bb2bf894fe72f36e3cf1361d5f3af54fa581527fd182e6ad7f520e511f6c3e2b8c68059b6bbd41fbabd9831f79217e1319cde05b60208083019190915282519083015160408401516060850151610665938593909290916080600161323d565b61271a613875565b612722613856565b600061272d84613356565b905061275b8160406127426104006004613e7e565b61274c9190613ebe565b6127569088613e7e565b613372565b60005b60808110156127eb57604080832083528220602083015286816080811061278757612787614002565b60200201518251188382608081106127a1576127a1614002565b60200201528660018201608081106127bb576127bb614002565b60200201518260016020020151188382600101608081106127de576127de614002565b602002015260020161275e565b5061287e8160406127ff6104006004613e7e565b6128099190613ebe565b6001886128196104006010613e7e565b612827610400610100613e7e565b6128319190613ebe565b61283e6104006004613e7e565b61284c610400610100613e7e565b6128569190613ebe565b6128609190613ebe565b61286a9190613e52565b6128749190613e52565b6127569190613e7e565b61288781613356565b925050935093915050565b6000806101006128a461040082613e7e565b6128ae9190613ebe565b84602001516128bd9190613ebe565b6128c79084613f2c565b604085015160608601516020870151929350831617906101006128ec61040082613e7e565b6128f69190613ebe565b612909906001600160401b038416613e7e565b11156129575760405162461bcd60e51b815260206004820152601c60248201527f526563616c6c20706f736974696f6e206f7574206f6620626f756e64000000006044820152606401610745565b61010061296661040082613e7e565b6129709190613ebe565b612983906001600160401b038316613e7e565b855161298f9190613e95565b95945050505050565b60006129a2613875565b7f48c9bdf267e6096a3ba7ca8485ae67bb2bf894fe72f36e3cf1361d5f3af54fa581527fd182e6ad7f520e511f6c3e2b8c68059b6bbd41fbabd9831f79217e1319cde05b602080830191909152845190850151612a08918391889190600060808161323d565b9050612a12613893565b608060006020612a256104006004613e7e565b612a2f9190613ebe565b612a3a906020613e7e565b612a45906080613e95565b90506000601c8401601f8501602086016060870160e0880160e1890160f08a018d600c87538c51865260208d015160208701525b88198a8c101615612ae45760808b019a5060ff8b1684538a60081c835380518552602081015160208601526040810151604086015260608101516060860152608081019050898b03612aca57600182535b60408660d58a6009600019fa612adf57600198505b612a79565b50505050505050508015612b465760405162461bcd60e51b815260206004820152602360248201527f626c616b65326220696e7465726e616c206572726f7220617420506f524120686044820152620c2e6d60eb1b6064820152608401610745565b5050506020015195945050505050565b600061215b8383613393565b600080612b6d612281565b905080600a0154600003612b845760001991505090565b600a810154612b9590600019613ebe565b91505090565b606081015160009019815b6001600160401b03821615612bd657612bc0600183613f40565b9091169080612bce81614018565b915050612ba6565b600160ff9091161b9392505050565b612bed613856565b60408083015160c084015160808501519251612c1d93906020019283526020830191909152604082015260600190565b60408051808303601f19018152919052805160209182012060e0840180515190911883525190600090612c536104006004613e7e565b612c5d9190613ebe565b905081836020600184030281015b80821015610f6457602080842093810180519094189201918252612c6b565b6000805b6020612c9d6104006004613e7e565b612ca79190613ebe565b811015612cf5576101006020820284012080848360808110612ccb57612ccb614002565b602002018181525050506020610100612ce49190613ebe565b612cee9082613e95565b9050612c8e565b506000612d056020610100613ebe565b90505b6020612d176104006004613e7e565b612d219190613ebe565b811015612df45760005b6020612d3a6104006004613e7e565b612d449190613ebe565b811015612deb576000848260808110612d5f57612d5f614002565b60200201519050600085612d738585613e95565b60808110612d8357612d83614002565b602002015190508181604051602001612da6929190918252602082015260400190565b60405160208183030381529060405280519060200120868460808110612dce57612dce614002565b602002015250612de49050600183901b82613e95565b9050612d2b565b5060011b612d08565b508151612dff613856565b92506000610100612e136104006004613e7e565b612e1d9190613ebe565b8560800151612e2c9190613ebe565b905060005b85610100015151811015612ef357600080612e4d600285613f2c565b600003612e7d578491508761010001518381518110612e6e57612e6e614002565b60200260200101519050612ea2565b8761010001518381518110612e9457612e94614002565b602002602001015191508490505b6040805160208101849052908101829052606001604051602081830303815290604052805190602001209450600284612edb9190613ebe565b93505050600181612eec9190613e95565b9050612e31565b5090949350505050565b600080610100612f0f61040080613e7e565b612f1b90610400613e7e565b612f2790610400613e7e565b612f32906008613e7e565b612f3c9190613ebe565b8311612f485782612f84565b610100612f5761040080613e7e565b612f6390610400613e7e565b612f6f90610400613e7e565b612f7a906008613e7e565b612f849190613ebe565b90506000612f9185612b9b565b612f9b9085613ebe565b90506000610100612fae61040080613e7e565b612fba90610400613e7e565b612fc690610400613e7e565b612fd1906008613e7e565b612fdb9190613ebe565b8211612fe75781613023565b610100612ff661040080613e7e565b61300290610400613e7e565b61300e90610400613e7e565b613019906008613e7e565b6130239190613ebe565b905061303381604085901b613ebe565b9695505050505050565b6000610665825490565b6130518282611a33565b6123b45760405163e2517d3f60e01b81526001600160a01b038216600482015260248101839052604401610745565b600060008051602061408e83398151915261309b8484611a33565b61311b576000848152602082815260408083206001600160a01b03871684529091529020805460ff191660011790556130d13390565b6001600160a01b0316836001600160a01b0316857f2f8788117e7eff1d82e926ec794901d17c78024a50270940304540a733656f0d60405160405180910390a46001915050610665565b6000915050610665565b5092915050565b600061215b836001600160a01b0384166133bd565b600061314b612281565b90506000808260080154111561318357600060108360090154901c905061317b818460030154856008015461340c565b91505061318d565b506001600160f01b035b6123b4816134d0565b600060008051602061408e8339815191526131b18484611a33565b1561311b576000848152602082815260408083206001600160a01b0387168085529252808320805460ff1916905551339287917ff6391f5c32d9c69d2a47ea670b442974b53935d1edc7fd64eb21e047a839171b9190a46001915050610665565b600061215b836001600160a01b0384166135d0565b6000818310613236578161215b565b5090919050565b613245613875565b600c6000613252856136b9565b8a516020808d0151835184830151604080516001600160e01b031960e08b901b168187015260248101969096526044860193909352606485018f9052608485018e905260a485018d905260c485018c90526001600160c01b031991821660e48601521660ec84015287151560f81b60f4840152805160d58185038101825260f59094018252939450600092909187919085016009600019fa9050806000036133475760405162461bcd60e51b815260206004820152602260248201527f626c616b65326220696e7465726e616c206572726f7220617420626c616b6532604482015261312360f11b6064820152608401610745565b50505050979650505050505050565b61335e613875565b815181526020918201519181019190915290565b60005b81811015610950576040808420845283206020840152600101613375565b60008260000182815481106133aa576133aa614002565b9060005260206000200154905092915050565b600081815260018301602052604081205461340457508154600181810184556000848152602080822090930184905584548482528286019093526040902091909155610665565b506000610665565b60008383028160001985870982811083820303915050806000036134435783828161343957613439613ea8565b049250505061215b565b8084116134635760405163227bc15360e01b815260040160405180910390fd5b6000848688096000868103871696879004966002600389028118808a02820302808a02820302808a02820302808a02820302808a02820302808a02909103029181900381900460010186841190950394909402919094039290920491909117919091029150509392505050565b60006134da612281565b90507f000000000000000000000000000000000000000000000000000000000000000015613506575050565b6009810154600582015460109190911c9060008185613526600183613e52565b6135309086613e7e565b61353a9190613e95565b6135449190613ebe565b9050613551836002613e7e565b81111561356657613563836002613e7e565b90505b613571600284613ebe565b81101561358657613583600284613ebe565b90505b6001600160f01b0381111561359f57506001600160f01b035b601081901b600985015560006135b3612b62565b905080856009015411156113e75760098501819055505050505050565b6000818152600183016020526040812054801561311b5760006135f4600183613e52565b855490915060009061360890600190613e52565b905080821461366d57600086600001828154811061362857613628614002565b906000526020600020015490508087600001848154811061364b5761364b614002565b6000918252602080832090910192909255918252600188019052604090208390555b855486908061367e5761367e614037565b600190038181906000526020600020016000905590558560010160008681526020019081526020016000206000905560019350505050610665565b6136c1613875565b6201000082101561370557600882811c66ffffffffffffff169083901b67ffffffffffffff00161760f01b5b6001600160c01b031916815260006020820152919050565b64010000000082101561374557600882811b63ff00ff001662ff00ff9184901c9190911617601081811b91901c1760e01b6001600160e01b0319166136ed565b600160401b82101561375a576136ed826137f0565b600160801b8210156137aa576001600160401b038216604083901c61377e826137f0565b6001600160c01b0319168352613793816137f0565b6001600160c01b0319166020840152506137eb9050565b60405162461bcd60e51b8152602060048201526016602482015275626c616b65326220696e70757420746f6f206c6f6e6760501b6044820152606401610745565b919050565b65ff000000ff00600882811b91821664ff000000ff9390911c92831617601090811b67ff000000ff0000009290921666ff000000ff0000939093169290921790911c17602081811b6bffffffffffffffff000000001691901c63ffffffff161760c01b90565b6040518061100001604052806080906020820280368337509192915050565b60405180604001604052806002906020820280368337509192915050565b6040518061010001604052806008906020820280368337509192915050565b6000602082840312156138c457600080fd5b81356001600160e01b03198116811461215b57600080fd5b80356001600160a01b03811681146137eb57600080fd5b80356001600160401b03811681146137eb57600080fd5b6000806040838503121561391d57600080fd5b613926836138dc565b9150613934602084016138f3565b90509250929050565b60006020828403121561394f57600080fd5b5035919050565b634e487b7160e01b600052604160045260246000fd5b60405160c081016001600160401b038111828210171561398e5761398e613956565b60405290565b60405161012081016001600160401b038111828210171561398e5761398e613956565b60008060008385036101008112156139ce57600080fd5b6139d7856138dc565b93506139e5602086016138dc565b925060c0603f19820112156139f957600080fd5b50613a0261396c565b604085013581526060850135602082015260808501356040820152613a2960a086016138f3565b606082015260c0850135608082015260e09094013560a0850152509093909250565b600060208284031215613a5d57600080fd5b61215b826138f3565b60008060408385031215613a7957600080fd5b82359150613934602084016138dc565b600060808284031215613a9b57600080fd5b604051608081018181106001600160401b0382111715613abd57613abd613956565b80604052508091508235815260208301356020820152613adf604084016138f3565b6040820152613af0606084016138f3565b60608201525092915050565b600082601f830112613b0d57600080fd5b6040516110008082018281106001600160401b0382111715613b3157613b31613956565b60405283018185821115613b4457600080fd5b845b82811015613b5e578035825260209182019101613b46565b509195945050505050565b600082601f830112613b7a57600080fd5b813560206001600160401b0380831115613b9657613b96613956565b8260051b604051601f19603f83011681018181108482111715613bbb57613bbb613956565b604052938452858101830193838101925087851115613bd957600080fd5b83870191505b84821015613bf857813583529183019190830190613bdf565b979650505050505050565b60006111608284031215613c1657600080fd5b613c1e613994565b9050813581526020820135602082015260408201356040820152613c458360608401613a89565b606082015260e082013560808201526101008083013560a083015261012083013560c0830152613c79846101408501613afc565b60e08301526111408301356001600160401b03811115613c9857600080fd5b613ca485828601613b69565b82840152505092915050565b600060c08284031215613cc257600080fd5b613cca61396c565b9050813581526020820135602082015260408201356040820152606082013560608201526080820135608082015260a082013560a082015292915050565b60008060e08385031215613d1b57600080fd5b82356001600160401b03811115613d3157600080fd5b613d3d85828601613c03565b9250506139348460208501613cb0565b60008060e08385031215613d6057600080fd5b613d6a8484613cb0565b9460c0939093013593505050565b60008060408385031215613d8b57600080fd5b82356001600160401b03811115613da157600080fd5b613dad85828601613c03565b95602094909401359450505050565b60008060408385031215613dcf57600080fd5b50508035926020909101359150565b600060208284031215613df057600080fd5b81356001600160401b03811115613e0657600080fd5b611a2b84828501613c03565b60008060408385031215613e2557600080fd5b613e2e836138dc565b946020939093013593505050565b634e487b7160e01b600052601160045260246000fd5b8181038181111561066557610665613e3c565b600060208284031215613e7757600080fd5b5051919050565b808202811582820484141761066557610665613e3c565b8082018082111561066557610665613e3c565b634e487b7160e01b600052601260045260246000fd5b600082613ecd57613ecd613ea8565b500490565b600060c08284031215613ee457600080fd5b613eec61396c565b825181526020830151602082015260408301516040820152606083015160608201526080830151608082015260a083015160a08201528091505092915050565b600082613f3b57613f3b613ea8565b500690565b6001600160401b0382811682821603908082111561312557613125613e3c565b80516001600160801b03811681146137eb57600080fd5b600060408284031215613f8957600080fd5b604051604081018181106001600160401b0382111715613fab57613fab613956565b604052613fb783613f60565b8152613fc560208401613f60565b60208201529392505050565b60408101818360005b6002811015613ff9578151835260209283019290910190600101613fda565b50505092915050565b634e487b7160e01b600052603260045260246000fd5b600060ff821660ff810361402e5761402e613e3c565b60010192915050565b634e487b7160e01b600052603160045260246000fdfec1f6fe24621ce81ec5827caf0253cadb74709b061630e6b55e82371705932000b9d69e0ca90be54a40811e436234a7f7908b87ff2bec27e64f878b166da8e8e502dd7bc7dec4dceedda775e58dd541e08a116c6c53815c0bd028192f7b626800a2646970667358221220ead748fdf82183aa192da3d057b20f9fe4e087eae7fb3d4ea4efd175d78b0f8264736f6c63430008140033",
  "linkReferences": {},
  "deployedLinkReferences": {}
}