{
  "_format": "hh-sol-artifact-1",
  "contractName": "PoraMineTest",
  "sourceName": "contracts/test/PoraMineTest.sol",
  "abi": [
    {
      "inputs": [
        {
          "internalType": "uint256",
          "name": "settings",
          "type": "uint256"
        }
      ],
      "stateMutability": "nonpayable",
      "type": "constructor"
    },
    {
      "inputs": [],
      "name": "AccessControlBadConfirmation",
      "type": "error"
    },
    {
      "inputs": [
        {
          "internalType": "address",
          "name": "account",
          "type": "address"
        },
        {
          "internalType": "bytes32",
          "name": "neededRole",
          "type": "bytes32"
        }
      ],
      "name": "AccessControlUnauthorizedAccount",
      "type": "error"
    },
    {
      "inputs": [],
      "name": "InvalidInitialization",
      "type": "error"
    },
    {
      "inputs": [],
      "name": "MathOverflowedMulDiv",
      "type": "error"
    },
    {
      "inputs": [],
      "name": "NotInitializing",
      "type": "error"
    },
    {
      "anonymous": false,
      "inputs": [
        {
          "indexed": false,
          "internalType": "uint64",
          "name": "version",
          "type": "uint64"
        }
      ],
      "name": "Initialized",
      "type": "event"
    },
    {
      "anonymous": false,
      "inputs": [
        {
          "indexed": true,
          "internalType": "bytes32",
          "name": "minerId",
          "type": "bytes32"
        },
        {
          "indexed": true,
          "internalType": "address",
          "name": "beneficiary",
          "type": "address"
        }
      ],
      "name": "NewMinerId",
      "type": "event"
    },
    {
      "anonymous": false,
      "inputs": [
        {
          "indexed": true,
          "internalType": "uint256",
          "name": "epoch",
          "type": "uint256"
        },
        {
          "indexed": true,
          "internalType": "bytes32",
          "name": "minerId",
          "type": "bytes32"
        },
        {
          "indexed": false,
          "internalType": "uint256",
          "name": "epochIndex",
          "type": "uint256"
        },
        {
          "indexed": false,
          "internalType": "uint256",
          "name": "recallPosition",
          "type": "uint256"
        }
      ],
      "name": "NewSubmission",
      "type": "event"
    },
    {
      "anonymous": false,
      "inputs": [
        {
          "indexed": true,
          "internalType": "bytes32",
          "name": "role",
          "type": "bytes32"
        },
        {
          "indexed": true,
          "internalType": "bytes32",
          "name": "previousAdminRole",
          "type": "bytes32"
        },
        {
          "indexed": true,
          "internalType": "bytes32",
          "name": "newAdminRole",
          "type": "bytes32"
        }
      ],
      "name": "RoleAdminChanged",
      "type": "event"
    },
    {
      "anonymous": false,
      "inputs": [
        {
          "indexed": true,
          "internalType": "bytes32",
          "name": "role",
          "type": "bytes32"
        },
        {
          "indexed": true,
          "internalType": "address",
          "name": "account",
          "type": "address"
        },
        {
          "indexed": true,
          "internalType": "address",
          "name": "sender",
          "type": "address"
        }
      ],
      "name": "RoleGranted",
      "type": "event"
    },
    {
      "anonymous": false,
      "inputs": [
        {
          "indexed": true,
          "internalType": "bytes32",
          "name": "role",
          "type": "bytes32"
        },
        {
          "indexed": true,
          "internalType": "address",
          "name": "account",
          "type": "address"
        },
        {
          "indexed": true,
          "internalType": "address",
          "name": "sender",
          "type": "address"
        }
      ],
      "name": "RoleRevoked",
      "type": "event"
    },
    {
      "anonymous": false,
      "inputs": [
        {
          "indexed": true,
          "internalType": "bytes32",
          "name": "minerId",
          "type": "bytes32"
        },
        {
          "indexed": true,
          "internalType": "address",
          "name": "from",
          "type": "address"
        },
        {
          "indexed": true,
          "internalType": "address",
          "name": "to",
          "type": "address"
        }
      ],
      "name": "UpdateMinerId",
      "type": "event"
    },
    {
      "inputs": [],
      "name": "DEFAULT_ADMIN_ROLE",
      "outputs": [
        {
          "internalType": "bytes32",
          "name": "",
          "type": "bytes32"
        }
      ],
      "stateMutability": "view",
      "type": "function"
    },
    {
      "inputs": [],
      "name": "PARAMS_ADMIN_ROLE",
      "outputs": [
        {
          "internalType": "bytes32",
          "name": "",
          "type": "bytes32"
        }
      ],
      "stateMutability": "view",
      "type": "function"
    },
    {
      "inputs": [
        {
          "components": [
            {
              "internalType": "bytes32",
              "name": "contextDigest",
              "type": "bytes32"
            },
            {
              "internalType": "bytes32",
              "name": "nonce",
              "type": "bytes32"
            },
            {
              "internalType": "bytes32",
              "name": "minerId",
              "type": "bytes32"
            },
            {
              "components": [
                {
                  "internalType": "uint256",
                  "name": "startPosition",
                  "type": "uint256"
                },
                {
                  "internalType": "uint256",
                  "name": "mineLength",
                  "type": "uint256"
                },
                {
                  "internalType": "uint64",
                  "name": "shardId",
                  "type": "uint64"
                },
                {
                  "internalType": "uint64",
                  "name": "shardMask",
                  "type": "uint64"
                }
              ],
              "internalType": "struct RecallRange",
              "name": "range",
              "type": "tuple"
            },
            {
              "internalType": "uint256",
              "name": "recallPosition",
              "type": "uint256"
            },
            {
              "internalType": "uint256",
              "name": "sealOffset",
              "type": "uint256"
            },
            {
              "internalType": "bytes32",
              "name": "sealedContextDigest",
              "type": "bytes32"
            },
            {
              "internalType": "bytes32[128]",
              "name": "sealedData",
              "type": "bytes32[128]"
            },
            {
              "internalType": "bytes32[]",
              "name": "merkleProof",
              "type": "bytes32[]"
            }
          ],
          "internalType": "struct MineLib.PoraAnswer",
          "name": "answer",
          "type": "tuple"
        },
        {
          "components": [
            {
              "internalType": "uint256",
              "name": "epoch",
              "type": "uint256"
            },
            {
              "internalType": "uint256",
              "name": "mineStart",
              "type": "uint256"
            },
            {
              "internalType": "bytes32",
              "name": "flowRoot",
              "type": "bytes32"
            },
            {
              "internalType": "uint256",
              "name": "flowLength",
              "type": "uint256"
            },
            {
              "internalType": "bytes32",
              "name": "blockDigest",
              "type": "bytes32"
            },
            {
              "internalType": "bytes32",
              "name": "digest",
              "type": "bytes32"
            }
          ],
          "internalType": "struct MineContext",
          "name": "context",
          "type": "tuple"
        }
      ],
      "name": "basicCheck",
      "outputs": [],
      "stateMutability": "view",
      "type": "function"
    },
    {
      "inputs": [
        {
          "internalType": "bytes32",
          "name": "digest",
          "type": "bytes32"
        }
      ],
      "name": "beneficiaries",
      "outputs": [
        {
          "internalType": "address",
          "name": "",
          "type": "address"
        }
      ],
      "stateMutability": "view",
      "type": "function"
    },
    {
      "inputs": [],
      "name": "canSubmit",
      "outputs": [
        {
          "internalType": "bool",
          "name": "",
          "type": "bool"
        }
      ],
      "stateMutability": "nonpayable",
      "type": "function"
    },
    {
      "inputs": [
        {
          "internalType": "bytes32",
          "name": "minerId",
          "type": "bytes32"
        }
      ],
      "name": "computeWorkerContext",
      "outputs": [
        {
          "components": [
            {
              "components": [
                {
                  "internalType": "uint256",
                  "name": "epoch",
                  "type": "uint256"
                },
                {
                  "internalType": "uint256",
                  "name": "mineStart",
                  "type": "uint256"
                },
                {
                  "internalType": "bytes32",
                  "name": "flowRoot",
                  "type": "bytes32"
                },
                {
                  "internalType": "uint256",
                  "name": "flowLength",
                  "type": "uint256"
                },
                {
                  "internalType": "bytes32",
                  "name": "blockDigest",
                  "type": "bytes32"
                },
                {
                  "internalType": "bytes32",
                  "name": "digest",
                  "type": "bytes32"
                }
              ],
              "internalType": "struct MineContext",
              "name": "context",
              "type": "tuple"
            },
            {
              "internalType": "uint256",
              "name": "poraTarget",
              "type": "uint256"
            },
            {
              "internalType": "bytes32",
              "name": "subtaskDigest",
              "type": "bytes32"
            },
            {
              "internalType": "uint64",
              "name": "maxShards",
              "type": "uint64"
            }
          ],
          "internalType": "struct WorkerContext",
          "name": "answer",
          "type": "tuple"
        }
      ],
      "stateMutability": "nonpayable",
      "type": "function"
    },
    {
      "inputs": [],
      "name": "computeWorkerContextCaller",
      "outputs": [
        {
          "internalType": "address",
          "name": "",
          "type": "address"
        }
      ],
      "stateMutability": "pure",
      "type": "function"
    },
    {
      "inputs": [],
      "name": "currentSubmissions",
      "outputs": [
        {
          "internalType": "uint256",
          "name": "",
          "type": "uint256"
        }
      ],
      "stateMutability": "view",
      "type": "function"
    },
    {
      "inputs": [],
      "name": "dataProofEnabled",
      "outputs": [
        {
          "internalType": "bool",
          "name": "",
          "type": "bool"
        }
      ],
      "stateMutability": "view",
      "type": "function"
    },
    {
      "inputs": [],
      "name": "difficultyAdjustRatio",
      "outputs": [
        {
          "internalType": "uint256",
          "name": "",
          "type": "uint256"
        }
      ],
      "stateMutability": "view",
      "type": "function"
    },
    {
      "inputs": [],
      "name": "fixedDifficulty",
      "outputs": [
        {
          "internalType": "bool",
          "name": "",
          "type": "bool"
        }
      ],
      "stateMutability": "view",
      "type": "function"
    },
    {
      "inputs": [],
      "name": "flow",
      "outputs": [
        {
          "internalType": "address",
          "name": "",
          "type": "address"
        }
      ],
      "stateMutability": "view",
      "type": "function"
    },
    {
      "inputs": [
        {
          "internalType": "bytes32",
          "name": "role",
          "type": "bytes32"
        }
      ],
      "name": "getRoleAdmin",
      "outputs": [
        {
          "internalType": "bytes32",
          "name": "",
          "type": "bytes32"
        }
      ],
      "stateMutability": "view",
      "type": "function"
    },
    {
      "inputs": [
        {
          "internalType": "bytes32",
          "name": "role",
          "type": "bytes32"
        },
        {
          "internalType": "uint256",
          "name": "index",
          "type": "uint256"
        }
      ],
      "name": "getRoleMember",
      "outputs": [
        {
          "internalType": "address",
          "name": "",
          "type": "address"
        }
      ],
      "stateMutability": "view",
      "type": "function"
    },
    {
      "inputs": [
        {
          "internalType": "bytes32",
          "name": "role",
          "type": "bytes32"
        }
      ],
      "name": "getRoleMemberCount",
      "outputs": [
        {
          "internalType": "uint256",
          "name": "",
          "type": "uint256"
        }
      ],
      "stateMutability": "view",
      "type": "function"
    },
    {
      "inputs": [
        {
          "components": [
            {
              "internalType": "uint256",
              "name": "epoch",
              "type": "uint256"
            },
            {
              "internalType": "uint256",
              "name": "mineStart",
              "type": "uint256"
            },
            {
              "internalType": "bytes32",
              "name": "flowRoot",
              "type": "bytes32"
            },
            {
              "internalType": "uint256",
              "name": "flowLength",
              "type": "uint256"
            },
            {
              "internalType": "bytes32",
              "name": "blockDigest",
              "type": "bytes32"
            },
            {
              "internalType": "bytes32",
              "name": "digest",
              "type": "bytes32"
            }
          ],
          "internalType": "struct MineContext",
          "name": "context",
          "type": "tuple"
        },
        {
          "internalType": "bytes32",
          "name": "minerId",
          "type": "bytes32"
        }
      ],
      "name": "getSubtaskDigest",
      "outputs": [
        {
          "internalType": "bytes32",
          "name": "",
          "type": "bytes32"
        }
      ],
      "stateMutability": "view",
      "type": "function"
    },
    {
      "inputs": [
        {
          "internalType": "bytes32",
          "name": "role",
          "type": "bytes32"
        },
        {
          "internalType": "address",
          "name": "account",
          "type": "address"
        }
      ],
      "name": "grantRole",
      "outputs": [],
      "stateMutability": "nonpayable",
      "type": "function"
    },
    {
      "inputs": [
        {
          "internalType": "bytes32",
          "name": "role",
          "type": "bytes32"
        },
        {
          "internalType": "address",
          "name": "account",
          "type": "address"
        }
      ],
      "name": "hasRole",
      "outputs": [
        {
          "internalType": "bool",
          "name": "",
          "type": "bool"
        }
      ],
      "stateMutability": "view",
      "type": "function"
    },
    {
      "inputs": [
        {
          "internalType": "address",
          "name": "flow_",
          "type": "address"
        },
        {
          "internalType": "address",
          "name": "reward_",
          "type": "address"
        },
        {
          "components": [
            {
              "internalType": "uint256",
              "name": "difficulty",
              "type": "uint256"
            },
            {
              "internalType": "uint256",
              "name": "targetMineBlocks",
              "type": "uint256"
            },
            {
              "internalType": "uint256",
              "name": "targetSubmissions",
              "type": "uint256"
            },
            {
              "internalType": "uint64",
              "name": "maxShards",
              "type": "uint64"
            },
            {
              "internalType": "uint256",
              "name": "nSubtasks",
              "type": "uint256"
            },
            {
              "internalType": "uint256",
              "name": "subtaskInterval",
              "type": "uint256"
            }
          ],
          "internalType": "struct PoraMine.MineInitParams",
          "name": "params",
          "type": "tuple"
        }
      ],
      "name": "initialize",
      "outputs": [],
      "stateMutability": "nonpayable",
      "type": "function"
    },
    {
      "inputs": [],
      "name": "lastMinedEpoch",
      "outputs": [
        {
          "internalType": "uint256",
          "name": "",
          "type": "uint256"
        }
      ],
      "stateMutability": "view",
      "type": "function"
    },
    {
      "inputs": [],
      "name": "maxShards",
      "outputs": [
        {
          "internalType": "uint64",
          "name": "",
          "type": "uint64"
        }
      ],
      "stateMutability": "view",
      "type": "function"
    },
    {
      "inputs": [],
      "name": "minDifficulty",
      "outputs": [
        {
          "internalType": "uint256",
          "name": "",
          "type": "uint256"
        }
      ],
      "stateMutability": "view",
      "type": "function"
    },
    {
      "inputs": [],
      "name": "nSubtasks",
      "outputs": [
        {
          "internalType": "uint256",
          "name": "",
          "type": "uint256"
        }
      ],
      "stateMutability": "view",
      "type": "function"
    },
    {
      "inputs": [],
      "name": "nSubtasksNextEpoch",
      "outputs": [
        {
          "internalType": "uint256",
          "name": "",
          "type": "uint256"
        }
      ],
      "stateMutability": "view",
      "type": "function"
    },
    {
      "inputs": [
        {
          "components": [
            {
              "internalType": "bytes32",
              "name": "contextDigest",
              "type": "bytes32"
            },
            {
              "internalType": "bytes32",
              "name": "nonce",
              "type": "bytes32"
            },
            {
              "internalType": "bytes32",
              "name": "minerId",
              "type": "bytes32"
            },
            {
              "components": [
                {
                  "internalType": "uint256",
                  "name": "startPosition",
                  "type": "uint256"
                },
                {
                  "internalType": "uint256",
                  "name": "mineLength",
                  "type": "uint256"
                },
                {
                  "internalType": "uint64",
                  "name": "shardId",
                  "type": "uint64"
                },
                {
                  "internalType": "uint64",
                  "name": "shardMask",
                  "type": "uint64"
                }
              ],
              "internalType": "struct RecallRange",
              "name": "range",
              "type": "tuple"
            },
            {
              "internalType": "uint256",
              "name": "recallPosition",
              "type": "uint256"
            },
            {
              "internalType": "uint256",
              "name": "sealOffset",
              "type": "uint256"
            },
            {
              "internalType": "bytes32",
              "name": "sealedContextDigest",
              "type": "bytes32"
            },
            {
              "internalType": "bytes32[128]",
              "name": "sealedData",
              "type": "bytes32[128]"
            },
            {
              "internalType": "bytes32[]",
              "name": "merkleProof",
              "type": "bytes32[]"
            }
          ],
          "internalType": "struct MineLib.PoraAnswer",
          "name": "answer",
          "type": "tuple"
        },
        {
          "internalType": "bytes32",
          "name": "subtaskDigest",
          "type": "bytes32"
        }
      ],
      "name": "pora",
      "outputs": [
        {
          "internalType": "bytes32",
          "name": "",
          "type": "bytes32"
        }
      ],
      "stateMutability": "view",
      "type": "function"
    },
    {
      "inputs": [],
      "name": "poraTarget",
      "outputs": [
        {
          "internalType": "uint256",
          "name": "",
          "type": "uint256"
        }
      ],
      "stateMutability": "view",
      "type": "function"
    },
    {
      "inputs": [],
      "name": "poraVersion",
      "outputs": [
        {
          "internalType": "uint64",
          "name": "",
          "type": "uint64"
        }
      ],
      "stateMutability": "pure",
      "type": "function"
    },
    {
      "inputs": [
        {
          "components": [
            {
              "internalType": "bytes32",
              "name": "contextDigest",
              "type": "bytes32"
            },
            {
              "internalType": "bytes32",
              "name": "nonce",
              "type": "bytes32"
            },
            {
              "internalType": "bytes32",
              "name": "minerId",
              "type": "bytes32"
            },
            {
              "components": [
                {
                  "internalType": "uint256",
                  "name": "startPosition",
                  "type": "uint256"
                },
                {
                  "internalType": "uint256",
                  "name": "mineLength",
                  "type": "uint256"
                },
                {
                  "internalType": "uint64",
                  "name": "shardId",
                  "type": "uint64"
                },
                {
                  "internalType": "uint64",
                  "name": "shardMask",
                  "type": "uint64"
                }
              ],
              "internalType": "struct RecallRange",
              "name": "range",
              "type": "tuple"
            },
            {
              "internalType": "uint256",
              "name": "recallPosition",
              "type": "uint256"
            },
            {
              "internalType": "uint256",
              "name": "sealOffset",
              "type": "uint256"
            },
            {
              "internalType": "bytes32",
              "name": "sealedContextDigest",
              "type": "bytes32"
            },
            {
              "internalType": "bytes32[128]",
              "name": "sealedData",
              "type": "bytes32[128]"
            },
            {
              "internalType": "bytes32[]",
              "name": "merkleProof",
              "type": "bytes32[]"
            }
          ],
          "internalType": "struct MineLib.PoraAnswer",
          "name": "answer",
          "type": "tuple"
        },
        {
          "internalType": "bytes32[128]",
          "name": "unsealedData",
          "type": "bytes32[128]"
        }
      ],
      "name": "recoverMerkleRoot",
      "outputs": [
        {
          "internalType": "bytes32",
          "name": "",
          "type": "bytes32"
        }
      ],
      "stateMutability": "pure",
      "type": "function"
    },
    {
      "inputs": [
        {
          "internalType": "bytes32",
          "name": "role",
          "type": "bytes32"
        },
        {
          "internalType": "address",
          "name": "callerConfirmation",
          "type": "address"
        }
      ],
      "name": "renounceRole",
      "outputs": [],
      "stateMutability": "nonpayable",
      "type": "function"
    },
    {
      "inputs": [
        {
          "internalType": "address",
          "name": "beneficiary",
          "type": "address"
        },
        {
          "internalType": "uint64",
          "name": "seed",
          "type": "uint64"
        }
      ],
      "name": "requestMinerId",
      "outputs": [],
      "stateMutability": "nonpayable",
      "type": "function"
    },
    {
      "inputs": [
        {
          "internalType": "bytes32",
          "name": "role",
          "type": "bytes32"
        },
        {
          "internalType": "address",
          "name": "account",
          "type": "address"
        }
      ],
      "name": "revokeRole",
      "outputs": [],
      "stateMutability": "nonpayable",
      "type": "function"
    },
    {
      "inputs": [],
      "name": "reward",
      "outputs": [
        {
          "internalType": "address",
          "name": "",
          "type": "address"
        }
      ],
      "stateMutability": "view",
      "type": "function"
    },
    {
      "inputs": [],
      "name": "sealDataEnabled",
      "outputs": [
        {
          "internalType": "bool",
          "name": "",
          "type": "bool"
        }
      ],
      "stateMutability": "view",
      "type": "function"
    },
    {
      "inputs": [
        {
          "internalType": "uint256",
          "name": "difficultyAdjustRatio_",
          "type": "uint256"
        }
      ],
      "name": "setDifficultyAdjustRatio",
      "outputs": [],
      "stateMutability": "nonpayable",
      "type": "function"
    },
    {
      "inputs": [
        {
          "internalType": "uint64",
          "name": "maxShards_",
          "type": "uint64"
        }
      ],
      "name": "setMaxShards",
      "outputs": [],
      "stateMutability": "nonpayable",
      "type": "function"
    },
    {
      "inputs": [
        {
          "internalType": "uint256",
          "name": "minDifficulty_",
          "type": "uint256"
        }
      ],
      "name": "setMinDifficulty",
      "outputs": [],
      "stateMutability": "nonpayable",
      "type": "function"
    },
    {
      "inputs": [
        {
          "internalType": "bytes32",
          "name": "minerId",
          "type": "bytes32"
        }
      ],
      "name": "setMiner",
      "outputs": [],
      "stateMutability": "nonpayable",
      "type": "function"
    },
    {
      "inputs": [
        {
          "internalType": "uint256",
          "name": "nSubtasks_",
          "type": "uint256"
        }
      ],
      "name": "setNumSubtasks",
      "outputs": [],
      "stateMutability": "nonpayable",
      "type": "function"
    },
    {
      "inputs": [
        {
          "internalType": "uint256",
          "name": "_targetQuality",
          "type": "uint256"
        }
      ],
      "name": "setQuality",
      "outputs": [],
      "stateMutability": "nonpayable",
      "type": "function"
    },
    {
      "inputs": [
        {
          "internalType": "uint256",
          "name": "subtaskInterval_",
          "type": "uint256"
        }
      ],
      "name": "setSubtaskInterval",
      "outputs": [],
      "stateMutability": "nonpayable",
      "type": "function"
    },
    {
      "inputs": [
        {
          "internalType": "uint256",
          "name": "targetMineBlocks_",
          "type": "uint256"
        }
      ],
      "name": "setTargetMineBlocks",
      "outputs": [],
      "stateMutability": "nonpayable",
      "type": "function"
    },
    {
      "inputs": [
        {
          "internalType": "uint256",
          "name": "targetSubmissions_",
          "type": "uint256"
        }
      ],
      "name": "setTargetSubmissions",
      "outputs": [],
      "stateMutability": "nonpayable",
      "type": "function"
    },
    {
      "inputs": [
        {
          "components": [
            {
              "internalType": "bytes32",
              "name": "contextDigest",
              "type": "bytes32"
            },
            {
              "internalType": "bytes32",
              "name": "nonce",
              "type": "bytes32"
            },
            {
              "internalType": "bytes32",
              "name": "minerId",
              "type": "bytes32"
            },
            {
              "components": [
                {
                  "internalType": "uint256",
                  "name": "startPosition",
                  "type": "uint256"
                },
                {
                  "internalType": "uint256",
                  "name": "mineLength",
                  "type": "uint256"
                },
                {
                  "internalType": "uint64",
                  "name": "shardId",
                  "type": "uint64"
                },
                {
                  "internalType": "uint64",
                  "name": "shardMask",
                  "type": "uint64"
                }
              ],
              "internalType": "struct RecallRange",
              "name": "range",
              "type": "tuple"
            },
            {
              "internalType": "uint256",
              "name": "recallPosition",
              "type": "uint256"
            },
            {
              "internalType": "uint256",
              "name": "sealOffset",
              "type": "uint256"
            },
            {
              "internalType": "bytes32",
              "name": "sealedContextDigest",
              "type": "bytes32"
            },
            {
              "internalType": "bytes32[128]",
              "name": "sealedData",
              "type": "bytes32[128]"
            },
            {
              "internalType": "bytes32[]",
              "name": "merkleProof",
              "type": "bytes32[]"
            }
          ],
          "internalType": "struct MineLib.PoraAnswer",
          "name": "answer",
          "type": "tuple"
        }
      ],
      "name": "submit",
      "outputs": [],
      "stateMutability": "nonpayable",
      "type": "function"
    },
    {
      "inputs": [],
      "name": "subtaskInterval",
      "outputs": [
        {
          "internalType": "uint256",
          "name": "",
          "type": "uint256"
        }
      ],
      "stateMutability": "view",
      "type": "function"
    },
    {
      "inputs": [],
      "name": "subtaskIntervalNextEpoch",
      "outputs": [
        {
          "internalType": "uint256",
          "name": "",
          "type": "uint256"
        }
      ],
      "stateMutability": "view",
      "type": "function"
    },
    {
      "inputs": [
        {
          "internalType": "bytes4",
          "name": "interfaceId",
          "type": "bytes4"
        }
      ],
      "name": "supportsInterface",
      "outputs": [
        {
          "internalType": "bool",
          "name": "",
          "type": "bool"
        }
      ],
      "stateMutability": "view",
      "type": "function"
    },
    {
      "inputs": [],
      "name": "targetMineBlocks",
      "outputs": [
        {
          "internalType": "uint256",
          "name": "",
          "type": "uint256"
        }
      ],
      "stateMutability": "view",
      "type": "function"
    },
    {
      "inputs": [],
      "name": "targetSubmissions",
      "outputs": [
        {
          "internalType": "uint256",
          "name": "",
          "type": "uint256"
        }
      ],
      "stateMutability": "view",
      "type": "function"
    },
    {
      "inputs": [],
      "name": "targetSubmissionsNextEpoch",
      "outputs": [
        {
          "internalType": "uint256",
          "name": "",
          "type": "uint256"
        }
      ],
      "stateMutability": "view",
      "type": "function"
    },
    {
      "inputs": [
        {
          "components": [
            {
              "internalType": "bytes32",
              "name": "contextDigest",
              "type": "bytes32"
            },
            {
              "internalType": "bytes32",
              "name": "nonce",
              "type": "bytes32"
            },
            {
              "internalType": "bytes32",
              "name": "minerId",
              "type": "bytes32"
            },
            {
              "components": [
                {
                  "internalType": "uint256",
                  "name": "startPosition",
                  "type": "uint256"
                },
                {
                  "internalType": "uint256",
                  "name": "mineLength",
                  "type": "uint256"
                },
                {
                  "internalType": "uint64",
                  "name": "shardId",
                  "type": "uint64"
                },
                {
                  "internalType": "uint64",
                  "name": "shardMask",
                  "type": "uint64"
                }
              ],
              "internalType": "struct RecallRange",
              "name": "range",
              "type": "tuple"
            },
            {
              "internalType": "uint256",
              "name": "recallPosition",
              "type": "uint256"
            },
            {
              "internalType": "uint256",
              "name": "sealOffset",
              "type": "uint256"
            },
            {
              "internalType": "bytes32",
              "name": "sealedContextDigest",
              "type": "bytes32"
            },
            {
              "internalType": "bytes32[128]",
              "name": "sealedData",
              "type": "bytes32[128]"
            },
            {
              "internalType": "bytes32[]",
              "name": "merkleProof",
              "type": "bytes32[]"
            }
          ],
          "internalType": "struct MineLib.PoraAnswer",
          "name": "answer",
          "type": "tuple"
        },
        {
          "internalType": "bytes32",
          "name": "subtaskDigest",
          "type": "bytes32"
        }
      ],
      "name": "testAll",
      "outputs": [],
      "stateMutability": "view",
      "type": "function"
    },
    {
      "inputs": [
        {
          "internalType": "address",
          "name": "to",
          "type": "address"
        },
        {
          "internalType": "bytes32",
          "name": "minerId",
          "type": "bytes32"
        }
      ],
      "name": "transferBeneficial",
      "outputs": [],
      "stateMutability": "nonpayable",
      "type": "function"
    },
    {
      "inputs": [
        {
          "components": [
            {
              "internalType": "bytes32",
              "name": "contextDigest",
              "type": "bytes32"
            },
            {
              "internalType": "bytes32",
              "name": "nonce",
              "type": "bytes32"
            },
            {
              "internalType": "bytes32",
              "name": "minerId",
              "type": "bytes32"
            },
            {
              "components": [
                {
                  "internalType": "uint256",
                  "name": "startPosition",
                  "type": "uint256"
                },
                {
                  "internalType": "uint256",
                  "name": "mineLength",
                  "type": "uint256"
                },
                {
                  "internalType": "uint64",
                  "name": "shardId",
                  "type": "uint64"
                },
                {
                  "internalType": "uint64",
                  "name": "shardMask",
                  "type": "uint64"
                }
              ],
              "internalType": "struct RecallRange",
              "name": "range",
              "type": "tuple"
            },
            {
              "internalType": "uint256",
              "name": "recallPosition",
              "type": "uint256"
            },
            {
              "internalType": "uint256",
              "name": "sealOffset",
              "type": "uint256"
            },
            {
              "internalType": "bytes32",
              "name": "sealedContextDigest",
              "type": "bytes32"
            },
            {
              "internalType": "bytes32[128]",
              "name": "sealedData",
              "type": "bytes32[128]"
            },
            {
              "internalType": "bytes32[]",
              "name": "merkleProof",
              "type": "bytes32[]"
            }
          ],
          "internalType": "struct MineLib.PoraAnswer",
          "name": "answer",
          "type": "tuple"
        }
      ],
      "name": "unseal",
      "outputs": [
        {
          "internalType": "bytes32[128]",
          "name": "unsealedData",
          "type": "bytes32[128]"
        }
      ],
      "stateMutability": "pure",
      "type": "function"
    }
  ],
  "bytecode": "0x60e06040523480156200001157600080fd5b506040516200438838038062004388833981016040819052620000349162000052565b60016004909117818116156080526002161560a05260c0526200006c565b6000602082840312156200006557600080fd5b5051919050565b60805160a05160c0516142d0620000b86000396000818161056401528181610c21015261365c0152600081816105930152611e720152600081816106390152611dc201526142d06000f3fe608060405234801561001057600080fd5b506004361061030c5760003560e01c80637eca56881161019d578063af31f914116100e9578063c10a7297116100a2578063dddc61a81161007c578063dddc61a8146106f9578063e1498cf914610701578063e282e27b14610714578063ffbc9bd01461071b57600080fd5b8063c10a7297146106cc578063ca15c873146106d3578063d547741f146106e657600080fd5b8063af31f9141461066e578063b0628ee014610681578063b15d20da14610694578063b4a93283146106a9578063b51e0397146106b1578063b776a512146106c457600080fd5b806391d1485411610156578063a827918211610130578063a827918214610619578063ad08fdfb14610621578063adaa7a0f14610634578063ae722e821461065b57600080fd5b806391d14854146105f65780639dc787a214610609578063a217fddf1461061157600080fd5b80637eca56881461058657806382975fe71461058e57806384f96bb6146105b55780638c0bca06146105c85780638f375b36146105db5780639010d07c146105e357600080fd5b806331223ba71161025c57806348f61441116102155780636e9bb60b116101ef5780636e9bb60b14610526578063704d3c961461053957806378203ab61461054c5780637bba7d611461055f57600080fd5b806348f61441146104eb57806359e7b5be146104f35780635bdca8551461051357600080fd5b806331223ba71461049a578063331f3b9c146104a2578063343aad82146104aa57806336568abe146104b257806339cd53ee146104c55780633baebb75146104d857600080fd5b806316a4be6f116102c957806328812dbf116102a357806328812dbf146103e5578063296beba7146103f85780632a02573b146104745780632f2ff15d1461048757600080fd5b806316a4be6f14610392578063228cb733146103b2578063248a9ca3146103d257600080fd5b806301ffc9a7146103115780630367e2dd14610339578063047c13f51461034f5780630c655e1f146103645780630e2410ff146103775780631600c6241461037f575b600080fd5b61032461031f366004613a30565b610723565b60405190151581526020015b60405180910390f35b61034161074e565b604051908152602001610330565b61036261035d366004613a88565b610761565b005b610362610372366004613abb565b61088e565b610341610a38565b61036261038d366004613abb565b610a4b565b61039a610aca565b6040516001600160401b039091168152602001610330565b6103ba610ae6565b6040516001600160a01b039091168152602001610330565b6103416103e0366004613abb565b610b02565b6103626103f3366004613b35565b610b24565b61040b610406366004613abb565b610d38565b60408051825180518252602080820151818401528184015183850152606080830151818501526080808401519085015260a0928301519284019290925284015160c08301529183015160e08201529101516001600160401b031661010082015261012001610330565b610362610482366004613bc9565b611051565b610362610495366004613be4565b611164565b610341611186565b610341611199565b6103ba6111ac565b6103626104c0366004613be4565b6111c5565b6103ba6104d3366004613abb565b6111f8565b6103626104e6366004613e86565b61121f565b6103416114d2565b610506610501366004613ecb565b6114e5565b6040516103309190613eff565b610362610521366004613abb565b6114f6565b610341610534366004613f31565b611538565b610362610547366004613abb565b61154b565b61034161055a366004613f77565b6115c9565b6103247f000000000000000000000000000000000000000000000000000000000000000081565b61034161173e565b6103247f000000000000000000000000000000000000000000000000000000000000000081565b6103626105c3366004613abb565b611751565b6103416105d6366004613fa2565b6118f8565b610341611af8565b6103ba6105f1366004613fe6565b611b0b565b610324610604366004613be4565b611b3a565b610341611b72565b610341600081565b610341611b85565b61036261062f366004613abb565b611b98565b6103247f000000000000000000000000000000000000000000000000000000000000000081565b610362610669366004613ecb565b611be6565b61036261067c366004613fa2565b612144565b61036261068f366004614008565b612170565b61034160008051602061425b83398151915281565b610341612242565b6103626106bf366004613abb565b612255565b610341612261565b600a6103ba565b6103416106e1366004613abb565b612274565b6103626106f4366004613be4565b61229a565b6103416122b6565b61036261070f366004613abb565b6122c9565b600161039a565b6103246122d2565b60006001600160e01b03198216635a05180f60e01b148061074857506107488261238d565b92915050565b60006107586123c2565b600c0154905090565b600061076b6123c2565b9050600061077a600143614048565b60408051914060208301526bffffffffffffffffffffffff193360601b16908201526001600160c01b031960c085901b166054820152605c0160408051601f1981840301815291815281516020928301206000818152601086019093529120549091506001600160a01b0316156108315760405162461bcd60e51b8152602060048201526016602482015275135a5b995c9259081a185cc81c9959da5cdd195c995960521b60448201526064015b60405180910390fd5b600081815260108301602052604080822080546001600160a01b0319166001600160a01b0388169081179091559051909183917fbfeb006f16aca8eb3d9953cf44db6b11b6f3041a313875dfa18f2e9d71bd309e9190a350505050565b60008051602061425b8339815191526108a6816123e6565b60006108b06123c2565b90506000831161090c5760405162461bcd60e51b815260206004820152602160248201527f4e756d626572206f66207375627461736b732063616e6e6f74206265207a65726044820152606f60f81b6064820152608401610828565b805460408051633c1a081560e21b815290516001600160a01b039092169163f0682054916004808201926020929091908290030181865afa158015610955573d6000803e3d6000fd5b505050506040513d601f19601f82011682018060405250810190610979919061405b565b6002820154600e83015461098e600187614048565b6109989190614074565b6109a2919061408b565b6109ad90600161408b565b10610a185760405162461bcd60e51b815260206004820152603560248201527f4e756d626572206f66207375627461736b73206d757374206265206c657373206044820152740e8d0c2dc40c4d8dec6d6e640e0cae440cae0dec6d605b1b6064820152608401610828565b600c81018390556007810154600003610a3357600b81018390555b505050565b6000610a426123c2565b600e0154905090565b60008051602061425b833981519152610a63816123e6565b610100821115610ab55760405162461bcd60e51b815260206004820152601d60248201527f746172676574206d696e6520626c6f636b206d757374203c3d203235360000006044820152606401610828565b6000610abf6123c2565b600201929092555050565b6000610ad46123c2565b600601546001600160401b0316919050565b6000610af06123c2565b600101546001600160a01b0316919050565b600090815260008051602061427b833981519152602052604090206001015490565b7ff0c57e16840df040f15088dc2f81fe391c3923bec73e23a9662efc9c229c6a008054600160401b810460ff1615906001600160401b0316600081158015610b695750825b90506000826001600160401b03166001148015610b855750303b155b905081158015610b93575080155b15610bb15760405163f92ee8a960e01b815260040160405180910390fd5b845467ffffffffffffffff191660011785558315610bdb57845460ff60401b1916600160401b1785555b6000610be56123c2565b9050610bf26000336123f0565b50610c0b60008051602061425b833981519152336123f0565b508651610c1a906000196140b4565b60098201557f000000000000000000000000000000000000000000000000000000000000000015610c4e5760001960098201555b6014600582015580546001600160a01b03808b166001600160a01b0319928316178355600183018054918b16919092161790556020870151600282015560408701516003820181905560608801516006830180546001600160401b0390921667ffffffffffffffff199092169190911790556080880151600b8301819055600c830155600482015560a0870151600d8201819055600e909101558315610d2e57845460ff60401b19168555604051600181527fc7f505b2f371ae2175ee4913f4499e1f2633a7b5936321eed1cdaeb6115181d29060200160405180910390a15b5050505050505050565b604080516101408101825260006080820181815260a0830182905260c0830182905260e0830182905261010083018290526101208301829052825260208201819052918101829052606081019190915233600a14610df25760405162461bcd60e51b815260206004820152603160248201527f4f6e6c7920617574686f72697a65642063616c6c65722063616e20636f6d70756044820152701d19481ddbdc9ad95c8818dbdb9d195e1d607a1b6064820152608401610828565b6000610dfc6123c2565b905082610e445760405162461bcd60e51b81526020600482015260166024820152754d696e657249642063616e6e6f74206265207a65726f60501b6044820152606401610828565b60008381526010820160205260409020546001600160a01b031680610eab5760405162461bcd60e51b815260206004820152601b60248201527f4d696e6572496420646f6573206e6f74207265676973746572656400000000006044820152606401610828565b60068201546001600160401b03166060840152815460408051635a325a9f60e11b815290516001600160a01b039092169163b464b53e9160048082019260c09290919082900301816000875af1158015610f09573d6000803e3d6000fd5b505050506040513d601f19601f82011682018060405250810190610f2d91906140c8565b808452600b83015460a09091015160405160009291610f59918890602001918252602082015260400190565b6040516020818303038152906040528051906020012060001c610f7c9190614122565b9050600083600d015482610f909190614074565b855160200151610fa0919061408b565b90506000846002015482610fb4919061408b565b90508143111580610fc457508043115b15610fd3575050505050919050565b855160a0015160408051602080820193909352844081830152815180820383018152606090910182528051920191909120908701526007850154865151111561102157855161102190612435565b6003850154611031906002614074565b8560080154101561104757600985015460208701525b5050505050919050565b60008051602061425b833981519152611069816123e6565b6000826001600160401b0316116110c25760405162461bcd60e51b815260206004820152601f60248201527f4d6178207368617264206e756d6265722063616e6e6f74206265207a65726f006044820152606401610828565b6110cd600183614136565b82166001600160401b03166000146111335760405162461bcd60e51b815260206004820152602360248201527f4d6178207368617264206e756d626572206d75737420626520706f776572206f60448201526233101960e91b6064820152608401610828565b600061113d6123c2565b600601805467ffffffffffffffff19166001600160401b0394909416939093179092555050565b61116d82610b02565b611176816123e6565b61118083836123f0565b50505050565b60006111906123c2565b60070154905090565b60006111a36123c2565b60020154905090565b60006111b66123c2565b546001600160a01b0316919050565b6001600160a01b03811633146111ee5760405163334bd91960e11b815260040160405180910390fd5b610a3382826124f6565b60006112026123c2565b60009283526010016020525060409020546001600160a01b031690565b60006112296123c2565b835160a0840151919250146112805760405162461bcd60e51b815260206004820152601a60248201527f496e636f6e73697374656e74206d696e696e67206469676573740000000000006044820152606401610828565b7fc5d2460186f7233c927e7db2dcc703c0e500b653ca82273b7bfad8045d85a4708260a00151036112f35760405162461bcd60e51b815260206004820152601960248201527f456d707479206469676573742063616e206e6f74206d696e65000000000000006044820152606401610828565b6003810154611303906002614074565b8160080154106113555760405162461bcd60e51b815260206004820152601c60248201527f45706f63682068617320656e6f756768207375626d697373696f6e73000000006044820152606401610828565b600061010061136661040082614074565b61137091906140b4565b61010061137f61040082614074565b61138991906140b4565b846060015161139891906140b4565b6113a29190614074565b60608501519091506113b49082612532565b815460c0850151604051630fab20e160e31b815260048101919091526000916001600160a01b031690637d590708906024016040805180830381865afa158015611402573d6000803e3d6000fd5b505050506040513d601f19601f82011682018060405250810190611426919061416d565b9050600061010061143a6104006004614074565b61144491906140b4565b8660800151611453919061408b565b90508082600001516001600160801b031610801561147e57508082602001516001600160801b031610155b6114ca5760405162461bcd60e51b815260206004820152601d60248201527f496e76616c6964207365616c656420636f6e74657874206469676573740000006044820152606401610828565b505050505050565b60006114dc6123c2565b60090154905090565b6114ed6139d4565b61074882612770565b60008051602061425b83398151915261150e816123e6565b60006115186123c2565b600481018490556007810154909150600003610a33576003019190915550565b60006115448383612815565b9392505050565b60008051602061425b833981519152611563816123e6565b600061156d6123c2565b9050600083116115bf5760405162461bcd60e51b815260206004820152601d60248201527f41646a75737420726174696f206d757374206265206e6f6e2d7a65726f0000006044820152606401610828565b6005019190915550565b6000806115d46123c2565b9050600081600b01548560a00151856040516020016115fd929190918252602082015260400190565b6040516020818303038152906040528051906020012060001c6116209190614122565b9050600082600d0154826116349190614074565b8660200151611643919061408b565b90506000836002015482611657919061408b565b90508143116116bb5760405162461bcd60e51b815260206004820152602a60248201527f4561726c696572207468616e206578706563746564207375627461736b20737460448201526930b93a10313637b1b59760b11b6064820152608401610828565b804311156117025760405162461bcd60e51b8152602060048201526014602482015273135a5b9948191958591b1a5b9948195e18d9595960621b6044820152606401610828565b60a08701516040805160208101929092528340908201526060016040516020818303038152906040528051906020012094505050505092915050565b60006117486123c2565b60040154905090565b60008051602061425b833981519152611769816123e6565b60006117736123c2565b9050600083116117c55760405162461bcd60e51b815260206004820152601f60248201527f5375627461736b20696e74657276616c2063616e6e6f74206265207a65726f006044820152606401610828565b805460408051633c1a081560e21b815290516001600160a01b039092169163f0682054916004808201926020929091908290030181865afa15801561180e573d6000803e3d6000fd5b505050506040513d601f19601f82011682018060405250810190611832919061405b565b816002015484600184600c01546118499190614048565b6118539190614074565b61185d919061408b565b61186890600161408b565b106118db5760405162461bcd60e51b815260206004820152603e60248201527f4e756d626572206f66207375627461736b20696e74657276616c73206d75737460448201527f206265206c657373207468616e20626c6f636b73207065722065706f636800006064820152608401610828565b600e81018390556007810154600003610a3357600d019190915550565b604082015160009061194c5760405162461bcd60e51b815260206004820152601860248201527f4d696e65722049442063616e6e6f7420626520656d70747900000000000000006044820152606401610828565b6000604051806080016040528085604001518152602001856020015181526020018481526020016119808660600151612a88565b90529050600061198f82612af0565b905060006119a06104006010614074565b6119ae610400610100614074565b6119b891906140b4565b6119c56104006004614074565b6119d3610400610100614074565b6119dd91906140b4565b6119e791906140b4565b8660a001516119f69190614122565b9050611a006139d4565b611a086139f3565b611a178860e001518486612b68565b92509050610100611a2b6104006004614074565b611a3591906140b4565b8860a00151611a449190614074565b611a8182604051602001611a5891906141c7565b604051602081830303815290604052805190602001208a60600151612ce890919063ffffffff16565b611a8b919061408b565b886080015114611add5760405162461bcd60e51b815260206004820152601960248201527f496e636f727265637420726563616c6c20706f736974696f6e000000000000006044820152606401610828565b611aec8860a001518584612dee565b98975050505050505050565b6000611b026123c2565b600d0154905090565b600082815260008051602061423b833981519152602081905260408220611b329084612fac565b949350505050565b600091825260008051602061427b833981519152602090815260408084206001600160a01b0393909316845291905290205460ff1690565b6000611b7c6123c2565b600b0154905090565b6000611b8f6123c2565b60080154905090565b60008051602061425b833981519152611bb0816123e6565b6000611bba6123c2565b600a810184905590506000611bcd612fb8565b9050808260090154111561118057600991909101555050565b6000611bf06123c2565b6040830151909150611c3d5760405162461bcd60e51b81526020600482015260166024820152754d696e657249642063616e6e6f74206265207a65726f60501b6044820152606401610828565b60408083015160009081526010830160205220546001600160a01b031680611ca75760405162461bcd60e51b815260206004820152601b60248201527f4d696e6572496420646f6573206e6f74207265676973746572656400000000006044820152606401610828565b815460408051635a325a9f60e11b815290516000926001600160a01b03169163b464b53e9160048083019260c0929190829003018187875af1158015611cf1573d6000803e3d6000fd5b505050506040513d601f19601f82011682018060405250810190611d1591906140c8565b9050611d2081612435565b6000611d308286604001516115c9565b9050611d3c858361121f565b600684015460608601516001600160401b0390911690611d5b90612ff1565b1115611db85760405162461bcd60e51b815260206004820152602660248201527f457863656564696e672074686520616c6c6f776564206e756d626572206f662060448201526573686172647360d01b6064820152608401610828565b611dc06139d4565b7f000000000000000000000000000000000000000000000000000000000000000015611e69577fc5d2460186f7233c927e7db2dcc703c0e500b653ca82273b7bfad8045d85a4708660c0015103611e595760405162461bcd60e51b815260206004820152601b60248201527f5365616c206469676573742063616e6e6f7420626520656d70747900000000006044820152606401610828565b611e6286612770565b9050611e70565b5060e08501515b7f000000000000000000000000000000000000000000000000000000000000000015611ef9576000611ea28783612815565b905083604001518114611ef75760405162461bcd60e51b815260206004820152601860248201527f496e636f6e73697374656e74206d65726b6c6520726f6f7400000000000000006044820152606401610828565b505b611f016139d4565b90506000611f0f87846118f8565b90506000611f2e8560600151896060015161303b90919063ffffffff16565b90506040818860090154611f4291906140b4565b901b821115611f935760405162461bcd60e51b815260206004820152601b60248201527f446f206e6f7420726561636820746172676574207175616c69747900000000006044820152606401610828565b6000828152600f8801602052604090205460ff1615611ff45760405162461bcd60e51b815260206004820152601960248201527f416e7377657220686173206265656e207375626d6974746564000000000000006044820152606401610828565b6000828152600f880160205260409020805460ff191660019081179091558701546001600160a01b031663b7a3c04c61010061203261040080614074565b61203e90610400614074565b612049906008614074565b61205391906140b4565b8a6080015161206291906140b4565b6040808c015190516001600160e01b031960e085901b16815260048101929092526001600160a01b038a1660248301526044820152606401600060405180830381600087803b1580156120b457600080fd5b505af11580156120c8573d6000803e3d6000fd5b5050506040808a0151875160088b015460808d015184519182526020820152919350917ffedd8f58059af8fd54b4394c01ea8d07cac041988be3b5a822fb779f9c8de3a4910160405180910390a3845160078801556008870180546001919060009061213590849061408b565b90915550505050505050505050565b600061214f83612770565b905061215b8382612815565b506121646139d4565b905061118083836118f8565b600061217a6123c2565b60008381526010820160205260409020549091506001600160a01b031633146121e55760405162461bcd60e51b815260206004820152601b60248201527f53656e64657220646f6573206e6f74206f776e206d696e6572496400000000006044820152606401610828565b600082815260108201602052604080822080546001600160a01b0319166001600160a01b03871690811790915590519091339185917f9a26a8e7fd42c501b452c02016def8048e3ea28c2bf15127a9b5e2029d989bf191a4505050565b600061224c6123c2565b600a0154905090565b61225e8161317b565b50565b600061226b6123c2565b60030154905090565b600081815260008051602061423b833981519152602081905260408220611544906131a7565b6122a382610b02565b6122ac816123e6565b61118083836124f6565b60006122c06123c2565b60050154905090565b61225e816131b1565b6000806122dd6123c2565b905060008160000160009054906101000a90046001600160a01b03166001600160a01b031663b464b53e6040518163ffffffff1660e01b815260040160c0604051808303816000875af1158015612338573d6000803e3d6000fd5b505050506040513d601f19601f8201168201806040525081019061235c91906140c8565b90508160070154816000015111806123865750600382015461237f906002614074565b8260080154105b9250505090565b60006001600160e01b03198216637965db0b60e01b148061074857506301ffc9a760e01b6001600160e01b0319831614610748565b7f11daa6f94f95391c200e8721026efe26699a21dbe0ead47ee9562dd85a6e300090565b61225e81336131c5565b600060008051602061423b8339815191528161240c85856131fe565b90508015611b3257600085815260208390526040902061242c90856132aa565b50949350505050565b600061243f6123c2565b90508060070154826000015110156124a75760405162461bcd60e51b815260206004820152602560248201527f496e7465726e616c206572726f723a2065706f6368206e756d62657220646563604482015264726561736560d81b6064820152608401610828565b600781015482511180156124bf575060008160070154115b156124f2576124cc6132bf565b6000600882015560048101546003820155600c810154600b820155600e810154600d8201555b5050565b600060008051602061423b833981519152816125128585613314565b90508015611b3257600085815260208390526040902061242c9085613390565b61010061254161040080614074565b61254d90610400614074565b612558906008614074565b61256291906140b4565b825161256e9190614122565b156125bb5760405162461bcd60e51b815260206004820152601d60248201527f537461727420706f736974696f6e206973206e6f7420616c69676e65640000006044820152606401610828565b6020820151825182916125cd9161408b565b11156126135760405162461bcd60e51b81526020600482015260156024820152744d696e696e672072616e6765206f766572666c6f7760581b6044820152606401610828565b600061261e83612ff1565b61010061262d61040080614074565b61263990610400614074565b61264590610400614074565b612650906008614074565b61265a91906140b4565b6126649190614074565b905080836020015111156126b25760405162461bcd60e51b81526020600482015260156024820152744d696e696e672072616e676520746f6f206c6f6e6760581b6044820152606401610828565b60006126be83836133a5565b9050808460200151101561270d5760405162461bcd60e51b8152602060048201526016602482015275135a5b9a5b99c81c985b99d9481d1bdbc81cda1bdc9d60521b6044820152606401610828565b83606001518460400151166001600160401b03166000146111805760405162461bcd60e51b815260206004820152601a60248201527f4d61736b656420626974732073686f756c64206265207a65726f0000000000006044820152606401610828565b6127786139d4565b60408083015160c0840151608085015192516127a893906020019283526020830191909152604082015260600190565b60408051808303601f19018152919052805160209182012060e08401805151909118835251906000906127de6104006004614074565b6127e891906140b4565b905081836020600184030281015b80821015611047576020808420938101805190941892019182526127f6565b6000805b60206128286104006004614074565b61283291906140b4565b811015612880576101006020820284012080848360808110612856576128566141ef565b60200201818152505050602061010061286f91906140b4565b612879908261408b565b9050612819565b50600061289060206101006140b4565b90505b60206128a26104006004614074565b6128ac91906140b4565b81101561297f5760005b60206128c56104006004614074565b6128cf91906140b4565b8110156129765760008482608081106128ea576128ea6141ef565b602002015190506000856128fe858561408b565b6080811061290e5761290e6141ef565b602002015190508181604051602001612931929190918252602082015260400190565b60405160208183030381529060405280519060200120868460808110612959576129596141ef565b60200201525061296f9050600183901b8261408b565b90506128b6565b5060011b612893565b50815161298a6139d4565b9250600061010061299e6104006004614074565b6129a891906140b4565b85608001516129b791906140b4565b905060005b85610100015151811015612a7e576000806129d8600285614122565b600003612a085784915087610100015183815181106129f9576129f96141ef565b60200260200101519050612a2d565b8761010001518381518110612a1f57612a1f6141ef565b602002602001015191508490505b6040805160208101849052908101829052606001604051602081830303815290604052805190602001209450600284612a6691906140b4565b93505050600181612a77919061408b565b90506129bc565b5090949350505050565b60008160000151826020015183604001518460600151604051602001612ad3949392919093845260208401929092526001600160401b03908116604084015216606082015260800190565b604051602081830303815290604052805190602001209050919050565b612af86139f3565b7f48c9bdf267e6096a3ba7ca8485ae67bb2bf894fe72f36e3cf1361d5f3af54fa581527fd182e6ad7f520e511f6c3e2b8c68059b6bbd41fbabd9831f79217e1319cde05b6020808301919091528251908301516040840151606085015161074893859390929091608060016133bb565b612b706139f3565b612b786139d4565b6000612b83846134d4565b9050612bb1816040612b986104006004614074565b612ba291906140b4565b612bac9088614074565b6134f0565b60005b6080811015612c41576040808320835282206020830152868160808110612bdd57612bdd6141ef565b6020020151825118838260808110612bf757612bf76141ef565b6020020152866001820160808110612c1157612c116141ef565b6020020151826001602002015118838260010160808110612c3457612c346141ef565b6020020152600201612bb4565b50612cd4816040612c556104006004614074565b612c5f91906140b4565b600188612c6f6104006010614074565b612c7d610400610100614074565b612c8791906140b4565b612c946104006004614074565b612ca2610400610100614074565b612cac91906140b4565b612cb691906140b4565b612cc09190614048565b612cca9190614048565b612bac9190614074565b612cdd816134d4565b925050935093915050565b600080610100612cfa61040082614074565b612d0491906140b4565b8460200151612d1391906140b4565b612d1d9084614122565b60408501516060860151602087015192935083161790610100612d4261040082614074565b612d4c91906140b4565b612d5f906001600160401b038416614074565b1115612dad5760405162461bcd60e51b815260206004820152601c60248201527f526563616c6c20706f736974696f6e206f7574206f6620626f756e64000000006044820152606401610828565b610100612dbc61040082614074565b612dc691906140b4565b612dd9906001600160401b038316614074565b8551612de5919061408b565b95945050505050565b6000612df86139f3565b7f48c9bdf267e6096a3ba7ca8485ae67bb2bf894fe72f36e3cf1361d5f3af54fa581527fd182e6ad7f520e511f6c3e2b8c68059b6bbd41fbabd9831f79217e1319cde05b602080830191909152845190850151612e5e91839188919060006080816133bb565b9050612e68613a11565b608060006020612e7b6104006004614074565b612e8591906140b4565b612e90906020614074565b612e9b90608061408b565b90506000601c8401601f8501602086016060870160e0880160e1890160f08a018d600c87538c51865260208d015160208701525b88198a8c101615612f3a5760808b019a5060ff8b1684538a60081c835380518552602081015160208601526040810151604086015260608101516060860152608081019050898b03612f2057600182535b60408660d58a6009600019fa612f3557600198505b612ecf565b50505050505050508015612f9c5760405162461bcd60e51b815260206004820152602360248201527f626c616b65326220696e7465726e616c206572726f7220617420506f524120686044820152620c2e6d60eb1b6064820152608401610828565b5050506020015195945050505050565b60006115448383613511565b600080612fc36123c2565b905080600a0154600003612fda5760001991505090565b600a810154612feb906000196140b4565b91505090565b606081015160009019815b6001600160401b0382161561302c57613016600183614136565b909116908061302481614205565b915050612ffc565b600160ff9091161b9392505050565b60008061010061304d61040080614074565b61305990610400614074565b61306590610400614074565b613070906008614074565b61307a91906140b4565b831161308657826130c2565b61010061309561040080614074565b6130a190610400614074565b6130ad90610400614074565b6130b8906008614074565b6130c291906140b4565b905060006130cf85612ff1565b6130d990856140b4565b905060006101006130ec61040080614074565b6130f890610400614074565b61310490610400614074565b61310f906008614074565b61311991906140b4565b82116131255781613161565b61010061313461040080614074565b61314090610400614074565b61314c90610400614074565b613157906008614074565b61316191906140b4565b905061317181604085901b6140b4565b9695505050505050565b60006131856123c2565b6000928352601001602052506040902080546001600160a01b03191633179055565b6000610748825490565b60006131bb6123c2565b6009019190915550565b6131cf8282611b3a565b6124f25760405163e2517d3f60e01b81526001600160a01b038216600482015260248101839052604401610828565b600060008051602061427b8339815191526132198484611b3a565b613299576000848152602082815260408083206001600160a01b03871684529091529020805460ff1916600117905561324f3390565b6001600160a01b0316836001600160a01b0316857f2f8788117e7eff1d82e926ec794901d17c78024a50270940304540a733656f0d60405160405180910390a46001915050610748565b6000915050610748565b5092915050565b6000611544836001600160a01b03841661353b565b60006132c96123c2565b90506000808260080154111561330157600060108360090154901c90506132f9818460030154856008015461358a565b91505061330b565b506001600160f01b035b6124f28161364e565b600060008051602061427b83398151915261332f8484611b3a565b15613299576000848152602082815260408083206001600160a01b0387168085529252808320805460ff1916905551339287917ff6391f5c32d9c69d2a47ea670b442974b53935d1edc7fd64eb21e047a839171b9190a46001915050610748565b6000611544836001600160a01b03841661374e565b60008183106133b45781611544565b5090919050565b6133c36139f3565b600c60006133d085613837565b8a516020808d0151835184830151604080516001600160e01b031960e08b901b168187015260248101969096526044860193909352606485018f9052608485018e905260a485018d905260c485018c90526001600160c01b031991821660e48601521660ec84015287151560f81b60f4840152805160d58185038101825260f59094018252939450600092909187919085016009600019fa9050806000036134c55760405162461bcd60e51b815260206004820152602260248201527f626c616b65326220696e7465726e616c206572726f7220617420626c616b6532604482015261312360f11b6064820152608401610828565b50505050979650505050505050565b6134dc6139f3565b815181526020918201519181019190915290565b60005b81811015610a335760408084208452832060208401526001016134f3565b6000826000018281548110613528576135286141ef565b9060005260206000200154905092915050565b600081815260018301602052604081205461358257508154600181810184556000848152602080822090930184905584548482528286019093526040902091909155610748565b506000610748565b60008383028160001985870982811083820303915050806000036135c1578382816135b7576135b761409e565b0492505050611544565b8084116135e15760405163227bc15360e01b815260040160405180910390fd5b6000848688096000868103871696879004966002600389028118808a02820302808a02820302808a02820302808a02820302808a02820302808a02909103029181900381900460010186841190950394909402919094039290920491909117919091029150509392505050565b60006136586123c2565b90507f000000000000000000000000000000000000000000000000000000000000000015613684575050565b6009810154600582015460109190911c90600081856136a4600183614048565b6136ae9086614074565b6136b8919061408b565b6136c291906140b4565b90506136cf836002614074565b8111156136e4576136e1836002614074565b90505b6136ef6002846140b4565b811015613704576137016002846140b4565b90505b6001600160f01b0381111561371d57506001600160f01b035b601081901b60098501556000613731612fb8565b905080856009015411156114ca5760098501819055505050505050565b60008181526001830160205260408120548015613299576000613772600183614048565b855490915060009061378690600190614048565b90508082146137eb5760008660000182815481106137a6576137a66141ef565b90600052602060002001549050808760000184815481106137c9576137c96141ef565b6000918252602080832090910192909255918252600188019052604090208390555b85548690806137fc576137fc614224565b600190038181906000526020600020016000905590558560010160008681526020019081526020016000206000905560019350505050610748565b61383f6139f3565b6201000082101561388357600882811c66ffffffffffffff169083901b67ffffffffffffff00161760f01b5b6001600160c01b031916815260006020820152919050565b6401000000008210156138c357600882811b63ff00ff001662ff00ff9184901c9190911617601081811b91901c1760e01b6001600160e01b03191661386b565b600160401b8210156138d85761386b8261396e565b600160801b821015613928576001600160401b038216604083901c6138fc8261396e565b6001600160c01b03191683526139118161396e565b6001600160c01b0319166020840152506139699050565b60405162461bcd60e51b8152602060048201526016602482015275626c616b65326220696e70757420746f6f206c6f6e6760501b6044820152606401610828565b919050565b65ff000000ff00600882811b91821664ff000000ff9390911c92831617601090811b67ff000000ff0000009290921666ff000000ff0000939093169290921790911c17602081811b6bffffffffffffffff000000001691901c63ffffffff161760c01b90565b6040518061100001604052806080906020820280368337509192915050565b60405180604001604052806002906020820280368337509192915050565b6040518061010001604052806008906020820280368337509192915050565b600060208284031215613a4257600080fd5b81356001600160e01b03198116811461154457600080fd5b80356001600160a01b038116811461396957600080fd5b80356001600160401b038116811461396957600080fd5b60008060408385031215613a9b57600080fd5b613aa483613a5a565b9150613ab260208401613a71565b90509250929050565b600060208284031215613acd57600080fd5b5035919050565b634e487b7160e01b600052604160045260246000fd5b60405160c081016001600160401b0381118282101715613b0c57613b0c613ad4565b60405290565b60405161012081016001600160401b0381118282101715613b0c57613b0c613ad4565b6000806000838503610100811215613b4c57600080fd5b613b5585613a5a565b9350613b6360208601613a5a565b925060c0603f1982011215613b7757600080fd5b50613b80613aea565b604085013581526060850135602082015260808501356040820152613ba760a08601613a71565b606082015260c0850135608082015260e09094013560a0850152509093909250565b600060208284031215613bdb57600080fd5b61154482613a71565b60008060408385031215613bf757600080fd5b82359150613ab260208401613a5a565b600060808284031215613c1957600080fd5b604051608081018181106001600160401b0382111715613c3b57613c3b613ad4565b80604052508091508235815260208301356020820152613c5d60408401613a71565b6040820152613c6e60608401613a71565b60608201525092915050565b600082601f830112613c8b57600080fd5b6040516110008082018281106001600160401b0382111715613caf57613caf613ad4565b60405283018185821115613cc257600080fd5b845b82811015613cdc578035825260209182019101613cc4565b509195945050505050565b600082601f830112613cf857600080fd5b813560206001600160401b0380831115613d1457613d14613ad4565b8260051b604051601f19603f83011681018181108482111715613d3957613d39613ad4565b604052938452858101830193838101925087851115613d5757600080fd5b83870191505b84821015613d7657813583529183019190830190613d5d565b979650505050505050565b60006111608284031215613d9457600080fd5b613d9c613b12565b9050813581526020820135602082015260408201356040820152613dc38360608401613c07565b606082015260e082013560808201526101008083013560a083015261012083013560c0830152613df7846101408501613c7a565b60e08301526111408301356001600160401b03811115613e1657600080fd5b613e2285828601613ce7565b82840152505092915050565b600060c08284031215613e4057600080fd5b613e48613aea565b9050813581526020820135602082015260408201356040820152606082013560608201526080820135608082015260a082013560a082015292915050565b60008060e08385031215613e9957600080fd5b82356001600160401b03811115613eaf57600080fd5b613ebb85828601613d81565b925050613ab28460208501613e2e565b600060208284031215613edd57600080fd5b81356001600160401b03811115613ef357600080fd5b611b3284828501613d81565b6110008101818360005b6080811015613f28578151835260209283019290910190600101613f09565b50505092915050565b6000806110208385031215613f4557600080fd5b82356001600160401b03811115613f5b57600080fd5b613f6785828601613d81565b925050613ab28460208501613c7a565b60008060e08385031215613f8a57600080fd5b613f948484613e2e565b9460c0939093013593505050565b60008060408385031215613fb557600080fd5b82356001600160401b03811115613fcb57600080fd5b613fd785828601613d81565b95602094909401359450505050565b60008060408385031215613ff957600080fd5b50508035926020909101359150565b6000806040838503121561401b57600080fd5b61402483613a5a565b946020939093013593505050565b634e487b7160e01b600052601160045260246000fd5b8181038181111561074857610748614032565b60006020828403121561406d57600080fd5b5051919050565b808202811582820484141761074857610748614032565b8082018082111561074857610748614032565b634e487b7160e01b600052601260045260246000fd5b6000826140c3576140c361409e565b500490565b600060c082840312156140da57600080fd5b6140e2613aea565b825181526020830151602082015260408301516040820152606083015160608201526080830151608082015260a083015160a08201528091505092915050565b6000826141315761413161409e565b500690565b6001600160401b038281168282160390808211156132a3576132a3614032565b80516001600160801b038116811461396957600080fd5b60006040828403121561417f57600080fd5b604051604081018181106001600160401b03821117156141a1576141a1613ad4565b6040526141ad83614156565b81526141bb60208401614156565b60208201529392505050565b60408101818360005b6002811015613f285781518352602092830192909101906001016141d0565b634e487b7160e01b600052603260045260246000fd5b600060ff821660ff810361421b5761421b614032565b60010192915050565b634e487b7160e01b600052603160045260246000fdfec1f6fe24621ce81ec5827caf0253cadb74709b061630e6b55e82371705932000b9d69e0ca90be54a40811e436234a7f7908b87ff2bec27e64f878b166da8e8e502dd7bc7dec4dceedda775e58dd541e08a116c6c53815c0bd028192f7b626800a264697066735822122000d6a3544ea5d7ad1dc7a31309358891af54cd8add4b6f1e5546b20c55ba2fc064736f6c63430008140033",
  "linkReferences": {},
  "deployedLinkReferences": {}
}